{
  "contractName": "NamerTestFakeNoncompliantBEP20",
  "abi": [
    {
      "inputs": [
        {
          "internalType": "bytes32",
          "name": "name_",
          "type": "bytes32"
        },
        {
          "internalType": "bytes32",
          "name": "symbol_",
          "type": "bytes32"
        }
      ],
      "stateMutability": "nonpayable",
      "type": "constructor"
    },
    {
      "inputs": [],
      "name": "name",
      "outputs": [
        {
          "internalType": "bytes32",
          "name": "",
          "type": "bytes32"
        }
      ],
      "stateMutability": "view",
      "type": "function"
    },
    {
      "inputs": [],
      "name": "symbol",
      "outputs": [
        {
          "internalType": "bytes32",
          "name": "",
          "type": "bytes32"
        }
      ],
      "stateMutability": "view",
      "type": "function"
    }
  ],
  "bytecode": "0x608060405234801561001057600080fd5b5060405161011d38038061011d8339818101604052604081101561003357600080fd5b8101908080519060200190929190805190602001909291905050508160008190555080600181905550505060b18061006c6000396000f3fe6080604052348015600f57600080fd5b506004361060325760003560e01c806306fdde0314603757806395d89b41146053575b600080fd5b603d606f565b6040518082815260200191505060405180910390f35b60596075565b6040518082815260200191505060405180910390f35b60005481565b6001548156fea2646970667358221220195ee2cd82d99d331518c4b82f7a0981a87802ff6042bbdbd8fb36d98c5f8fe664736f6c634300060c0033",
  "immutableReferences": {},
  "source": "// SPDX-License-Identifier: GPL-3.0-or-later\n\npragma solidity >=0.5.0;\n\nimport '../utils/SafeBEP20Namer.sol';\n\n// used for testing the logic of token naming\ncontract SafeBEP20NamerTest {\n    function tokenSymbol(address token) public view returns (string memory) {\n        return SafeBEP20Namer.tokenSymbol(token);\n    }\n\n    function tokenName(address token) public view returns (string memory) {\n        return SafeBEP20Namer.tokenName(token);\n    }\n}\n\n// does not implement name or symbol\ncontract NamerTestFakeOptionalBEP20 {\n\n}\n\n// complies with BEP20 and returns strings\ncontract NamerTestFakeCompliantBEP20 {\n    string public name;\n    string public symbol;\n\n    constructor(string memory name_, string memory symbol_) public {\n        name = name_;\n        symbol = symbol_;\n    }\n}\n\n// implements name and symbol but returns bytes32\ncontract NamerTestFakeNoncompliantBEP20 {\n    bytes32 public name;\n    bytes32 public symbol;\n\n    constructor(bytes32 name_, bytes32 symbol_) public {\n        name = name_;\n        symbol = symbol_;\n    }\n}\n",
  "sourcePath": "/Users/binzy/Projects/rune-farm/contracts/lib/test/SafeBEP20NamerTest.sol",
  "compiler": {
    "name": "solc",
    "version": "0.6.12+commit.27d51765.Emscripten.clang"
  },
  "schemaVersion": "3.3.4",
  "updatedAt": "2021-03-11T08:22:33.210Z",
  "devdoc": {
    "kind": "dev",
    "methods": {},
    "version": 1
  },
  "userdoc": {
    "kind": "user",
    "methods": {},
    "version": 1
  }
}