{
  "contractName": "SafeBEP20NamerTest",
  "abi": [
    {
      "inputs": [
        {
          "internalType": "address",
          "name": "token",
          "type": "address"
        }
      ],
      "name": "tokenSymbol",
      "outputs": [
        {
          "internalType": "string",
          "name": "",
          "type": "string"
        }
      ],
      "stateMutability": "view",
      "type": "function"
    },
    {
      "inputs": [
        {
          "internalType": "address",
          "name": "token",
          "type": "address"
        }
      ],
      "name": "tokenName",
      "outputs": [
        {
          "internalType": "string",
          "name": "",
          "type": "string"
        }
      ],
      "stateMutability": "view",
      "type": "function"
    }
  ],
  "bytecode": "0x608060405234801561001057600080fd5b5061090e806100206000396000f3fe608060405234801561001057600080fd5b50600436106100365760003560e01c8063033b9b4f1461003b578063e54f7522146100f8575b600080fd5b61007d6004803603602081101561005157600080fd5b81019080803573ffffffffffffffffffffffffffffffffffffffff1690602001909291905050506101b5565b6040518080602001828103825283818151815260200191508051906020019080838360005b838110156100bd5780820151818401526020810190506100a2565b50505050905090810190601f1680156100ea5780820380516001836020036101000a031916815260200191505b509250505060405180910390f35b61013a6004803603602081101561010e57600080fd5b81019080803573ffffffffffffffffffffffffffffffffffffffff1690602001909291905050506101c7565b6040518080602001828103825283818151815260200191508051906020019080838360005b8381101561017a57808201518184015260208101905061015f565b50505050905090810190601f1680156101a75780820380516001836020036101000a031916815260200191505b509250505060405180910390f35b60606101c0826101d9565b9050919050565b60606101d282610214565b9050919050565b6060806101ed836395d89b4160e01b61024f565b905060008151141561020a57610202836104de565b91505061020f565b809150505b919050565b606080610228836306fdde0360e01b61024f565b90506000815114156102455761023d836104f2565b91505061024a565b809150505b919050565b6060600060608473ffffffffffffffffffffffffffffffffffffffff1684604051602401604051602081830303815290604052907bffffffffffffffffffffffffffffffffffffffffffffffffffffffff19166020820180517bffffffffffffffffffffffffffffffffffffffffffffffffffffffff83818316178352505050506040518082805190602001908083835b6020831061030357805182526020820191506020810190506020830392506102e0565b6001836020036101000a038019825116818451168082178552505050505050905001915050600060405180830381855afa9150503d8060008114610363576040519150601f19603f3d011682016040523d82523d6000602084013e610368565b606091505b509150915081158061037b575060008151145b156103995760405180602001604052806000815250925050506104d8565b6020815114156103e05760008180602001905160208110156103ba57600080fd5b810190808051906020019092919050505090506103d681610506565b93505050506104d8565b6040815111156104c3578080602001905160208110156103ff57600080fd5b810190808051604051939291908464010000000082111561041f57600080fd5b8382019150602082018581111561043557600080fd5b825186600182028301116401000000008211171561045257600080fd5b8083526020830192505050908051906020019080838360005b8381101561048657808201518184015260208101905061046b565b50505050905090810190601f1680156104b35780820380516001836020036101000a031916815260200191505b50604052505050925050506104d8565b60405180602001604052806000815250925050505b92915050565b60606104eb8260066106be565b9050919050565b60606104ff8260286106be565b9050919050565b606080602067ffffffffffffffff8111801561052157600080fd5b506040519080825280601f01601f1916602001820160405280156105545781602001600182028036833780820191505090505b5090506000805b60208110156105f857600085826020811061057257fe5b1a60f81b9050600060f81b817effffffffffffffffffffffffffffffffffffffffffffffffffffffffffffff1916146105ea57808484815181106105b257fe5b60200101907effffffffffffffffffffffffffffffffffffffffffffffffffffffffffffff1916908160001a90535082806001019350505b50808060010191505061055b565b5060608167ffffffffffffffff8111801561061257600080fd5b506040519080825280601f01601f1916602001820160405280156106455781602001600182028036833780820191505090505b50905060005b828110156106b25783818151811061065f57fe5b602001015160f81c60f81b82828151811061067657fe5b60200101907effffffffffffffffffffffffffffffffffffffffffffffffffffffffffffff1916908160001a905350808060010191505061064b565b50809350505050919050565b60606000600283816106cc57fe5b061480156106da5750600082115b80156106e7575060288211155b610759576040517f08c379a000000000000000000000000000000000000000000000000000000000815260040180806020018281038252601e8152602001807f41646472657373537472696e675574696c3a20494e56414c49445f4c454e000081525060200191505060405180910390fd5b60608267ffffffffffffffff8111801561077257600080fd5b506040519080825280601f01601f1916602001820160405280156107a55781602001600182028036833780820191505090505b50905060008473ffffffffffffffffffffffffffffffffffffffff16905060005b600285816107d057fe5b048110156108a15760008160130360080283901c9050600060048260ff16901c9050600060048260ff16901b83039050610809826108ad565b86856002028151811061081857fe5b60200101907effffffffffffffffffffffffffffffffffffffffffffffffffffffffffffff1916908160001a905350610850816108ad565b86600186600202018151811061086257fe5b60200101907effffffffffffffffffffffffffffffffffffffffffffffffffffffffffffff1916908160001a90535050505080806001019150506107c6565b50819250505092915050565b6000600a8260ff1610156108c9576030820160f81b90506108d3565b6037820160f81b90505b91905056fea2646970667358221220f4fdc888f37d0744b884e85d9792b656ef4948e1560b981641e780d05073ff3264736f6c634300060c0033",
  "immutableReferences": {},
  "source": "// SPDX-License-Identifier: GPL-3.0-or-later\n\npragma solidity >=0.5.0;\n\nimport '../utils/SafeBEP20Namer.sol';\n\n// used for testing the logic of token naming\ncontract SafeBEP20NamerTest {\n    function tokenSymbol(address token) public view returns (string memory) {\n        return SafeBEP20Namer.tokenSymbol(token);\n    }\n\n    function tokenName(address token) public view returns (string memory) {\n        return SafeBEP20Namer.tokenName(token);\n    }\n}\n\n// does not implement name or symbol\ncontract NamerTestFakeOptionalBEP20 {\n\n}\n\n// complies with BEP20 and returns strings\ncontract NamerTestFakeCompliantBEP20 {\n    string public name;\n    string public symbol;\n\n    constructor(string memory name_, string memory symbol_) public {\n        name = name_;\n        symbol = symbol_;\n    }\n}\n\n// implements name and symbol but returns bytes32\ncontract NamerTestFakeNoncompliantBEP20 {\n    bytes32 public name;\n    bytes32 public symbol;\n\n    constructor(bytes32 name_, bytes32 symbol_) public {\n        name = name_;\n        symbol = symbol_;\n    }\n}\n",
  "sourcePath": "/Users/binzy/Projects/rune-farm/contracts/lib/test/SafeBEP20NamerTest.sol",
  "compiler": {
    "name": "solc",
    "version": "0.6.12+commit.27d51765.Emscripten.clang"
  },
  "schemaVersion": "3.3.4",
  "updatedAt": "2021-03-11T08:22:33.212Z",
  "devdoc": {
    "kind": "dev",
    "methods": {},
    "version": 1
  },
  "userdoc": {
    "kind": "user",
    "methods": {},
    "version": 1
  }
}