{
  "contractName": "TransferHelperTest",
  "abi": [
    {
      "inputs": [
        {
          "internalType": "address",
          "name": "token",
          "type": "address"
        },
        {
          "internalType": "address",
          "name": "to",
          "type": "address"
        },
        {
          "internalType": "uint256",
          "name": "value",
          "type": "uint256"
        }
      ],
      "name": "safeApprove",
      "outputs": [],
      "stateMutability": "nonpayable",
      "type": "function"
    },
    {
      "inputs": [
        {
          "internalType": "address",
          "name": "token",
          "type": "address"
        },
        {
          "internalType": "address",
          "name": "to",
          "type": "address"
        },
        {
          "internalType": "uint256",
          "name": "value",
          "type": "uint256"
        }
      ],
      "name": "safeTransfer",
      "outputs": [],
      "stateMutability": "nonpayable",
      "type": "function"
    },
    {
      "inputs": [
        {
          "internalType": "address",
          "name": "token",
          "type": "address"
        },
        {
          "internalType": "address",
          "name": "from",
          "type": "address"
        },
        {
          "internalType": "address",
          "name": "to",
          "type": "address"
        },
        {
          "internalType": "uint256",
          "name": "value",
          "type": "uint256"
        }
      ],
      "name": "safeTransferFrom",
      "outputs": [],
      "stateMutability": "nonpayable",
      "type": "function"
    },
    {
      "inputs": [
        {
          "internalType": "address",
          "name": "to",
          "type": "address"
        },
        {
          "internalType": "uint256",
          "name": "value",
          "type": "uint256"
        }
      ],
      "name": "safeTransferBNB",
      "outputs": [],
      "stateMutability": "nonpayable",
      "type": "function"
    }
  ],
  "bytecode": "0x608060405234801561001057600080fd5b506109d0806100206000396000f3fe608060405234801561001057600080fd5b506004361061004c5760003560e01c80638e0399d114610051578063d1660f991461009f578063d9fc4b611461010d578063eb5625d91461019b575b600080fd5b61009d6004803603604081101561006757600080fd5b81019080803573ffffffffffffffffffffffffffffffffffffffff16906020019092919080359060200190929190505050610209565b005b61010b600480360360608110156100b557600080fd5b81019080803573ffffffffffffffffffffffffffffffffffffffff169060200190929190803573ffffffffffffffffffffffffffffffffffffffff16906020019092919080359060200190929190505050610217565b005b6101996004803603608081101561012357600080fd5b81019080803573ffffffffffffffffffffffffffffffffffffffff169060200190929190803573ffffffffffffffffffffffffffffffffffffffff169060200190929190803573ffffffffffffffffffffffffffffffffffffffff16906020019092919080359060200190929190505050610227565b005b610207600480360360608110156101b157600080fd5b81019080803573ffffffffffffffffffffffffffffffffffffffff169060200190929190803573ffffffffffffffffffffffffffffffffffffffff16906020019092919080359060200190929190505050610239565b005b6102138282610249565b5050565b6102228383836103a8565b505050565b6102338484848461058b565b50505050565b610244838383610770565b505050565b60008273ffffffffffffffffffffffffffffffffffffffff1682600067ffffffffffffffff8111801561027b57600080fd5b506040519080825280601f01601f1916602001820160405280156102ae5781602001600182028036833780820191505090505b506040518082805190602001908083835b602083106102e257805182526020820191506020810190506020830392506102bf565b6001836020036101000a03801982511681845116808217855250505050505090500191505060006040518083038185875af1925050503d8060008114610344576040519150601f19603f3d011682016040523d82523d6000602084013e610349565b606091505b50509050806103a3576040517f08c379a00000000000000000000000000000000000000000000000000000000081526004018080602001828103825260238152602001806109546023913960400191505060405180910390fd5b505050565b600060608473ffffffffffffffffffffffffffffffffffffffff1663a9059cbb8585604051602401808373ffffffffffffffffffffffffffffffffffffffff168152602001828152602001925050506040516020818303038152906040529060e01b6020820180517bffffffffffffffffffffffffffffffffffffffffffffffffffffffff83818316178352505050506040518082805190602001908083835b6020831061046b5780518252602082019150602081019050602083039250610448565b6001836020036101000a0380198251168184511680821785525050505050509050019150506000604051808303816000865af19150503d80600081146104cd576040519150601f19603f3d011682016040523d82523d6000602084013e6104d2565b606091505b5091509150818015610512575060008151148061051157508080602001905160208110156104ff57600080fd5b81019080805190602001909291905050505b5b610584576040517f08c379a000000000000000000000000000000000000000000000000000000000815260040180806020018281038252601f8152602001807f5472616e7366657248656c7065723a205452414e534645525f4641494c45440081525060200191505060405180910390fd5b5050505050565b600060608573ffffffffffffffffffffffffffffffffffffffff166323b872dd868686604051602401808473ffffffffffffffffffffffffffffffffffffffff1681526020018373ffffffffffffffffffffffffffffffffffffffff16815260200182815260200193505050506040516020818303038152906040529060e01b6020820180517bffffffffffffffffffffffffffffffffffffffffffffffffffffffff83818316178352505050506040518082805190602001908083835b6020831061066c5780518252602082019150602081019050602083039250610649565b6001836020036101000a0380198251168184511680821785525050505050509050019150506000604051808303816000865af19150503d80600081146106ce576040519150601f19603f3d011682016040523d82523d6000602084013e6106d3565b606091505b50915091508180156107135750600081511480610712575080806020019051602081101561070057600080fd5b81019080805190602001909291905050505b5b610768576040517f08c379a00000000000000000000000000000000000000000000000000000000081526004018080602001828103825260248152602001806109776024913960400191505060405180910390fd5b505050505050565b600060608473ffffffffffffffffffffffffffffffffffffffff1663095ea7b38585604051602401808373ffffffffffffffffffffffffffffffffffffffff168152602001828152602001925050506040516020818303038152906040529060e01b6020820180517bffffffffffffffffffffffffffffffffffffffffffffffffffffffff83818316178352505050506040518082805190602001908083835b602083106108335780518252602082019150602081019050602083039250610810565b6001836020036101000a0380198251168184511680821785525050505050509050019150506000604051808303816000865af19150503d8060008114610895576040519150601f19603f3d011682016040523d82523d6000602084013e61089a565b606091505b50915091508180156108da57506000815114806108d957508080602001905160208110156108c757600080fd5b81019080805190602001909291905050505b5b61094c576040517f08c379a000000000000000000000000000000000000000000000000000000000815260040180806020018281038252601e8152602001807f5472616e7366657248656c7065723a20415050524f56455f4641494c4544000081525060200191505060405180910390fd5b505050505056fe5472616e7366657248656c7065723a20424e425f5452414e534645525f4641494c45445472616e7366657248656c7065723a205452414e534645525f46524f4d5f4641494c4544a264697066735822122078c79bad861dbedbbcd432f728430ba107b3749339c2d964120d85ed807c914364736f6c634300060c0033",
  "immutableReferences": {},
  "source": "// SPDX-License-Identifier: GPL-3.0-or-later\n\npragma solidity >=0.6.0;\n\nimport '../utils/TransferHelper.sol';\n\n// test helper for transfers\ncontract TransferHelperTest {\n    function safeApprove(\n        address token,\n        address to,\n        uint256 value\n    ) external {\n        TransferHelper.safeApprove(token, to, value);\n    }\n\n    function safeTransfer(\n        address token,\n        address to,\n        uint256 value\n    ) external {\n        TransferHelper.safeTransfer(token, to, value);\n    }\n\n    function safeTransferFrom(\n        address token,\n        address from,\n        address to,\n        uint256 value\n    ) external {\n        TransferHelper.safeTransferFrom(token, from, to, value);\n    }\n\n    function safeTransferBNB(address to, uint256 value) external {\n        TransferHelper.safeTransferBNB(to, value);\n    }\n}\n\n// can revert on failure and returns true if successful\ncontract TransferHelperTestFakeBEP20Compliant {\n    bool public success;\n    bool public shouldRevert;\n\n    function setup(bool success_, bool shouldRevert_) public {\n        success = success_;\n        shouldRevert = shouldRevert_;\n    }\n\n    function transfer(address, uint256) public view returns (bool) {\n        require(!shouldRevert, 'REVERT');\n        return success;\n    }\n\n    function transferFrom(\n        address,\n        address,\n        uint256\n    ) public view returns (bool) {\n        require(!shouldRevert, 'REVERT');\n        return success;\n    }\n\n    function approve(address, uint256) public view returns (bool) {\n        require(!shouldRevert, 'REVERT');\n        return success;\n    }\n}\n\n// only reverts on failure, no return value\ncontract TransferHelperTestFakeBEP20Noncompliant {\n    bool public shouldRevert;\n\n    function setup(bool shouldRevert_) public {\n        shouldRevert = shouldRevert_;\n    }\n\n    function transfer(address, uint256) public view {\n        require(!shouldRevert);\n    }\n\n    function transferFrom(\n        address,\n        address,\n        uint256\n    ) public view {\n        require(!shouldRevert);\n    }\n\n    function approve(address, uint256) public view {\n        require(!shouldRevert);\n    }\n}\n\ncontract TransferHelperTestFakeFallback {\n    bool public shouldRevert;\n\n    function setup(bool shouldRevert_) public {\n        shouldRevert = shouldRevert_;\n    }\n\n    receive() external payable {\n        require(!shouldRevert);\n    }\n}\n",
  "sourcePath": "/Users/binzy/Projects/rune-farm/contracts/lib/test/TransferHelperTest.sol",
  "compiler": {
    "name": "solc",
    "version": "0.6.12+commit.27d51765.Emscripten.clang"
  },
  "schemaVersion": "3.3.4",
  "updatedAt": "2021-03-11T08:22:33.213Z",
  "devdoc": {
    "kind": "dev",
    "methods": {},
    "version": 1
  },
  "userdoc": {
    "kind": "user",
    "methods": {},
    "version": 1
  }
}