{
  "contractName": "AddressStringUtilTest",
  "abi": [
    {
      "inputs": [
        {
          "internalType": "address",
          "name": "addr",
          "type": "address"
        },
        {
          "internalType": "uint256",
          "name": "len",
          "type": "uint256"
        }
      ],
      "name": "toAsciiString",
      "outputs": [
        {
          "internalType": "string",
          "name": "",
          "type": "string"
        }
      ],
      "stateMutability": "pure",
      "type": "function"
    }
  ],
  "bytecode": "0x608060405234801561001057600080fd5b5061035b806100206000396000f3fe608060405234801561001057600080fd5b506004361061002b5760003560e01c80635768786e14610030575b600080fd5b61007c6004803603604081101561004657600080fd5b81019080803573ffffffffffffffffffffffffffffffffffffffff169060200190929190803590602001909291905050506100f7565b6040518080602001828103825283818151815260200191508051906020019080838360005b838110156100bc5780820151818401526020810190506100a1565b50505050905090810190601f1680156100e95780820380516001836020036101000a031916815260200191505b509250505060405180910390f35b6060610103838361010b565b905092915050565b606060006002838161011957fe5b061480156101275750600082115b8015610134575060288211155b6101a6576040517f08c379a000000000000000000000000000000000000000000000000000000000815260040180806020018281038252601e8152602001807f41646472657373537472696e675574696c3a20494e56414c49445f4c454e000081525060200191505060405180910390fd5b60608267ffffffffffffffff811180156101bf57600080fd5b506040519080825280601f01601f1916602001820160405280156101f25781602001600182028036833780820191505090505b50905060008473ffffffffffffffffffffffffffffffffffffffff16905060005b6002858161021d57fe5b048110156102ee5760008160130360080283901c9050600060048260ff16901c9050600060048260ff16901b83039050610256826102fa565b86856002028151811061026557fe5b60200101907effffffffffffffffffffffffffffffffffffffffffffffffffffffffffffff1916908160001a90535061029d816102fa565b8660018660020201815181106102af57fe5b60200101907effffffffffffffffffffffffffffffffffffffffffffffffffffffffffffff1916908160001a9053505050508080600101915050610213565b50819250505092915050565b6000600a8260ff161015610316576030820160f81b9050610320565b6037820160f81b90505b91905056fea26469706673582212202dd68a679b874fe8075a0752507334dce607b383f0aad184b7b934b5f29b182264736f6c634300060c0033",
  "immutableReferences": {},
  "source": "// SPDX-License-Identifier: GPL-3.0-or-later\n\npragma solidity >=0.5.0;\n\nimport '../utils/AddressStringUtil.sol';\n\ncontract AddressStringUtilTest {\n    function toAsciiString(address addr, uint256 len) external pure returns (string memory) {\n        return AddressStringUtil.toAsciiString(addr, len);\n    }\n}\n",
  "sourcePath": "/Users/binzy/Projects/rune-farm/contracts/lib/test/AddressStringUtilTest.sol",
  "compiler": {
    "name": "solc",
    "version": "0.6.12+commit.27d51765.Emscripten.clang"
  },
  "schemaVersion": "3.3.4",
  "updatedAt": "2021-03-11T08:22:33.207Z",
  "devdoc": {
    "kind": "dev",
    "methods": {},
    "version": 1
  },
  "userdoc": {
    "kind": "user",
    "methods": {},
    "version": 1
  }
}