{
  "_format": "hh-sol-artifact-1",
  "contractName": "ArcaneRaidV1",
  "sourceName": "src/ArcaneRaidV1.sol",
  "abi": [
    {
      "inputs": [
        {
          "internalType": "address",
          "name": "_rune",
          "type": "address"
        },
        {
          "internalType": "address",
          "name": "_devAddress",
          "type": "address"
        },
        {
          "internalType": "address",
          "name": "_vaultAddress",
          "type": "address"
        },
        {
          "internalType": "address",
          "name": "_charityAddress",
          "type": "address"
        },
        {
          "internalType": "address",
          "name": "_voidAddress",
          "type": "address"
        },
        {
          "internalType": "uint256",
          "name": "_runeEmission",
          "type": "uint256"
        },
        {
          "internalType": "uint256",
          "name": "runeSstartBlock",
          "type": "uint256"
        }
      ],
      "stateMutability": "nonpayable",
      "type": "constructor"
    },
    {
      "anonymous": false,
      "inputs": [
        {
          "indexed": true,
          "internalType": "address",
          "name": "user",
          "type": "address"
        },
        {
          "indexed": true,
          "internalType": "uint256",
          "name": "pid",
          "type": "uint256"
        },
        {
          "indexed": false,
          "internalType": "uint256",
          "name": "amount",
          "type": "uint256"
        }
      ],
      "name": "Deposit",
      "type": "event"
    },
    {
      "anonymous": false,
      "inputs": [
        {
          "indexed": true,
          "internalType": "address",
          "name": "user",
          "type": "address"
        },
        {
          "indexed": true,
          "internalType": "uint256",
          "name": "pid",
          "type": "uint256"
        },
        {
          "indexed": false,
          "internalType": "uint256",
          "name": "amount",
          "type": "uint256"
        }
      ],
      "name": "EmergencyWithdraw",
      "type": "event"
    },
    {
      "anonymous": false,
      "inputs": [
        {
          "indexed": true,
          "internalType": "bytes32",
          "name": "role",
          "type": "bytes32"
        },
        {
          "indexed": true,
          "internalType": "bytes32",
          "name": "previousAdminRole",
          "type": "bytes32"
        },
        {
          "indexed": true,
          "internalType": "bytes32",
          "name": "newAdminRole",
          "type": "bytes32"
        }
      ],
      "name": "RoleAdminChanged",
      "type": "event"
    },
    {
      "anonymous": false,
      "inputs": [
        {
          "indexed": true,
          "internalType": "bytes32",
          "name": "role",
          "type": "bytes32"
        },
        {
          "indexed": true,
          "internalType": "address",
          "name": "account",
          "type": "address"
        },
        {
          "indexed": true,
          "internalType": "address",
          "name": "sender",
          "type": "address"
        }
      ],
      "name": "RoleGranted",
      "type": "event"
    },
    {
      "anonymous": false,
      "inputs": [
        {
          "indexed": true,
          "internalType": "bytes32",
          "name": "role",
          "type": "bytes32"
        },
        {
          "indexed": true,
          "internalType": "address",
          "name": "account",
          "type": "address"
        },
        {
          "indexed": true,
          "internalType": "address",
          "name": "sender",
          "type": "address"
        }
      ],
      "name": "RoleRevoked",
      "type": "event"
    },
    {
      "anonymous": false,
      "inputs": [
        {
          "indexed": true,
          "internalType": "address",
          "name": "user",
          "type": "address"
        },
        {
          "indexed": true,
          "internalType": "uint256",
          "name": "pid",
          "type": "uint256"
        },
        {
          "indexed": false,
          "internalType": "uint256",
          "name": "amount",
          "type": "uint256"
        }
      ],
      "name": "Withdraw",
      "type": "event"
    },
    {
      "inputs": [],
      "name": "DEFAULT_ADMIN_ROLE",
      "outputs": [
        {
          "internalType": "bytes32",
          "name": "",
          "type": "bytes32"
        }
      ],
      "stateMutability": "view",
      "type": "function"
    },
    {
      "inputs": [],
      "name": "MESSENGER_ROLE",
      "outputs": [
        {
          "internalType": "bytes32",
          "name": "",
          "type": "bytes32"
        }
      ],
      "stateMutability": "view",
      "type": "function"
    },
    {
      "inputs": [
        {
          "internalType": "uint256",
          "name": "_allocPoint",
          "type": "uint256"
        },
        {
          "internalType": "contract IBEP20",
          "name": "_lpToken",
          "type": "address"
        },
        {
          "internalType": "uint16",
          "name": "_depositFeeBP",
          "type": "uint16"
        },
        {
          "internalType": "bool",
          "name": "_withUpdate",
          "type": "bool"
        }
      ],
      "name": "add",
      "outputs": [],
      "stateMutability": "nonpayable",
      "type": "function"
    },
    {
      "inputs": [],
      "name": "charityAddress",
      "outputs": [
        {
          "internalType": "address",
          "name": "",
          "type": "address"
        }
      ],
      "stateMutability": "view",
      "type": "function"
    },
    {
      "inputs": [],
      "name": "charityDepositPercent",
      "outputs": [
        {
          "internalType": "uint256",
          "name": "",
          "type": "uint256"
        }
      ],
      "stateMutability": "view",
      "type": "function"
    },
    {
      "inputs": [],
      "name": "charityMintPercent",
      "outputs": [
        {
          "internalType": "uint256",
          "name": "",
          "type": "uint256"
        }
      ],
      "stateMutability": "view",
      "type": "function"
    },
    {
      "inputs": [],
      "name": "currentRune",
      "outputs": [
        {
          "internalType": "address",
          "name": "",
          "type": "address"
        }
      ],
      "stateMutability": "view",
      "type": "function"
    },
    {
      "inputs": [
        {
          "internalType": "uint256",
          "name": "_pid",
          "type": "uint256"
        },
        {
          "internalType": "uint256",
          "name": "_amount",
          "type": "uint256"
        }
      ],
      "name": "deposit",
      "outputs": [],
      "stateMutability": "nonpayable",
      "type": "function"
    },
    {
      "inputs": [
        {
          "internalType": "address",
          "name": "_rune",
          "type": "address"
        },
        {
          "internalType": "uint256",
          "name": "_pid",
          "type": "uint256"
        },
        {
          "internalType": "uint256",
          "name": "_amount",
          "type": "uint256"
        }
      ],
      "name": "depositSpecific",
      "outputs": [],
      "stateMutability": "nonpayable",
      "type": "function"
    },
    {
      "inputs": [],
      "name": "devAddress",
      "outputs": [
        {
          "internalType": "address",
          "name": "",
          "type": "address"
        }
      ],
      "stateMutability": "view",
      "type": "function"
    },
    {
      "inputs": [],
      "name": "devDepositPercent",
      "outputs": [
        {
          "internalType": "uint256",
          "name": "",
          "type": "uint256"
        }
      ],
      "stateMutability": "view",
      "type": "function"
    },
    {
      "inputs": [],
      "name": "devMintPercent",
      "outputs": [
        {
          "internalType": "uint256",
          "name": "",
          "type": "uint256"
        }
      ],
      "stateMutability": "view",
      "type": "function"
    },
    {
      "inputs": [
        {
          "internalType": "uint256",
          "name": "_pid",
          "type": "uint256"
        }
      ],
      "name": "emergencyWithdraw",
      "outputs": [],
      "stateMutability": "nonpayable",
      "type": "function"
    },
    {
      "inputs": [
        {
          "internalType": "uint256",
          "name": "_pid",
          "type": "uint256"
        },
        {
          "internalType": "address",
          "name": "_rune",
          "type": "address"
        }
      ],
      "name": "getPoolAccRunePerShare",
      "outputs": [
        {
          "internalType": "uint256",
          "name": "",
          "type": "uint256"
        }
      ],
      "stateMutability": "view",
      "type": "function"
    },
    {
      "inputs": [
        {
          "internalType": "bytes32",
          "name": "role",
          "type": "bytes32"
        }
      ],
      "name": "getRoleAdmin",
      "outputs": [
        {
          "internalType": "bytes32",
          "name": "",
          "type": "bytes32"
        }
      ],
      "stateMutability": "view",
      "type": "function"
    },
    {
      "inputs": [
        {
          "internalType": "bytes32",
          "name": "role",
          "type": "bytes32"
        },
        {
          "internalType": "uint256",
          "name": "index",
          "type": "uint256"
        }
      ],
      "name": "getRoleMember",
      "outputs": [
        {
          "internalType": "address",
          "name": "",
          "type": "address"
        }
      ],
      "stateMutability": "view",
      "type": "function"
    },
    {
      "inputs": [
        {
          "internalType": "bytes32",
          "name": "role",
          "type": "bytes32"
        }
      ],
      "name": "getRoleMemberCount",
      "outputs": [
        {
          "internalType": "uint256",
          "name": "",
          "type": "uint256"
        }
      ],
      "stateMutability": "view",
      "type": "function"
    },
    {
      "inputs": [
        {
          "internalType": "uint256",
          "name": "_pid",
          "type": "uint256"
        }
      ],
      "name": "getUserAmount",
      "outputs": [
        {
          "internalType": "uint256",
          "name": "",
          "type": "uint256"
        }
      ],
      "stateMutability": "view",
      "type": "function"
    },
    {
      "inputs": [
        {
          "internalType": "bytes32",
          "name": "role",
          "type": "bytes32"
        },
        {
          "internalType": "address",
          "name": "account",
          "type": "address"
        }
      ],
      "name": "grantRole",
      "outputs": [],
      "stateMutability": "nonpayable",
      "type": "function"
    },
    {
      "inputs": [],
      "name": "harvestAll",
      "outputs": [],
      "stateMutability": "nonpayable",
      "type": "function"
    },
    {
      "inputs": [],
      "name": "harvestAllEnabled",
      "outputs": [
        {
          "internalType": "bool",
          "name": "",
          "type": "bool"
        }
      ],
      "stateMutability": "view",
      "type": "function"
    },
    {
      "inputs": [
        {
          "components": [
            {
              "internalType": "address",
              "name": "rune",
              "type": "address"
            },
            {
              "internalType": "uint256[]",
              "name": "pools",
              "type": "uint256[]"
            }
          ],
          "internalType": "struct ArcaneRaidLibraryV1.HarvestMap[]",
          "name": "_map",
          "type": "tuple[]"
        }
      ],
      "name": "harvestMap",
      "outputs": [],
      "stateMutability": "nonpayable",
      "type": "function"
    },
    {
      "inputs": [],
      "name": "harvestMapEnabled",
      "outputs": [
        {
          "internalType": "bool",
          "name": "",
          "type": "bool"
        }
      ],
      "stateMutability": "view",
      "type": "function"
    },
    {
      "inputs": [
        {
          "internalType": "uint256",
          "name": "_pid",
          "type": "uint256"
        },
        {
          "internalType": "address",
          "name": "_rune",
          "type": "address"
        },
        {
          "internalType": "uint256",
          "name": "_actionId",
          "type": "uint256"
        }
      ],
      "name": "harvestSpecific",
      "outputs": [],
      "stateMutability": "nonpayable",
      "type": "function"
    },
    {
      "inputs": [
        {
          "internalType": "uint256",
          "name": "_pid",
          "type": "uint256"
        },
        {
          "internalType": "uint256",
          "name": "_actionId",
          "type": "uint256"
        }
      ],
      "name": "harvestSpecificPool",
      "outputs": [],
      "stateMutability": "nonpayable",
      "type": "function"
    },
    {
      "inputs": [],
      "name": "harvestUserAll",
      "outputs": [],
      "stateMutability": "nonpayable",
      "type": "function"
    },
    {
      "inputs": [
        {
          "components": [
            {
              "internalType": "address",
              "name": "rune",
              "type": "address"
            },
            {
              "internalType": "uint256[]",
              "name": "pools",
              "type": "uint256[]"
            }
          ],
          "internalType": "struct ArcaneRaidLibraryV1.HarvestMap[]",
          "name": "_map",
          "type": "tuple[]"
        }
      ],
      "name": "harvestUserMap",
      "outputs": [],
      "stateMutability": "nonpayable",
      "type": "function"
    },
    {
      "inputs": [
        {
          "internalType": "bytes32",
          "name": "role",
          "type": "bytes32"
        },
        {
          "internalType": "address",
          "name": "account",
          "type": "address"
        }
      ],
      "name": "hasRole",
      "outputs": [
        {
          "internalType": "bool",
          "name": "",
          "type": "bool"
        }
      ],
      "stateMutability": "view",
      "type": "function"
    },
    {
      "inputs": [],
      "name": "massUpdatePools",
      "outputs": [],
      "stateMutability": "nonpayable",
      "type": "function"
    },
    {
      "inputs": [],
      "name": "messenger",
      "outputs": [
        {
          "internalType": "contract IArcaneMessengerV1",
          "name": "",
          "type": "address"
        }
      ],
      "stateMutability": "view",
      "type": "function"
    },
    {
      "inputs": [
        {
          "internalType": "uint256",
          "name": "_pid",
          "type": "uint256"
        },
        {
          "internalType": "address",
          "name": "_user",
          "type": "address"
        }
      ],
      "name": "pendingRune",
      "outputs": [
        {
          "internalType": "uint256",
          "name": "",
          "type": "uint256"
        }
      ],
      "stateMutability": "view",
      "type": "function"
    },
    {
      "inputs": [
        {
          "internalType": "address",
          "name": "_rune",
          "type": "address"
        },
        {
          "internalType": "uint256",
          "name": "_pid",
          "type": "uint256"
        },
        {
          "internalType": "address",
          "name": "_user",
          "type": "address"
        }
      ],
      "name": "pendingRune",
      "outputs": [
        {
          "internalType": "uint256",
          "name": "",
          "type": "uint256"
        }
      ],
      "stateMutability": "view",
      "type": "function"
    },
    {
      "inputs": [
        {
          "internalType": "address",
          "name": "",
          "type": "address"
        }
      ],
      "name": "poolExists",
      "outputs": [
        {
          "internalType": "bool",
          "name": "",
          "type": "bool"
        }
      ],
      "stateMutability": "view",
      "type": "function"
    },
    {
      "inputs": [
        {
          "internalType": "uint256",
          "name": "",
          "type": "uint256"
        }
      ],
      "name": "poolInfo",
      "outputs": [
        {
          "internalType": "contract IBEP20",
          "name": "lpToken",
          "type": "address"
        },
        {
          "internalType": "uint256",
          "name": "allocPoint",
          "type": "uint256"
        },
        {
          "internalType": "uint16",
          "name": "depositFeeBP",
          "type": "uint16"
        }
      ],
      "stateMutability": "view",
      "type": "function"
    },
    {
      "inputs": [
        {
          "internalType": "uint256",
          "name": "",
          "type": "uint256"
        }
      ],
      "name": "previousRunes",
      "outputs": [
        {
          "internalType": "address",
          "name": "",
          "type": "address"
        }
      ],
      "stateMutability": "view",
      "type": "function"
    },
    {
      "inputs": [
        {
          "internalType": "bytes32",
          "name": "role",
          "type": "bytes32"
        },
        {
          "internalType": "address",
          "name": "account",
          "type": "address"
        }
      ],
      "name": "renounceRole",
      "outputs": [],
      "stateMutability": "nonpayable",
      "type": "function"
    },
    {
      "inputs": [
        {
          "internalType": "bytes32",
          "name": "role",
          "type": "bytes32"
        },
        {
          "internalType": "address",
          "name": "account",
          "type": "address"
        }
      ],
      "name": "revokeRole",
      "outputs": [],
      "stateMutability": "nonpayable",
      "type": "function"
    },
    {
      "inputs": [
        {
          "internalType": "address",
          "name": "",
          "type": "address"
        }
      ],
      "name": "runeEmission",
      "outputs": [
        {
          "internalType": "uint256",
          "name": "",
          "type": "uint256"
        }
      ],
      "stateMutability": "view",
      "type": "function"
    },
    {
      "inputs": [],
      "name": "runePerBlock",
      "outputs": [
        {
          "internalType": "uint256",
          "name": "",
          "type": "uint256"
        }
      ],
      "stateMutability": "view",
      "type": "function"
    },
    {
      "inputs": [
        {
          "internalType": "address",
          "name": "",
          "type": "address"
        }
      ],
      "name": "runeStartBlock",
      "outputs": [
        {
          "internalType": "uint256",
          "name": "",
          "type": "uint256"
        }
      ],
      "stateMutability": "view",
      "type": "function"
    },
    {
      "inputs": [
        {
          "internalType": "address",
          "name": "_tokenAddress",
          "type": "address"
        },
        {
          "internalType": "address",
          "name": "_from",
          "type": "address"
        },
        {
          "internalType": "address",
          "name": "_to",
          "type": "address"
        },
        {
          "internalType": "uint256",
          "name": "_amount",
          "type": "uint256"
        }
      ],
      "name": "safeBepTransfer",
      "outputs": [],
      "stateMutability": "nonpayable",
      "type": "function"
    },
    {
      "inputs": [
        {
          "internalType": "address",
          "name": "_address",
          "type": "address"
        },
        {
          "internalType": "uint256",
          "name": "_amount",
          "type": "uint256"
        }
      ],
      "name": "safeRuneTransfer",
      "outputs": [],
      "stateMutability": "nonpayable",
      "type": "function"
    },
    {
      "inputs": [
        {
          "internalType": "uint256",
          "name": "_pid",
          "type": "uint256"
        },
        {
          "internalType": "uint256",
          "name": "_allocPoint",
          "type": "uint256"
        },
        {
          "internalType": "uint16",
          "name": "_depositFeeBP",
          "type": "uint16"
        },
        {
          "internalType": "bool",
          "name": "_withUpdate",
          "type": "bool"
        }
      ],
      "name": "set",
      "outputs": [],
      "stateMutability": "nonpayable",
      "type": "function"
    },
    {
      "inputs": [
        {
          "internalType": "bool",
          "name": "_harvestAllEnabled",
          "type": "bool"
        },
        {
          "internalType": "bool",
          "name": "_harvestMapEnabled",
          "type": "bool"
        }
      ],
      "name": "setHarvestFunctions",
      "outputs": [],
      "stateMutability": "nonpayable",
      "type": "function"
    },
    {
      "inputs": [
        {
          "internalType": "address",
          "name": "_vaultAddress",
          "type": "address"
        },
        {
          "internalType": "address",
          "name": "_charityAddress",
          "type": "address"
        },
        {
          "internalType": "address",
          "name": "_devAddress",
          "type": "address"
        },
        {
          "internalType": "uint256",
          "name": "_vaultMintPercent",
          "type": "uint256"
        },
        {
          "internalType": "uint256",
          "name": "_charityMintPercent",
          "type": "uint256"
        },
        {
          "internalType": "uint256",
          "name": "_devMintPercent",
          "type": "uint256"
        },
        {
          "internalType": "uint256",
          "name": "_vaultDepositPercent",
          "type": "uint256"
        },
        {
          "internalType": "uint256",
          "name": "_charityDepositPercent",
          "type": "uint256"
        },
        {
          "internalType": "uint256",
          "name": "_devDepositPercent",
          "type": "uint256"
        }
      ],
      "name": "setInfo",
      "outputs": [],
      "stateMutability": "nonpayable",
      "type": "function"
    },
    {
      "inputs": [
        {
          "internalType": "contract IArcaneMessengerV1",
          "name": "_messenger",
          "type": "address"
        }
      ],
      "name": "setMessenger",
      "outputs": [],
      "stateMutability": "nonpayable",
      "type": "function"
    },
    {
      "inputs": [
        {
          "internalType": "uint256",
          "name": "_pid",
          "type": "uint256"
        },
        {
          "internalType": "uint256",
          "name": "_amount",
          "type": "uint256"
        }
      ],
      "name": "setUserAmount",
      "outputs": [],
      "stateMutability": "nonpayable",
      "type": "function"
    },
    {
      "inputs": [
        {
          "internalType": "uint256",
          "name": "_pid",
          "type": "uint256"
        },
        {
          "internalType": "address",
          "name": "_rune",
          "type": "address"
        },
        {
          "internalType": "uint256",
          "name": "_rewardDebt",
          "type": "uint256"
        }
      ],
      "name": "setUserRewardDebt",
      "outputs": [],
      "stateMutability": "nonpayable",
      "type": "function"
    },
    {
      "inputs": [],
      "name": "startBlock",
      "outputs": [
        {
          "internalType": "uint256",
          "name": "",
          "type": "uint256"
        }
      ],
      "stateMutability": "view",
      "type": "function"
    },
    {
      "inputs": [
        {
          "internalType": "address",
          "name": "_rune",
          "type": "address"
        },
        {
          "internalType": "uint256",
          "name": "runeSstartBlock",
          "type": "uint256"
        }
      ],
      "name": "switchCurrentRune",
      "outputs": [],
      "stateMutability": "nonpayable",
      "type": "function"
    },
    {
      "inputs": [
        {
          "internalType": "address",
          "name": "_rune",
          "type": "address"
        }
      ],
      "name": "throwRuneInVoid",
      "outputs": [],
      "stateMutability": "nonpayable",
      "type": "function"
    },
    {
      "inputs": [],
      "name": "totalAllocPoint",
      "outputs": [
        {
          "internalType": "uint256",
          "name": "",
          "type": "uint256"
        }
      ],
      "stateMutability": "view",
      "type": "function"
    },
    {
      "inputs": [
        {
          "internalType": "uint256",
          "name": "_pid",
          "type": "uint256"
        },
        {
          "internalType": "uint256",
          "name": "_rewardDebt",
          "type": "uint256"
        }
      ],
      "name": "updateAllUserRewardDebt",
      "outputs": [],
      "stateMutability": "nonpayable",
      "type": "function"
    },
    {
      "inputs": [
        {
          "internalType": "uint256",
          "name": "_pid",
          "type": "uint256"
        }
      ],
      "name": "updateAllUserRewardDebt",
      "outputs": [],
      "stateMutability": "nonpayable",
      "type": "function"
    },
    {
      "inputs": [
        {
          "internalType": "uint256",
          "name": "_runeEmission",
          "type": "uint256"
        }
      ],
      "name": "updateEmissionRate",
      "outputs": [],
      "stateMutability": "nonpayable",
      "type": "function"
    },
    {
      "inputs": [
        {
          "internalType": "address",
          "name": "_rune",
          "type": "address"
        },
        {
          "internalType": "uint256",
          "name": "_runeEmission",
          "type": "uint256"
        }
      ],
      "name": "updateEmissionRate",
      "outputs": [],
      "stateMutability": "nonpayable",
      "type": "function"
    },
    {
      "inputs": [
        {
          "internalType": "uint256",
          "name": "_pid",
          "type": "uint256"
        },
        {
          "internalType": "address",
          "name": "_rune",
          "type": "address"
        }
      ],
      "name": "updatePool",
      "outputs": [],
      "stateMutability": "nonpayable",
      "type": "function"
    },
    {
      "inputs": [
        {
          "internalType": "uint256",
          "name": "_pid",
          "type": "uint256"
        },
        {
          "internalType": "address",
          "name": "_rune",
          "type": "address"
        }
      ],
      "name": "updateUserRewardDebt",
      "outputs": [],
      "stateMutability": "nonpayable",
      "type": "function"
    },
    {
      "inputs": [
        {
          "internalType": "uint256",
          "name": "_pid",
          "type": "uint256"
        },
        {
          "internalType": "uint256",
          "name": "_rewardDebt",
          "type": "uint256"
        }
      ],
      "name": "updateUserRewardDebt",
      "outputs": [],
      "stateMutability": "nonpayable",
      "type": "function"
    },
    {
      "inputs": [
        {
          "internalType": "uint256",
          "name": "",
          "type": "uint256"
        },
        {
          "internalType": "address",
          "name": "",
          "type": "address"
        }
      ],
      "name": "userInfo",
      "outputs": [
        {
          "internalType": "uint256",
          "name": "amount",
          "type": "uint256"
        }
      ],
      "stateMutability": "view",
      "type": "function"
    },
    {
      "inputs": [],
      "name": "vaultAddress",
      "outputs": [
        {
          "internalType": "address",
          "name": "",
          "type": "address"
        }
      ],
      "stateMutability": "view",
      "type": "function"
    },
    {
      "inputs": [],
      "name": "vaultDepositPercent",
      "outputs": [
        {
          "internalType": "uint256",
          "name": "",
          "type": "uint256"
        }
      ],
      "stateMutability": "view",
      "type": "function"
    },
    {
      "inputs": [],
      "name": "vaultMintPercent",
      "outputs": [
        {
          "internalType": "uint256",
          "name": "",
          "type": "uint256"
        }
      ],
      "stateMutability": "view",
      "type": "function"
    },
    {
      "inputs": [],
      "name": "voidAddress",
      "outputs": [
        {
          "internalType": "address",
          "name": "",
          "type": "address"
        }
      ],
      "stateMutability": "view",
      "type": "function"
    },
    {
      "inputs": [
        {
          "internalType": "uint256",
          "name": "_pid",
          "type": "uint256"
        },
        {
          "internalType": "uint256",
          "name": "_amount",
          "type": "uint256"
        }
      ],
      "name": "withdraw",
      "outputs": [],
      "stateMutability": "nonpayable",
      "type": "function"
    },
    {
      "inputs": [
        {
          "internalType": "address",
          "name": "_rune",
          "type": "address"
        },
        {
          "internalType": "uint256",
          "name": "_pid",
          "type": "uint256"
        },
        {
          "internalType": "uint256",
          "name": "_amount",
          "type": "uint256"
        }
      ],
      "name": "withdrawSpecific",
      "outputs": [],
      "stateMutability": "nonpayable",
      "type": "function"
    }
  ],
  "bytecode": "0x6080604052600060038190556006805461ff001960ff19909116600117169055600a819055600b819055600c819055600d819055600e819055600f553480156200004857600080fd5b50604051620057c8380380620057c88339810160408190526200006b916200026e565b60018055600280546001600160a01b03199081166001600160a01b038a81169182179093556006805462010000600160b01b031916620100008b8616021790556008805483168985161790556007805483168885161790556009805490921692861692909217905560009081526005602090815260408083208590556004909152812082905562000106906200010062000142565b62000146565b620001357f9169014801faeffeb0ffa6d3da58be378861e512c765e75a348579eecb0318546200010062000142565b50505050505050620002f5565b3390565b62000152828262000156565b5050565b6000828152602081815260409091206200017b918390620023b4620001cf821b17901c565b1562000152576200018b62000142565b6001600160a01b0316816001600160a01b0316837f2f8788117e7eff1d82e926ec794901d17c78024a50270940304540a733656f0d60405160405180910390a45050565b6000620001e6836001600160a01b038416620001ef565b90505b92915050565b6000620001fd83836200023e565b6200023557508154600181810184556000848152602080822090930184905584548482528286019093526040902091909155620001e9565b506000620001e9565b60009081526001919091016020526040902054151590565b80516001600160a01b0381168114620001e957600080fd5b600080600080600080600060e0888a03121562000289578283fd5b62000295898962000256565b9650620002a68960208a0162000256565b9550620002b78960408a0162000256565b9450620002c88960608a0162000256565b9350620002d98960808a0162000256565b925060a0880151915060c0880151905092959891949750929550565b6154c380620003056000396000f3fe608060405234801561001057600080fd5b50600436106104065760003560e01c8063662859671161021a578063c091b5eb11610135578063d59f62a8116100c8578063dc8b6b5c11610097578063e3a247fd1161007c578063e3a247fd14610807578063f9f824741461081a578063faa8e7581461082d57610406565b8063dc8b6b5c146107e1578063e2bbb158146107f457610406565b8063d59f62a8146107a0578063d8c06d8e146107b3578063d8fce433146107bb578063d9638422146107ce57610406565b8063ca6b6f5511610104578063ca6b6f551461075f578063cadd92b314610772578063cc47e49614610785578063d547741f1461078d57610406565b8063c091b5eb14610713578063c22b26bc14610726578063c6daf34614610739578063ca15c8731461074c57610406565b80639010d07c116101ad578063a217fddf1161017c578063a217fddf146106f3578063adf12e03146106fb578063afcf2fc414610703578063b2b632301461070b57610406565b80639010d07c146106a757806391d14854146106ba57806393f1a40b146106cd5780639e9551a7146106e057610406565b806384e82a33116101e957806384e82a331461067157806388384066146106845780638ed955b91461068c5780638fec02aa1461069457610406565b806366285967146106255780636e09e6ed1461063857806373309b961461064b5780637b86785c1461065e57610406565b8063351588bc11610325578063430bf08a116102b85780634e18d6071161028757806353867a661161026c57806353867a66146106025780635b8f226d1461060a578063630b5ba11461061d57610406565b80634e18d607146105dc5780635312ea8e146105ef57610406565b8063430bf08a146105b157806343b20762146105b9578063441a3e70146105c157806348cd4cb1146105d457610406565b80633ad10ef6116102f45780633ad10ef6146105865780633b8663b41461058e5780633cb747bf146105a157806341e6a1eb146105a957610406565b8063351588bc1461055057806335716f871461055857806336568abe1461056b57806339367bc61461057e57610406565b80631e1c6a071161039d5780632bcbcc101161036c5780632bcbcc101461050f5780632f2ff15d146105225780632f651314146105355780632f7e632e1461053d57610406565b80631e1c6a07146104b6578063216369b4146104d6578063248a9ca3146104e9578063255d2390146104fc57610406565b80631526fe27116103d95780631526fe27146104645780631615a19914610486578063177a24001461049b57806317caf6f1146104ae57610406565b8063041d21051461040b578063099cb207146104205780630ba84cd2146104335780630bd0c42914610446575b600080fd5b61041e6104193660046149fc565b610840565b005b61041e61042e366004614860565b6108b6565b61041e610441366004614987565b61090a565b61044e610988565b60405161045b9190614b37565b60405180910390f35b610477610472366004614987565b61098e565b60405161045b93929190614b40565b61048e6109cc565b60405161045b9190614adb565b61041e6104a936600461482c565b6109db565b61044e610a3b565b6104c96104c43660046146d4565b610a41565b60405161045b9190614b2c565b61041e6104e436600461499f565b610a56565b61044e6104f7366004614987565b610af4565b61044e61050a36600461499f565b610b09565b61041e61051d3660046146f0565b610b4e565b61041e61053036600461499f565b610b96565b61044e610bde565b61041e61054b3660046149c3565b610be4565b61044e610cca565b61044e6105663660046146d4565b610cd0565b61041e61057936600461499f565b610ce2565b61044e610d24565b61048e610d2a565b61041e61059c3660046149c3565b610d3f565b61048e610d8d565b6104c9610d9c565b61048e610daa565b6104c9610db9565b61041e6105cf3660046149c3565b610dc2565b61044e610e2d565b61041e6105ea366004614987565b610e4b565b61041e6105fd366004614987565b611019565b61044e611248565b61041e61061836600461482c565b61124e565b61041e6112a4565b61041e6106333660046146d4565b61131b565b61044e6106463660046147eb565b61137d565b61041e61065936600461499f565b6113b7565b61044e61066c36600461499f565b611421565b61041e61067f366004614a33565b611498565b61041e6118b3565b61041e6118fe565b61041e6106a2366004614860565b61194b565b61048e6106b53660046149c3565b61199b565b6104c96106c836600461499f565b6119ba565b61044e6106db36600461499f565b6119d2565b61041e6106ee3660046146d4565b6119ef565b61044e611b09565b61044e611b0e565b61048e611b14565b61044e611b23565b61041e610721366004614740565b611b35565b61041e6107343660046149fc565b611cc2565b61041e6107473660046147c0565b611d19565b61044e61075a366004614987565b611ea6565b61041e61076d3660046147c0565b611ebd565b61048e610780366004614987565b611f57565b61048e611f7e565b61041e61079b36600461499f565b611f8d565b61044e6107ae366004614987565b611fc7565b61044e612028565b61041e6107c93660046149c3565b612046565b61041e6107dc366004614a8b565b6120b7565b61041e6107ef36600461494f565b612205565b61041e6108023660046149c3565b612268565b61041e6108153660046147c0565b6122ca565b61044e6108283660046146d4565b612344565b61041e61083b3660046149c3565b612356565b61085a60008051602061546e8339815191526106c86123c9565b61087f5760405162461bcd60e51b815260040161087690614e1d565b60405180910390fd5b6000928352601660209081526040808520601a546001600160a01b0390811687529083528186209416855260019093019052912055565b600260015414156108d95760405162461bcd60e51b8152600401610876906152b9565b6002600155600654610100900460ff166108f257610903565b610903816108fe6123c9565b6123cd565b5060018055565b6002600154141561092d5760405162461bcd60e51b8152600401610876906152b9565b60026001556006546201000090046001600160a01b031661094c6123c9565b6001600160a01b0316146109725760405162461bcd60e51b815260040161087690614e8b565b600254610903906001600160a01b031682612730565b600e5481565b6015818154811061099b57fe5b60009182526020909120600590910201805460018201546004909201546001600160a01b03909116925061ffff1683565b6009546001600160a01b031681565b600260015414156109fe5760405162461bcd60e51b8152600401610876906152b9565b600260015560155482908110610a265760405162461bcd60e51b815260040161087690614e54565b610a31848484612755565b5050600180555050565b60035481565b60176020526000908152604090205460ff1681565b610a7060008051602061546e8339815191526106c86123c9565b610a8c5760405162461bcd60e51b815260040161087690614e1d565b61087f64e8d4a51000610aee60158581548110610aa557fe5b600091825260208083206001600160a01b03888116855260059390930201600301815260408084205489855260168352818520601a549094168552929091529091205490612bb5565b90612bef565b60009081526020819052604090206002015490565b60155460009083908110610b2f5760405162461bcd60e51b815260040161087690614e54565b600254610b46906001600160a01b03168585612c21565b949350505050565b610b6860008051602061546e8339815191526106c86123c9565b610b845760405162461bcd60e51b815260040161087690614e1d565b610b9084848484612de5565b50505050565b600082815260208190526040902060020154610bb4906106c86123c9565b610bd05760405162461bcd60e51b815260040161087690614c2a565b610bda8282612f2d565b5050565b600d5481565b610bfe60008051602061546e8339815191526106c86123c9565b610c1a5760405162461bcd60e51b815260040161087690614e1d565b6000828152601660209081526040808320601a546001600160a01b03908116855290835281842060025490911684526001019091528120829055601854905b81811015610b90576000848152601660209081526040808320601a546001600160a01b031684529091528120601880548693600190930192919085908110610c9d57fe5b60009182526020808320909101546001600160a01b03168352820192909252604001902055600101610c59565b600a5481565b60046020526000908152604090205481565b610cea6123c9565b6001600160a01b0316816001600160a01b031614610d1a5760405162461bcd60e51b8152600401610876906152f0565b610bda8282612f96565b600c5481565b6006546201000090046001600160a01b031681565b610d5960008051602061546e8339815191526106c86123c9565b610d755760405162461bcd60e51b815260040161087690614e1d565b601a54610bda9083906001600160a01b031683612fff565b6019546001600160a01b031681565b600654610100900460ff1681565b6008546001600160a01b031681565b60065460ff1681565b60026001541415610de55760405162461bcd60e51b8152600401610876906152b9565b600260015560155482908110610e0d5760405162461bcd60e51b815260040161087690614e54565b600254610e24906001600160a01b03168484613296565b50506001805550565b6002546001600160a01b031660009081526004602052604090205490565b610e6560008051602061546e8339815191526106c86123c9565b610e815760405162461bcd60e51b815260040161087690614e1d565b610ee664e8d4a51000610aee60158481548110610e9a57fe5b600091825260208083206002546001600160a01b03908116855260059390930201600301815260408084205488855260168352818520601a549094168552929091529091205490612bb5565b6000828152601660209081526040808320601a546001600160a01b0390811685529083528184206002549091168452600101909152812091909155601854905b8181101561101457610fae64e8d4a51000610aee60158681548110610f4757fe5b9060005260206000209060050201600301600060188681548110610f6757fe5b60009182526020808320909101546001600160a01b0390811684528382019490945260409283018220548a835260168252838320601a549095168352939052205490612bb5565b6000848152601660209081526040808320601a546001600160a01b031684529091528120601880546001909201929185908110610fe757fe5b60009182526020808320909101546001600160a01b03168352820192909252604001902055600101610f26565b505050565b6002600154141561103c5760405162461bcd60e51b8152600401610876906152b9565b6002600155601554819081106110645760405162461bcd60e51b815260040161087690614e54565b6019546001600160a01b03166110786123c9565b6001600160a01b0316141561109f5760405162461bcd60e51b815260040161087690614c87565b6000601583815481106110ae57fe5b600091825260208083208684526016909152604083206005909202019250816110d56123c9565b6001600160a01b03166001600160a01b03168152602001908152602001600020905060006016600086815260200190815260200160002060006111166123c9565b6001600160a01b0390811682526020808301939093526040918201600090812060025490921681526001909101909252812091909155601854905b818110156111cf576000868152601660205260408120816111706123c9565b6001600160a01b03166001600160a01b031681526020019081526020016000206001016000601884815481106111a257fe5b60009182526020808320909101546001600160a01b03168352820192909252604001902055600101611151565b508154600083556111f36111e16123c9565b85546001600160a01b031690836135d1565b856111fc6123c9565b6001600160a01b03167fbb757047c2b5f3974fe26b7c10f732e7bce710b0952a71082702781e62ae0595836040516112349190614b37565b60405180910390a350506001805550505050565b600f5481565b600260015414156112715760405162461bcd60e51b8152600401610876906152b9565b6002600155601554829081106112995760405162461bcd60e51b815260040161087690614e54565b610a31848484613296565b6006546201000090046001600160a01b03166112be6123c9565b6001600160a01b031614806112e857506112e860008051602061546e8339815191526106c86123c9565b6113045760405162461bcd60e51b815260040161087690615021565b600254611319906001600160a01b0316613654565b565b6006546201000090046001600160a01b03166113356123c9565b6001600160a01b03161461135b5760405162461bcd60e51b815260040161087690614e8b565b601980546001600160a01b0319166001600160a01b0392909216919091179055565b601554600090839081106113a35760405162461bcd60e51b815260040161087690614e54565b6113ae858585612c21565b95945050505050565b6006546201000090046001600160a01b03166113d16123c9565b6001600160a01b031614806113fb57506113fb60008051602061546e8339815191526106c86123c9565b6114175760405162461bcd60e51b815260040161087690615021565b610bda8282613674565b600061143d60008051602061546e8339815191526106c86123c9565b6114595760405162461bcd60e51b815260040161087690614e1d565b6015838154811061146657fe5b600091825260208083206001600160a01b03861684526003600590930201919091019052604090205490505b92915050565b600260015414156114bb5760405162461bcd60e51b8152600401610876906152b9565b60026001556006546201000090046001600160a01b03166114da6123c9565b6001600160a01b0316146115005760405162461bcd60e51b815260040161087690614e8b565b6127108261ffff1611156115265760405162461bcd60e51b815260040161087690614b98565b6001600160a01b03831660009081526017602052604090205460ff161561155f5760405162461bcd60e51b815260040161087690615214565b6001600160a01b0383166000908152601760205260409020805460ff19166001179055801561159d5760025461159d906001600160a01b0316613654565b6003546115aa9085613aa3565b600355604080516060810182526001600160a01b038086168083526020830188905261ffff80871693909401839052601080546001600160a01b03199081169092179081905560118981556014805461ffff19908116909617815560158054600181018255600082815260059091027f55f448fdea98c4d29eb340757ef0a66cd03dbb9538908a6a81d96026b71ec47581018054909716959097169490941790945590547f55f448fdea98c4d29eb340757ef0a66cd03dbb9538908a6a81d96026b71ec476850155547f55f448fdea98c4d29eb340757ef0a66cd03dbb9538908a6a81d96026b71ec47990930180549094169290941691909117909155805460001981019081106116b757fe5b60009182526020808320600280546001600160a01b0390811686526005949094029091016003018252604080852095909555549091168252600490522054431161171b576002546001600160a01b0316600090815260046020526040902054611720565b600143035b60158054600019810190811061173257fe5b60009182526020808320600280546001600160a01b031685526005909302019190910190526040812091909155601854905b818110156118a7576015805460009190600019810190811061178257fe5b90600052602060002090600502016003016000601884815481106117a257fe5b60009182526020808320909101546001600160a01b03168352820192909252604001812091909155601880546004929190849081106117dd57fe5b60009182526020808320909101546001600160a01b03168352820192909252604001902054431161184357600460006018838154811061181957fe5b60009182526020808320909101546001600160a01b03168352820192909252604001902054611848565b600143035b60158054600019810190811061185a57fe5b906000526020600020906005020160020160006018848154811061187a57fe5b60009182526020808320909101546001600160a01b03168352820192909252604001902055600101611764565b50506001805550505050565b6118cd60008051602061546e8339815191526106c86123c9565b6118e95760405162461bcd60e51b815260040161087690614e1d565b601a54611319906001600160a01b0316613ac8565b600260015414156119215760405162461bcd60e51b8152600401610876906152b9565b600260015560065460ff1661193557611945565b6119456119406123c9565b613ac8565b60018055565b61196560008051602061546e8339815191526106c86123c9565b6119815760405162461bcd60e51b815260040161087690614e1d565b601a546119989082906001600160a01b03166123cd565b50565b60008281526020819052604081206119b39083613aea565b9392505050565b60008281526020819052604081206119b39083613af6565b601660209081526000928352604080842090915290825290205481565b60026001541415611a125760405162461bcd60e51b8152600401610876906152b9565b60026001556006546201000090046001600160a01b0316611a316123c9565b6001600160a01b031614611a575760405162461bcd60e51b815260040161087690614e8b565b6002546001600160a01b0382811691161415611a855760405162461bcd60e51b81526004016108769061524b565b6009546040517ff2fde38b0000000000000000000000000000000000000000000000000000000081526001600160a01b038381169263f2fde38b92611ad09290911690600401614adb565b600060405180830381600087803b158015611aea57600080fd5b505af1158015611afe573d6000803e3d6000fd5b505060018055505050565b600081565b600b5481565b6007546001600160a01b031681565b60008051602061546e83398151915281565b6006546201000090046001600160a01b0316611b4f6123c9565b6001600160a01b031614611b755760405162461bcd60e51b815260040161087690614e8b565b6001600160a01b03891615801590611b9557506001600160a01b03881615155b8015611ba957506001600160a01b03871615155b611bc55760405162461bcd60e51b815260040161087690614fea565b619a4c8611158015611bd8575060fa8511155b8015611be657506101c28411155b611c025760405162461bcd60e51b81526004016108769061508f565b61251c8311158015611c15575060fa8211155b8015611c2357506101c28111155b611c3f5760405162461bcd60e51b81526004016108769061508f565b600880546001600160a01b03199081166001600160a01b039b8c161790915560078054909116988a1698909817909755600680547fffffffffffffffffffff0000000000000000000000000000000000000000ffff1662010000979099169690960297909717909455600b92909255600c55600a55600e55600f91909155600d55565b611cdc60008051602061546e8339815191526106c86123c9565b611cf85760405162461bcd60e51b815260040161087690614e1d565b601a54611d1290849084906001600160a01b031684613b0b565b5050505050565b60026001541415611d3c5760405162461bcd60e51b8152600401610876906152b9565b60026001556006546201000090046001600160a01b0316611d5b6123c9565b6001600160a01b031614611d815760405162461bcd60e51b815260040161087690614e8b565b600254611d96906001600160a01b0316613654565b600280546001600160a01b03908116600090815260056020526040812081905591546018805460018101825593527fb13d2d76d1f4b7be834882e410b3e3a8afaf69f83600ae24db354391d2378d2e90920180546001600160a01b03191692909116919091179055438110611e0b5780611e10565b600143035b6001600160a01b038316600081815260046020526040812092909255600280546001600160a01b0319169091179055601554905b81811015611e9c57824311611e595782611e5e565b600143035b60158281548110611e6b57fe5b600091825260208083206001600160a01b038916845260026005909302019190910190526040902055600101611e44565b50610e2483613654565b600081815260208190526040812061149290613da1565b611ed760008051602061546e8339815191526106c86123c9565b611ef35760405162461bcd60e51b815260040161087690614e1d565b601a5461dead906001600160a01b0384811691161480611f245750806001600160a01b0316836001600160a01b0316145b611f405760405162461bcd60e51b815260040161087690615058565b601d54611014906001600160a01b03168484613dac565b60188181548110611f6457fe5b6000918252602090912001546001600160a01b0316905081565b6002546001600160a01b031681565b600082815260208190526040902060020154611fab906106c86123c9565b610d1a5760405162461bcd60e51b815260040161087690614f8d565b6000611fe360008051602061546e8339815191526106c86123c9565b611fff5760405162461bcd60e51b815260040161087690614e1d565b506000908152601660209081526040808320601a546001600160a01b0316845290915290205490565b6002546001600160a01b031660009081526005602052604090205490565b61206060008051602061546e8339815191526106c86123c9565b61207c5760405162461bcd60e51b815260040161087690614e1d565b6000918252601660209081526040808420601a546001600160a01b039081168652908352818520600254909116855260010190915290912055565b600260015414156120da5760405162461bcd60e51b8152600401610876906152b9565b60026001556006546201000090046001600160a01b03166120f96123c9565b6001600160a01b03161461211f5760405162461bcd60e51b815260040161087690614e8b565b6127108261ffff1611156121455760405162461bcd60e51b8152600401610876906151b7565b801561216057600254612160906001600160a01b0316613654565b61219d836121976015878154811061217457fe5b906000526020600020906005020160010154600354613f3d90919063ffffffff16565b90613aa3565b60038190555082601585815481106121b157fe5b90600052602060002090600502016001018190555081601585815481106121d457fe5b60009182526020909120600590910201600401805461ffff191661ffff929092169190911790555050600180555050565b6006546201000090046001600160a01b031661221f6123c9565b6001600160a01b0316146122455760405162461bcd60e51b815260040161087690614e8b565b6006805460ff19169215159290921761ff00191661010091151591909102179055565b6002600154141561228b5760405162461bcd60e51b8152600401610876906152b9565b6002600155601554829081106122b35760405162461bcd60e51b815260040161087690614e54565b600254610e24906001600160a01b03168484612755565b600260015414156122ed5760405162461bcd60e51b8152600401610876906152b9565b60026001556006546201000090046001600160a01b031661230c6123c9565b6001600160a01b0316146123325760405162461bcd60e51b815260040161087690614e8b565b61233c8282612730565b505060018055565b60056020526000908152604090205481565b61237060008051602061546e8339815191526106c86123c9565b61238c5760405162461bcd60e51b815260040161087690614e1d565b6000918252601660209081526040808420601a546001600160a01b0316855290915290912055565b60006119b3836001600160a01b038416613f65565b3390565b815160155460005b82811015611d125760008060008784815181106123ee57fe5b6020026020010151600001519050606088858151811061240a57fe5b602002602001015160200151905060008151905060005b818110156124ea57600083888151811061243757fe5b602002602001015190508881106124605760405162461bcd60e51b815260040161087690614e54565b6015818154811061246d57fe5b600091825260208083206001600160a01b0389168452600260059093020191909101905260409020546124b25760405162461bcd60e51b815260040161087690614f56565b6000806124c283888f6003613b0b565b925090506124d08882613aa3565b506124db8983613aa3565b50505050806001019050612421565b506002546001600160a01b038481169116141561270f57826001600160a01b03166340c10f19600660029054906101000a90046001600160a01b0316612541612710610aee600a548a612bb590919063ffffffff16565b6040518363ffffffff1660e01b815260040161255e929190614b13565b600060405180830381600087803b15801561257857600080fd5b505af115801561258c573d6000803e3d6000fd5b50505050826001600160a01b03166340c10f19600860009054906101000a90046001600160a01b03166125d0612710610aee600b548a612bb590919063ffffffff16565b6040518363ffffffff1660e01b81526004016125ed929190614b13565b600060405180830381600087803b15801561260757600080fd5b505af115801561261b573d6000803e3d6000fd5b50505050826001600160a01b03166340c10f19600760009054906101000a90046001600160a01b031661265f612710610aee600c548a612bb590919063ffffffff16565b6040518363ffffffff1660e01b815260040161267c929190614b13565b600060405180830381600087803b15801561269657600080fd5b505af11580156126aa573d6000803e3d6000fd5b50506040516340c10f1960e01b81526001600160a01b03861692506340c10f1991506126dc9030908890600401614b13565b600060405180830381600087803b1580156126f657600080fd5b505af115801561270a573d6000803e3d6000fd5b505050505b841561272057612720838a87613dac565b50505050508060010190506123d5565b61273982613654565b6001600160a01b03909116600090815260056020526040902055565b6019546001600160a01b03166127696123c9565b6001600160a01b031614156127905760405162461bcd60e51b815260040161087690614cbe565b60006015838154811061279f57fe5b600091825260208083208684526016909152604083206005909202019250816127c66123c9565b6001600160a01b03166001600160a01b0316815260200190815260200160002090506000826002016000876001600160a01b03166001600160a01b03168152602001908152602001600020541161282f5760405162461bcd60e51b815260040161087690614d89565b6128398186613faf565b61284e8460006128476123c9565b8887614073565b8261292b5761285d8486613674565b6001600160a01b03851660009081526001820160209081526040808320546003860190925282205483546128a792916128a19164e8d4a5100091610aee9190612bb5565b90613f3d565b905080156128c5576128c285826128bc6123c9565b89614112565b90505b6001600160a01b038616600090815260038401602052604090205482546128f69164e8d4a5100091610aee91612bb5565b6001600160a01b0387166000908152600184016020526040902055801561292957612929866129236123c9565b83613dac565b505b612934816141cd565b6002546001600160a01b0386811691161480156129515750600083115b15612b6557612969846129626123c9565b6001612fff565b6129876129746123c9565b83546001600160a01b03169030866141f0565b600482015461ffff1615612a675760048201546000906129b49061271090610aee90879061ffff16612bb5565b600854600e549192506129f2916001600160a01b03909116906129e09061271090610aee908690612bb5565b85546001600160a01b031691906135d1565b612a26600660029054906101000a90046001600160a01b03166129e0612710610aee600d5486612bb590919063ffffffff16565b600754600f54612a4d916001600160a01b0316906129e09061271090610aee908690612bb5565b8154612a5f9082906128a19087613aa3565b825550612a76565b8054612a739084613aa3565b81555b6002546001600160a01b031660009081526003830160205260409020548154612aa99164e8d4a5100091610aee91612bb5565b6002546001600160a01b03166000908152600183016020526040812091909155601854905b81811015612b6257612b2264e8d4a51000610aee86600301600060188681548110612af557fe5b60009182526020808320909101546001600160a01b03168352820192909252604001902054865490612bb5565b83600101600060188481548110612b3557fe5b60009182526020808320909101546001600160a01b03168352820192909252604001902055600101612ace565b50505b83612b6e6123c9565b6001600160a01b03167f90890809c654f11d6e72a28fa60149770a0d11ec6c92319d6ceb2bb0a4ea1a1585604051612ba69190614b37565b60405180910390a35050505050565b600082612bc457506000611492565b82820282848281612bd157fe5b04146119b35760405162461bcd60e51b81526004016108769061515a565b6000808211612c105760405162461bcd60e51b815260040161087690614f1f565b818381612c1957fe5b049392505050565b60008060158481548110612c3157fe5b600091825260208083208784526016825260408085206001600160a01b0389811687529084528186208b821687526005959095029092016003810190935280852054835491516370a0823160e01b81529396509394929116906370a0823190612c9e903090600401614adb565b60206040518083038186803b158015612cb657600080fd5b505afa158015612cca573d6000803e3d6000fd5b505050506040513d601f19601f82011682018060405250810190612cee91906149e4565b6001600160a01b038916600090815260028601602052604090205490915043118015612d1957508015155b15612da2576001600160a01b03881660009081526005602090815260408083205460028801909252822054909190612d52904390613f3d565b90506000612d7d600354610aee8960010154612d778787612bb590919063ffffffff16565b90612bb5565b9050612d9c612d9585610aee8464e8d4a51000612bb5565b8690613aa3565b94505050505b6001600160a01b03881660009081526001840160205260409020548354612dd991906128a19064e8d4a5100090610aee9087612bb5565b98975050505050505050565b6001600160a01b038316301415612e0e5760405162461bcd60e51b81526004016108769061534d565b6040516370a0823160e01b815284906000906001600160a01b038316906370a0823190612e3f908890600401614adb565b60206040518083038186803b158015612e5757600080fd5b505afa158015612e6b573d6000803e3d6000fd5b505050506040513d601f19601f82011682018060405250810190612e8f91906149e4565b6008549091506001600160a01b038681169116141580612ed257506008546001600160a01b038681169116148015612ed2575061271061c3508202048360640211155b612eee5760405162461bcd60e51b8152600401610876906150c6565b80831115612f1057612f0b6001600160a01b0383168686846141f0565b612f25565b612f256001600160a01b0383168686866141f0565b505050505050565b6000828152602081905260409020612f4590826123b4565b15610bda57612f526123c9565b6001600160a01b0316816001600160a01b0316837f2f8788117e7eff1d82e926ec794901d17c78024a50270940304540a733656f0d60405160405180910390a45050565b6000828152602081905260409020612fae9082614211565b15610bda57612fbb6123c9565b6001600160a01b0316816001600160a01b0316837ff6391f5c32d9c69d2a47ea670b442974b53935d1edc7fd64eb21e047a839171b60405160405180910390a45050565b600254600090819061301d9086906001600160a01b03168686613b0b565b600254600654600a549395509193506001600160a01b03908116926340c10f19926201000090049091169061305b9061271090610aee908890612bb5565b6040518363ffffffff1660e01b8152600401613078929190614b13565b600060405180830381600087803b15801561309257600080fd5b505af11580156130a6573d6000803e3d6000fd5b5050600254600854600b546001600160a01b0392831694506340c10f1993509116906130db9061271090610aee908890612bb5565b6040518363ffffffff1660e01b81526004016130f8929190614b13565b600060405180830381600087803b15801561311257600080fd5b505af1158015613126573d6000803e3d6000fd5b5050600254600754600c546001600160a01b0392831694506340c10f19935091169061315b9061271090610aee908890612bb5565b6040518363ffffffff1660e01b8152600401613178929190614b13565b600060405180830381600087803b15801561319257600080fd5b505af11580156131a6573d6000803e3d6000fd5b50506002546040516340c10f1960e01b81526001600160a01b0390911692506340c10f1991506131dc9030908690600401614b13565b600060405180830381600087803b1580156131f657600080fd5b505af115801561320a573d6000803e3d6000fd5b50505050600081111561322e5760025461322e906001600160a01b03168583613dac565b60185460005b8181101561328d5760006018828154811061324b57fe5b6000918252602090912001546001600160a01b0316905061326e88828989613b0b565b9095509350831561328457613284818886613dac565b50600101613234565b50505050505050565b6019546001600160a01b03166132aa6123c9565b6001600160a01b031614156132d15760405162461bcd60e51b815260040161087690614cbe565b6000601583815481106132e057fe5b600091825260208083208684526016909152604083206005909202019250816133076123c9565b6001600160a01b03166001600160a01b0316815260200190815260200160002090506000826002016000876001600160a01b03166001600160a01b0316815260200190815260200160002054116133705760405162461bcd60e51b815260040161087690614d89565b80548311156133915760405162461bcd60e51b815260040161087690615123565b61339b8186613faf565b6133b08460006133a96123c9565b8887614226565b82613481576133bf8486613674565b6001600160a01b038516600090815260018201602090815260408083205460038601909252822054835461340392916128a19164e8d4a5100091610aee9190612bb5565b905080156134215761341e85826134186123c9565b8961428c565b90505b6001600160a01b038616600090815260038401602052604090205482546134529164e8d4a5100091610aee91612bb5565b6001600160a01b0387166000908152600184016020526040902055801561347f5761347f866129236123c9565b505b61348a816141cd565b8215613590576134a38461349c6123c9565b6002612fff565b80546134af9084613f3d565b81556134ce6134bc6123c9565b83546001600160a01b031690856135d1565b6002546001600160a01b0316600090815260038301602052604090205481546135019164e8d4a5100091610aee91612bb5565b6002546001600160a01b03166000908152600183016020526040812091909155601854905b8181101561358d5761354d64e8d4a51000610aee86600301600060188681548110612af557fe5b8360010160006018848154811061356057fe5b60009182526020808320909101546001600160a01b03168352820192909252604001902055600101613526565b50505b836135996123c9565b6001600160a01b03167ff279e6a1f5e320cca91135676d9cb6e44ca8a08c0b88342bcdb1144f6511b56885604051612ba69190614b37565b6110148363a9059cbb60e01b84846040516024016135f0929190614b13565b60408051601f198184030181529190526020810180517bffffffffffffffffffffffffffffffffffffffffffffffffffffffff167fffffffff00000000000000000000000000000000000000000000000000000000909316929092179091526142f5565b60155460005b818110156110145761366c8184613674565b60010161365a565b60006015838154811061368357fe5b600091825260208083206001600160a01b0386168452600260059093020191820190526040909120549091506136cb5760405162461bcd60e51b815260040161087690614d89565b6001600160a01b038216600090815260056020908152604080832054600285019092529091205443116136ff575050610bda565b81546040516370a0823160e01b81526000916001600160a01b0316906370a082319061372f903090600401614adb565b60206040518083038186803b15801561374757600080fd5b505afa15801561375b573d6000803e3d6000fd5b505050506040513d601f19601f8201168201806040525081019061377f91906149e4565b905080158061379057506001830154155b80613799575081155b156137c35750506001600160a01b0382166000908152600290910160205260409020439055610bda565b6001600160a01b03841660009081526002840160205260408120546137e9904390613f3d565b9050600061380e600354610aee8760010154612d778887612bb590919063ffffffff16565b6002549091506001600160a01b0387811691161415613a3557856001600160a01b03166340c10f19600660029054906101000a90046001600160a01b0316613867612710610aee600a5487612bb590919063ffffffff16565b6040518363ffffffff1660e01b8152600401613884929190614b13565b600060405180830381600087803b15801561389e57600080fd5b505af11580156138b2573d6000803e3d6000fd5b50505050856001600160a01b03166340c10f19600860009054906101000a90046001600160a01b03166138f6612710610aee600b5487612bb590919063ffffffff16565b6040518363ffffffff1660e01b8152600401613913929190614b13565b600060405180830381600087803b15801561392d57600080fd5b505af1158015613941573d6000803e3d6000fd5b50505050856001600160a01b03166340c10f19600760009054906101000a90046001600160a01b0316613985612710610aee600c5487612bb590919063ffffffff16565b6040518363ffffffff1660e01b81526004016139a2929190614b13565b600060405180830381600087803b1580156139bc57600080fd5b505af11580156139d0573d6000803e3d6000fd5b50506040516340c10f1960e01b81526001600160a01b03891692506340c10f199150613a029030908590600401614b13565b600060405180830381600087803b158015613a1c57600080fd5b505af1158015613a30573d6000803e3d6000fd5b505050505b613a6c613a4b84610aee8464e8d4a51000612bb5565b6001600160a01b038816600090815260038801602052604090205490613aa3565b6001600160a01b03871660009081526003870160209081526040808320939093556002909701909652909420439055505050505050565b6000828201838110156119b35760405162461bcd60e51b815260040161087690614d52565b60155460005b8181101561101457613ae281846003612fff565b600101613ace565b60006119b38383614384565b60006119b3836001600160a01b0384166143c9565b6001600160a01b038316600090815260056020526040812054601580548392839283928391908b908110613b3b57fe5b600091825260208083208d84526016825260408085206001600160a01b03808f168752908452818620908f16865260036005909502909201938401835280852054600285019093529093205491935090431115613cea5782546040516370a0823160e01b81526000916001600160a01b0316906370a0823190613bc2903090600401614adb565b60206040518083038186803b158015613bda57600080fd5b505afa158015613bee573d6000803e3d6000fd5b505050506040513d601f19601f82011682018060405250810190613c1291906149e4565b9050801580613c2357506001840154155b80613c2c575084155b15613c53576001600160a01b038c1660009081526002850160205260409020439055613ce8565b6001600160a01b038c166000908152600285016020526040812054613c79904390613f3d565b9050613c9c600354610aee8760010154612d778a86612bb590919063ffffffff16565b9650613cbb613cb483610aee8a64e8d4a51000612bb5565b8490613aa3565b6001600160a01b038e16600090815260038701602090815260408083209390935560028801905220439055505b505b506001600160a01b038a16600090815260038301602090815260408083205460018501909252909120548254613d3091906128a19064e8d4a5100090610aee9086612bb5565b95508515613d5a57613d42828c613faf565b613d4f8c878c8e8d6143e1565b9550613d5a826141cd565b8154613d719064e8d4a5100090610aee9084612bb5565b6001600160a01b039b909b1660009081526001929092016020525060409020989098555097909650945050505050565b6000611492826144a8565b6040516370a0823160e01b815283906000906001600160a01b038316906370a0823190613ddd903090600401614adb565b60206040518083038186803b158015613df557600080fd5b505afa158015613e09573d6000803e3d6000fd5b505050506040513d601f19601f82011682018060405250810190613e2d91906149e4565b905080831115613ebd5760405163a9059cbb60e01b81526001600160a01b0383169063a9059cbb90613e659087908590600401614b13565b602060405180830381600087803b158015613e7f57600080fd5b505af1158015613e93573d6000803e3d6000fd5b505050506040513d601f19601f82011682018060405250810190613eb79190614933565b50611d12565b60405163a9059cbb60e01b81526001600160a01b0383169063a9059cbb90613eeb9087908790600401614b13565b602060405180830381600087803b158015613f0557600080fd5b505af1158015613f19573d6000803e3d6000fd5b505050506040513d601f19601f82011682018060405250810190612f259190614933565b600082821115613f5f5760405162461bcd60e51b815260040161087690614de6565b50900390565b6000613f7183836143c9565b613fa757508154600181810184556000848152602080822090930184905584548482528286019093526040902091909155611492565b506000611492565b613fb76123c9565b601a80546001600160a01b0319166001600160a01b039283161790558254601b556040516370a0823160e01b8152908216906370a0823190613ffd903090600401614adb565b60206040518083038186803b15801561401557600080fd5b505afa158015614029573d6000803e3d6000fd5b505050506040513d601f19601f8201168201806040525081019061404d91906149e4565b601c55601d80546001600160a01b0319166001600160a01b039290921691909117905550565b6019546001600160a01b031661408857611d12565b6019546040517f2688da6d0000000000000000000000000000000000000000000000000000000081526001600160a01b0390911690632688da6d906140d990889088908890889088906004016153ab565b600060405180830381600087803b1580156140f357600080fd5b505af1158015614107573d6000803e3d6000fd5b505050505050505050565b6019546000906001600160a01b031661412c575082610b46565b6019546040517f905d11ca0000000000000000000000000000000000000000000000000000000081526001600160a01b039091169063905d11ca9061417b908890889088908890600401615384565b602060405180830381600087803b15801561419557600080fd5b505af11580156141a9573d6000803e3d6000fd5b505050506040513d601f19601f820116820180604052508101906113ae91906149e4565b601b54815410156119985760405162461bcd60e51b815260040161087690614ec2565b610b90846323b872dd60e01b8585856040516024016135f093929190614aef565b60006119b3836001600160a01b0384166144ac565b6019546001600160a01b031661423b57611d12565b6019546040517f825cb9c60000000000000000000000000000000000000000000000000000000081526001600160a01b039091169063825cb9c6906140d990889088908890889088906004016153ab565b6019546000906001600160a01b03166142a6575082610b46565b6019546040517f550928d20000000000000000000000000000000000000000000000000000000081526001600160a01b039091169063550928d29061417b908890889088908890600401615384565b606061434a826040518060400160405280602081526020017f5361666542455032303a206c6f772d6c6576656c2063616c6c206661696c6564815250856001600160a01b03166145729092919063ffffffff16565b80519091501561101457808060200190518101906143689190614933565b6110145760405162461bcd60e51b815260040161087690614cf5565b815460009082106143a75760405162461bcd60e51b815260040161087690614bcd565b8260000182815481106143b657fe5b9060005260206000200154905092915050565b60009081526001919091016020526040902054151590565b6019546000906001600160a01b03166143fb5750836113ae565b6019546040517ffa35651d0000000000000000000000000000000000000000000000000000000081526001600160a01b039091169063fa35651d9061444c90899089908990899089906004016153ab565b602060405180830381600087803b15801561446657600080fd5b505af115801561447a573d6000803e3d6000fd5b505050506040513d601f19601f8201168201806040525081019061449e91906149e4565b9695505050505050565b5490565b6000818152600183016020526040812054801561456857835460001980830191908101906000908790839081106144df57fe5b90600052602060002001549050808760000184815481106144fc57fe5b60009182526020808320909101929092558281526001898101909252604090209084019055865487908061452c57fe5b60019003818190600052602060002001600090559055866001016000878152602001908152602001600020600090556001945050505050611492565b6000915050611492565b6060610b468484600085856145868561461c565b6145a25760405162461bcd60e51b815260040161087690615282565b60006060866001600160a01b031685876040516145bf9190614abf565b60006040518083038185875af1925050503d80600081146145fc576040519150601f19603f3d011682016040523d82523d6000602084013e614601565b606091505b5091509150614611828286614622565b979650505050505050565b3b151590565b606083156146315750816119b3565b8251156146415782518084602001fd5b8160405162461bcd60e51b81526004016108769190614b65565b80356114928161544a565b600082601f830112614676578081fd5b8135614689614684826153fe565b6153d7565b8181529150602080830190848101818402860182018710156146aa57600080fd5b60005b848110156146c9578135845292820192908201906001016146ad565b505050505092915050565b6000602082840312156146e5578081fd5b81356119b38161544a565b60008060008060808587031215614705578283fd5b84356147108161544a565b935060208501356147208161544a565b925060408501356147308161544a565b9396929550929360600135925050565b60008060008060008060008060006101208a8c03121561475e578485fd5b89356147698161544a565b985060208a01356147798161544a565b975060408a01356147898161544a565b989b979a5097986060810135985060808101359760a0820135975060c0820135965060e08201359550610100909101359350915050565b600080604083850312156147d2578182fd5b82356147dd8161544a565b946020939093013593505050565b6000806000606084860312156147ff578283fd5b833561480a8161544a565b92506020840135915060408401356148218161544a565b809150509250925092565b600080600060608486031215614840578283fd5b833561484b8161544a565b95602085013595506040909401359392505050565b60006020808385031215614872578182fd5b823567ffffffffffffffff80821115614889578384fd5b818501915085601f83011261489c578384fd5b81356148aa614684826153fe565b81815284810190848601875b848110156149245781358701604080601f19838f030112156148d6578a8bfd5b6148df816153d7565b6148eb8e8c850161465b565b81529082013590888211156148fe578b8cfd5b61490c8e8c84860101614666565b818c01528652505092870192908701906001016148b6565b50909998505050505050505050565b600060208284031215614944578081fd5b81516119b38161545f565b60008060408385031215614961578182fd5b823561496c8161545f565b9150602083013561497c8161545f565b809150509250929050565b600060208284031215614998578081fd5b5035919050565b600080604083850312156149b1578182fd5b82359150602083013561497c8161544a565b600080604083850312156149d5578182fd5b50508035926020909101359150565b6000602082840312156149f5578081fd5b5051919050565b600080600060608486031215614a10578081fd5b833592506020840135614a228161544a565b929592945050506040919091013590565b60008060008060808587031215614a48578182fd5b843593506020850135614a5a8161544a565b9250604085013561ffff81168114614a70578283fd5b91506060850135614a808161545f565b939692955090935050565b60008060008060808587031215614aa0578182fd5b8435935060208501359250604085013561ffff81168114614a70578283fd5b60008251614ad181846020870161541e565b9190910192915050565b6001600160a01b0391909116815260200190565b6001600160a01b039384168152919092166020820152604081019190915260600190565b6001600160a01b03929092168252602082015260400190565b901515815260200190565b90815260200190565b6001600160a01b03939093168352602083019190915261ffff16604082015260600190565b6000602082528251806020840152614b8481604085016020870161541e565b601f01601f19169190910160400192915050565b6020808252818101527f496e76616c6964206465706f7369742066656520626173697320706f696e7473604082015260600190565b60208082526022908201527f456e756d657261626c655365743a20696e646578206f7574206f6620626f756e60408201527f6473000000000000000000000000000000000000000000000000000000000000606082015260800190565b6020808252602f908201527f416363657373436f6e74726f6c3a2073656e646572206d75737420626520616e60408201527f2061646d696e20746f206772616e740000000000000000000000000000000000606082015260800190565b60208082526015908201527f4d657373656e6765722063616e277420656e7465720000000000000000000000604082015260600190565b60208082526017908201527f4d657373656e6765722063616e2774207265656e746572000000000000000000604082015260600190565b6020808252602a908201527f5361666542455032303a204245503230206f7065726174696f6e20646964206e60408201527f6f74207375636365656400000000000000000000000000000000000000000000606082015260800190565b6020808252601b908201527f536166654d6174683a206164646974696f6e206f766572666c6f770000000000604082015260600190565b60208082526024908201527f506f6f6c20666f7220746869732072756e65206861736e2774206265656e207360408201527f6574757000000000000000000000000000000000000000000000000000000000606082015260800190565b6020808252601e908201527f536166654d6174683a207375627472616374696f6e206f766572666c6f770000604082015260600190565b6020808252600e908201527f4d657373656e676572206f6e6c79000000000000000000000000000000000000604082015260600190565b60208082526013908201527f506f6f6c20646f6573206e6f7420657869737400000000000000000000000000604082015260600190565b60208082526008908201527f446576206f6e6c79000000000000000000000000000000000000000000000000604082015260600190565b60208082526024908201527f4d657373656e6765722063616e6e6f7420726564756365207573657220616d6f60408201527f756e747300000000000000000000000000000000000000000000000000000000606082015260800190565b6020808252601a908201527f536166654d6174683a206469766973696f6e206279207a65726f000000000000604082015260600190565b6020808252601a908201527f5265776172642072756e6520646f6573206e6f74206578697374000000000000604082015260600190565b60208082526030908201527f416363657373436f6e74726f6c3a2073656e646572206d75737420626520616e60408201527f2061646d696e20746f207265766f6b6500000000000000000000000000000000606082015260800190565b60208082526017908201527f43616e6e6f7420757365207a65726f2061646472657373000000000000000000604082015260600190565b60208082526015908201527f446576206f72204d657373656e676572206f6e6c790000000000000000000000604082015260600190565b6020808252601d908201527f43616e206f6e6c792073656e6420746f2075736572206f72206275726e000000604082015260600190565b60208082526018908201527f4d696e742070657263656e7420636f6e73747261696e74730000000000000000604082015260600190565b60208082526036908201527f53686f756c64206e6f742062652061626c6520746f207472616e73666572206d60408201527f6f7265207468616e2035252066726f6d207661756c7400000000000000000000606082015260800190565b6020808252601b908201527f547279696e6720746f20776974686472617720746f6f206d7563680000000000604082015260600190565b60208082526021908201527f536166654d6174683a206d756c7469706c69636174696f6e206f766572666c6f60408201527f7700000000000000000000000000000000000000000000000000000000000000606082015260800190565b60208082526025908201527f7365743a20696e76616c6964206465706f73697420666565206261736973207060408201527f6f696e7473000000000000000000000000000000000000000000000000000000606082015260800190565b60208082526013908201527f506f6f6c2065786973747320616c726561647900000000000000000000000000604082015260600190565b6020808252601f908201527f43616e74207468726f772063757272656e742072756e6520696e20766f696400604082015260600190565b6020808252601d908201527f416464726573733a2063616c6c20746f206e6f6e2d636f6e7472616374000000604082015260600190565b6020808252601f908201527f5265656e7472616e637947756172643a207265656e7472616e742063616c6c00604082015260600190565b6020808252602f908201527f416363657373436f6e74726f6c3a2063616e206f6e6c792072656e6f756e636560408201527f20726f6c657320666f722073656c660000000000000000000000000000000000606082015260800190565b60208082526017908201527f43616e74207472616e736665722066726f6d2073656c66000000000000000000604082015260600190565b93845260208401929092526001600160a01b03908116604084015216606082015260800190565b94855260208501939093526001600160a01b039182166040850152166060830152608082015260a00190565b60405181810167ffffffffffffffff811182821017156153f657600080fd5b604052919050565b600067ffffffffffffffff821115615414578081fd5b5060209081020190565b60005b83811015615439578181015183820152602001615421565b83811115610b905750506000910152565b6001600160a01b038116811461199857600080fd5b801515811461199857600080fdfe9169014801faeffeb0ffa6d3da58be378861e512c765e75a348579eecb031854a26469706673582212200a6e55979eaa74b065c8799974c5adcb69c671945e6acd2d700c5ccc6f77ce5c64736f6c634300060c0033",
  "linkReferences": {},
  "deployedLinkReferences": {}
}