{
  "_format": "hh-sol-artifact-1",
  "contractName": "ArcaneBarracksV1",
  "sourceName": "src/ArcaneBarracksV1.sol",
  "abi": [
    {
      "inputs": [
        {
          "internalType": "address",
          "name": "_itemsAddress",
          "type": "address"
        },
        {
          "internalType": "address",
          "name": "_itemStorageAddress",
          "type": "address"
        },
        {
          "internalType": "address",
          "name": "_itemMintingStationAddress",
          "type": "address"
        },
        {
          "internalType": "address",
          "name": "_profileAddress",
          "type": "address"
        },
        {
          "internalType": "uint256",
          "name": "_tokenPrice",
          "type": "uint256"
        }
      ],
      "stateMutability": "nonpayable",
      "type": "constructor"
    },
    {
      "anonymous": false,
      "inputs": [
        {
          "indexed": true,
          "internalType": "address",
          "name": "user",
          "type": "address"
        },
        {
          "indexed": false,
          "internalType": "uint256",
          "name": "amount",
          "type": "uint256"
        }
      ],
      "name": "ActionBonus",
      "type": "event"
    },
    {
      "anonymous": false,
      "inputs": [
        {
          "indexed": true,
          "internalType": "address",
          "name": "user",
          "type": "address"
        },
        {
          "indexed": false,
          "internalType": "uint256",
          "name": "amount",
          "type": "uint256"
        }
      ],
      "name": "ActionBurn",
      "type": "event"
    },
    {
      "anonymous": false,
      "inputs": [
        {
          "indexed": true,
          "internalType": "address",
          "name": "user",
          "type": "address"
        },
        {
          "indexed": true,
          "internalType": "address",
          "name": "token",
          "type": "address"
        },
        {
          "indexed": false,
          "internalType": "uint256",
          "name": "amount",
          "type": "uint256"
        }
      ],
      "name": "ActionFee",
      "type": "event"
    },
    {
      "anonymous": false,
      "inputs": [
        {
          "indexed": true,
          "internalType": "address",
          "name": "user",
          "type": "address"
        },
        {
          "indexed": false,
          "internalType": "uint256",
          "name": "amount",
          "type": "uint256"
        }
      ],
      "name": "ActionHiddenPool",
      "type": "event"
    },
    {
      "anonymous": false,
      "inputs": [
        {
          "indexed": true,
          "internalType": "address",
          "name": "user",
          "type": "address"
        },
        {
          "indexed": true,
          "internalType": "uint256",
          "name": "tokenId",
          "type": "uint256"
        },
        {
          "indexed": true,
          "internalType": "uint16",
          "name": "itemId",
          "type": "uint16"
        }
      ],
      "name": "Equip",
      "type": "event"
    },
    {
      "anonymous": false,
      "inputs": [
        {
          "indexed": true,
          "internalType": "address",
          "name": "previousOwner",
          "type": "address"
        },
        {
          "indexed": true,
          "internalType": "address",
          "name": "newOwner",
          "type": "address"
        }
      ],
      "name": "OwnershipTransferred",
      "type": "event"
    },
    {
      "anonymous": false,
      "inputs": [
        {
          "indexed": true,
          "internalType": "address",
          "name": "user",
          "type": "address"
        },
        {
          "indexed": true,
          "internalType": "uint256",
          "name": "tokenId",
          "type": "uint256"
        },
        {
          "indexed": true,
          "internalType": "uint16",
          "name": "itemId",
          "type": "uint16"
        }
      ],
      "name": "Unequip",
      "type": "event"
    },
    {
      "inputs": [
        {
          "internalType": "uint256",
          "name": "_amount",
          "type": "uint256"
        }
      ],
      "name": "claimFee",
      "outputs": [],
      "stateMutability": "nonpayable",
      "type": "function"
    },
    {
      "inputs": [
        {
          "internalType": "enum ArcaneItemLibraryV1.ArcaneItemSlot",
          "name": "_slotId",
          "type": "uint8"
        },
        {
          "internalType": "uint256",
          "name": "_tokenId",
          "type": "uint256"
        }
      ],
      "name": "equip",
      "outputs": [],
      "stateMutability": "nonpayable",
      "type": "function"
    },
    {
      "inputs": [
        {
          "internalType": "enum ArcaneItemLibraryV1.ArcaneItemSlot",
          "name": "_slotId",
          "type": "uint8"
        },
        {
          "internalType": "uint256",
          "name": "_tokenId",
          "type": "uint256"
        }
      ],
      "name": "equip2",
      "outputs": [],
      "stateMutability": "nonpayable",
      "type": "function"
    },
    {
      "inputs": [
        {
          "internalType": "address",
          "name": "_address",
          "type": "address"
        },
        {
          "internalType": "enum ArcaneItemLibraryV1.ArcaneItemSlot",
          "name": "_slotId",
          "type": "uint8"
        }
      ],
      "name": "getEquippedItem3",
      "outputs": [
        {
          "internalType": "uint256",
          "name": "",
          "type": "uint256"
        }
      ],
      "stateMutability": "view",
      "type": "function"
    },
    {
      "inputs": [
        {
          "internalType": "address",
          "name": "_address",
          "type": "address"
        },
        {
          "internalType": "enum ArcaneItemLibraryV1.ArcaneItemSlot",
          "name": "_slotId",
          "type": "uint8"
        }
      ],
      "name": "getEquippedItem",
      "outputs": [
        {
          "internalType": "uint256",
          "name": "",
          "type": "uint256"
        }
      ],
      "stateMutability": "view",
      "type": "function"
    },
    {
      "inputs": [
        {
          "internalType": "uint256",
          "name": "_tokenId",
          "type": "uint256"
        }
      ],
      "name": "getItem",
      "outputs": [
        {
          "components": [
            {
              "internalType": "uint16",
              "name": "version",
              "type": "uint16"
            },
            {
              "internalType": "uint16",
              "name": "itemId",
              "type": "uint16"
            },
            {
              "internalType": "enum ArcaneItemLibraryV1.ArcaneItemType",
              "name": "itemType",
              "type": "uint8"
            },
            {
              "components": [
                {
                  "internalType": "uint8",
                  "name": "variant",
                  "type": "uint8"
                },
                {
                  "internalType": "uint16",
                  "name": "value",
                  "type": "uint16"
                }
              ],
              "internalType": "struct ArcaneItemLibraryV1.ArcaneItemModifier[]",
              "name": "mods",
              "type": "tuple[]"
            }
          ],
          "internalType": "struct ArcaneItemLibraryV1.ArcaneItem",
          "name": "",
          "type": "tuple"
        }
      ],
      "stateMutability": "view",
      "type": "function"
    },
    {
      "inputs": [
        {
          "internalType": "uint8",
          "name": "_id",
          "type": "uint8"
        }
      ],
      "name": "getRune",
      "outputs": [
        {
          "internalType": "address",
          "name": "",
          "type": "address"
        }
      ],
      "stateMutability": "view",
      "type": "function"
    },
    {
      "inputs": [
        {
          "internalType": "address",
          "name": "",
          "type": "address"
        },
        {
          "internalType": "address",
          "name": "",
          "type": "address"
        }
      ],
      "name": "hasAbolishedFees",
      "outputs": [
        {
          "internalType": "bool",
          "name": "",
          "type": "bool"
        }
      ],
      "stateMutability": "view",
      "type": "function"
    },
    {
      "inputs": [
        {
          "internalType": "address",
          "name": "",
          "type": "address"
        },
        {
          "internalType": "address",
          "name": "",
          "type": "address"
        }
      ],
      "name": "hasAcquiredHarvestDelay",
      "outputs": [
        {
          "internalType": "bool",
          "name": "",
          "type": "bool"
        }
      ],
      "stateMutability": "view",
      "type": "function"
    },
    {
      "inputs": [
        {
          "internalType": "address",
          "name": "",
          "type": "address"
        },
        {
          "internalType": "address",
          "name": "",
          "type": "address"
        }
      ],
      "name": "hasClaimedShard",
      "outputs": [
        {
          "internalType": "bool",
          "name": "",
          "type": "bool"
        }
      ],
      "stateMutability": "view",
      "type": "function"
    },
    {
      "inputs": [
        {
          "internalType": "address",
          "name": "",
          "type": "address"
        },
        {
          "internalType": "address",
          "name": "",
          "type": "address"
        }
      ],
      "name": "hasCreatedRandomRuneword",
      "outputs": [
        {
          "internalType": "bool",
          "name": "",
          "type": "bool"
        }
      ],
      "stateMutability": "view",
      "type": "function"
    },
    {
      "inputs": [
        {
          "internalType": "address",
          "name": "",
          "type": "address"
        },
        {
          "internalType": "address",
          "name": "",
          "type": "address"
        }
      ],
      "name": "hasFoundGuildToken",
      "outputs": [
        {
          "internalType": "bool",
          "name": "",
          "type": "bool"
        }
      ],
      "stateMutability": "view",
      "type": "function"
    },
    {
      "inputs": [
        {
          "internalType": "address",
          "name": "",
          "type": "address"
        },
        {
          "internalType": "address",
          "name": "",
          "type": "address"
        }
      ],
      "name": "hasUnlockedHiddenPool",
      "outputs": [
        {
          "internalType": "bool",
          "name": "",
          "type": "bool"
        }
      ],
      "stateMutability": "view",
      "type": "function"
    },
    {
      "inputs": [],
      "name": "hiddenPoolPid",
      "outputs": [
        {
          "internalType": "uint256",
          "name": "",
          "type": "uint256"
        }
      ],
      "stateMutability": "view",
      "type": "function"
    },
    {
      "inputs": [
        {
          "internalType": "address",
          "name": "",
          "type": "address"
        }
      ],
      "name": "itemCount",
      "outputs": [
        {
          "internalType": "uint8",
          "name": "",
          "type": "uint8"
        }
      ],
      "stateMutability": "view",
      "type": "function"
    },
    {
      "inputs": [],
      "name": "itemMintingStationAddress",
      "outputs": [
        {
          "internalType": "address",
          "name": "",
          "type": "address"
        }
      ],
      "stateMutability": "view",
      "type": "function"
    },
    {
      "inputs": [],
      "name": "itemStorageAddress",
      "outputs": [
        {
          "internalType": "address",
          "name": "",
          "type": "address"
        }
      ],
      "stateMutability": "view",
      "type": "function"
    },
    {
      "inputs": [
        {
          "internalType": "address",
          "name": "",
          "type": "address"
        },
        {
          "internalType": "uint8",
          "name": "",
          "type": "uint8"
        }
      ],
      "name": "items",
      "outputs": [
        {
          "internalType": "uint256",
          "name": "",
          "type": "uint256"
        }
      ],
      "stateMutability": "view",
      "type": "function"
    },
    {
      "inputs": [],
      "name": "itemsAddress",
      "outputs": [
        {
          "internalType": "address",
          "name": "",
          "type": "address"
        }
      ],
      "stateMutability": "view",
      "type": "function"
    },
    {
      "inputs": [],
      "name": "mintingEnabled",
      "outputs": [
        {
          "internalType": "bool",
          "name": "",
          "type": "bool"
        }
      ],
      "stateMutability": "view",
      "type": "function"
    },
    {
      "inputs": [
        {
          "internalType": "uint256",
          "name": "_pid",
          "type": "uint256"
        },
        {
          "internalType": "uint256",
          "name": "_pending",
          "type": "uint256"
        },
        {
          "internalType": "address",
          "name": "_userAddress",
          "type": "address"
        },
        {
          "internalType": "address",
          "name": "_rewardToken",
          "type": "address"
        },
        {
          "internalType": "uint256",
          "name": "_amount",
          "type": "uint256"
        }
      ],
      "name": "onDeposit",
      "outputs": [],
      "stateMutability": "nonpayable",
      "type": "function"
    },
    {
      "inputs": [
        {
          "internalType": "uint256",
          "name": "_pid",
          "type": "uint256"
        },
        {
          "internalType": "uint256",
          "name": "_pending",
          "type": "uint256"
        },
        {
          "internalType": "address",
          "name": "_userAddress",
          "type": "address"
        },
        {
          "internalType": "address",
          "name": "_rewardToken",
          "type": "address"
        }
      ],
      "name": "onDepositHarvest",
      "outputs": [
        {
          "internalType": "uint256",
          "name": "",
          "type": "uint256"
        }
      ],
      "stateMutability": "nonpayable",
      "type": "function"
    },
    {
      "inputs": [
        {
          "internalType": "uint256",
          "name": "_pid",
          "type": "uint256"
        },
        {
          "internalType": "uint256",
          "name": "_pending",
          "type": "uint256"
        },
        {
          "internalType": "address",
          "name": "_userAddress",
          "type": "address"
        },
        {
          "internalType": "address",
          "name": "_rewardToken",
          "type": "address"
        },
        {
          "internalType": "uint256",
          "name": "_actionId",
          "type": "uint256"
        }
      ],
      "name": "onHarvestIteration",
      "outputs": [
        {
          "internalType": "uint256",
          "name": "",
          "type": "uint256"
        }
      ],
      "stateMutability": "nonpayable",
      "type": "function"
    },
    {
      "inputs": [
        {
          "internalType": "uint256",
          "name": "_pid",
          "type": "uint256"
        },
        {
          "internalType": "address",
          "name": "_runeReward",
          "type": "address"
        },
        {
          "internalType": "uint256",
          "name": "_runeRewardAmount",
          "type": "uint256"
        },
        {
          "internalType": "uint256",
          "name": "_perShare",
          "type": "uint256"
        }
      ],
      "name": "onUpdatePool",
      "outputs": [],
      "stateMutability": "nonpayable",
      "type": "function"
    },
    {
      "inputs": [
        {
          "internalType": "uint256",
          "name": "_pid",
          "type": "uint256"
        },
        {
          "internalType": "uint256",
          "name": "_pending",
          "type": "uint256"
        },
        {
          "internalType": "address",
          "name": "_userAddress",
          "type": "address"
        },
        {
          "internalType": "address",
          "name": "_rewardToken",
          "type": "address"
        },
        {
          "internalType": "uint256",
          "name": "_amount",
          "type": "uint256"
        }
      ],
      "name": "onWithdraw",
      "outputs": [],
      "stateMutability": "nonpayable",
      "type": "function"
    },
    {
      "inputs": [
        {
          "internalType": "uint256",
          "name": "_pid",
          "type": "uint256"
        },
        {
          "internalType": "uint256",
          "name": "_pending",
          "type": "uint256"
        },
        {
          "internalType": "address",
          "name": "_userAddress",
          "type": "address"
        },
        {
          "internalType": "address",
          "name": "_rewardToken",
          "type": "address"
        }
      ],
      "name": "onWithdrawHarvest",
      "outputs": [
        {
          "internalType": "uint256",
          "name": "",
          "type": "uint256"
        }
      ],
      "stateMutability": "nonpayable",
      "type": "function"
    },
    {
      "inputs": [],
      "name": "owner",
      "outputs": [
        {
          "internalType": "address",
          "name": "",
          "type": "address"
        }
      ],
      "stateMutability": "view",
      "type": "function"
    },
    {
      "inputs": [],
      "name": "profileAddress",
      "outputs": [
        {
          "internalType": "address",
          "name": "",
          "type": "address"
        }
      ],
      "stateMutability": "view",
      "type": "function"
    },
    {
      "inputs": [],
      "name": "raidAddress",
      "outputs": [
        {
          "internalType": "address",
          "name": "",
          "type": "address"
        }
      ],
      "stateMutability": "view",
      "type": "function"
    },
    {
      "inputs": [],
      "name": "renounceOwnership",
      "outputs": [],
      "stateMutability": "nonpayable",
      "type": "function"
    },
    {
      "inputs": [],
      "name": "runeToken",
      "outputs": [
        {
          "internalType": "address",
          "name": "",
          "type": "address"
        }
      ],
      "stateMutability": "view",
      "type": "function"
    },
    {
      "inputs": [
        {
          "internalType": "uint8",
          "name": "",
          "type": "uint8"
        }
      ],
      "name": "runes",
      "outputs": [
        {
          "internalType": "address",
          "name": "",
          "type": "address"
        }
      ],
      "stateMutability": "view",
      "type": "function"
    },
    {
      "inputs": [
        {
          "internalType": "uint256",
          "name": "_pid",
          "type": "uint256"
        }
      ],
      "name": "setHiddenPoolPid",
      "outputs": [],
      "stateMutability": "nonpayable",
      "type": "function"
    },
    {
      "inputs": [
        {
          "internalType": "bool",
          "name": "_mintingEnabled",
          "type": "bool"
        }
      ],
      "name": "setMintingEnabled",
      "outputs": [],
      "stateMutability": "nonpayable",
      "type": "function"
    },
    {
      "inputs": [
        {
          "internalType": "address",
          "name": "_raid",
          "type": "address"
        }
      ],
      "name": "setRaid",
      "outputs": [],
      "stateMutability": "nonpayable",
      "type": "function"
    },
    {
      "inputs": [
        {
          "internalType": "uint8",
          "name": "_id",
          "type": "uint8"
        },
        {
          "internalType": "address",
          "name": "_address",
          "type": "address"
        }
      ],
      "name": "setRune",
      "outputs": [],
      "stateMutability": "nonpayable",
      "type": "function"
    },
    {
      "inputs": [
        {
          "internalType": "uint8",
          "name": "_rune1Index",
          "type": "uint8"
        },
        {
          "internalType": "address",
          "name": "_rune1Address",
          "type": "address"
        },
        {
          "internalType": "uint8",
          "name": "_rune2Index",
          "type": "uint8"
        },
        {
          "internalType": "address",
          "name": "_rune2Address",
          "type": "address"
        },
        {
          "internalType": "uint8",
          "name": "_rune3Index",
          "type": "uint8"
        },
        {
          "internalType": "address",
          "name": "_rune3Address",
          "type": "address"
        },
        {
          "internalType": "uint8",
          "name": "_rune4Index",
          "type": "uint8"
        },
        {
          "internalType": "address",
          "name": "_rune4Address",
          "type": "address"
        }
      ],
      "name": "setRuneAddresses",
      "outputs": [],
      "stateMutability": "nonpayable",
      "type": "function"
    },
    {
      "inputs": [],
      "name": "tokenPrice",
      "outputs": [
        {
          "internalType": "uint256",
          "name": "",
          "type": "uint256"
        }
      ],
      "stateMutability": "view",
      "type": "function"
    },
    {
      "inputs": [
        {
          "internalType": "address",
          "name": "newOwner",
          "type": "address"
        }
      ],
      "name": "transferOwnership",
      "outputs": [],
      "stateMutability": "nonpayable",
      "type": "function"
    },
    {
      "inputs": [
        {
          "internalType": "enum ArcaneItemLibraryV1.ArcaneItemSlot",
          "name": "_slotId",
          "type": "uint8"
        },
        {
          "internalType": "uint256",
          "name": "_tokenId",
          "type": "uint256"
        }
      ],
      "name": "unequip",
      "outputs": [],
      "stateMutability": "nonpayable",
      "type": "function"
    },
    {
      "inputs": [
        {
          "internalType": "enum ArcaneItemLibraryV1.ArcaneItemSlot",
          "name": "_slotId",
          "type": "uint8"
        },
        {
          "internalType": "uint256",
          "name": "_tokenId",
          "type": "uint256"
        }
      ],
      "name": "unequip2",
      "outputs": [],
      "stateMutability": "nonpayable",
      "type": "function"
    },
    {
      "inputs": [
        {
          "internalType": "uint256",
          "name": "_newTokenPrice",
          "type": "uint256"
        }
      ],
      "name": "updateTokenPrice",
      "outputs": [],
      "stateMutability": "nonpayable",
      "type": "function"
    },
    {
      "inputs": [],
      "name": "vaultAddress",
      "outputs": [
        {
          "internalType": "address",
          "name": "",
          "type": "address"
        }
      ],
      "stateMutability": "view",
      "type": "function"
    }
  ],
  "bytecode": "0x6080604052600c805460ff19166001179055601c600f553480156200002357600080fd5b5060405162003e9a38038062003e9a8339810160408190526200004691620002b2565b600062000052620002ae565b600080546001600160a01b0319166001600160a01b0383169081178255604051929350917f8be0079c531659141344cd1fd0a4f28419497f9722a3daafe3b4186f6b6457e0908290a35060018055600480546001600160a01b039687166001600160a01b031991821617909155600580549587169582169590951790945560068054938616938516939093178355600e5560038054919094169083161790925560078054821673602a27bbf954b6945534a84c8c88fb8ca9e92b7f17905560028054821673a9776b590bfc2f956711b3419910a5ec1f63153e179055600b6020527fdf7de25b7f1fd6d0b5205f0e18f1f35bd7b8d84cce336588d184533ce43a6f768054821673210c14fbecc2bd9b6231199470da12ad45f64d451790557f72c6bfb7988af3a1efa6568f02a999bc52252641c659d85961ca3d372b57d5cf8054821673e00b8109bcb70b1edeb4cf87914efc28050209951790557fa50eece07c7db1631545c0069bd8f5f54d5935e215d59097edf258a44ba916348054821673125a3e00a9a11317d4d95349e68ba0bc744addc41790557f64c15cc42be7899b001f818cf4433057002112c418d1d3a67cd5cb453051d33e8054821673ef4f66506aaaeeff6d10775ad6f994105d8f11b41790557febae6141bae5521e99e0a8d610356b0f501fea54980b59c84841db43ba7204f48054821673098afb73f809d8fe145363f802113e3825d7490c1790556000919091527f0387e9d1203691d8e3362a7e4c6723de358a4010d7f31ecbec3fbfc61d1c75fc8054909116735de72a6fca2144aa134650bbea92cc919244f05d1790556200033e565b3390565b600080600080600060a08688031215620002ca578081fd5b8551620002d78162000325565b6020870151909550620002ea8162000325565b6040870151909450620002fd8162000325565b6060870151909350620003108162000325565b80925050608086015190509295509295909350565b6001600160a01b03811681146200033b57600080fd5b50565b613b4c806200034e6000396000f3fe608060405234801561001057600080fd5b50600436106102c85760003560e01c8063988b280c1161017b578063d55fa747116100d8578063eec990811161008c578063f667526a11610071578063f667526a14610541578063f9f7c7b614610554578063fa35651d14610567576102c8565b8063eec990811461051b578063f2fde38b1461052e576102c8565b8063dbe65367116100bd578063dbe65367146104ed578063e68958da146104f5578063ebc695eb14610508576102c8565b8063d55fa747146104d2578063d63bdd54146104da576102c8565b8063ae6b16031161012f578063b8748e3111610114578063b8748e3114610497578063c00ae885146104aa578063c1f57bdb146104ca576102c8565b8063ae6b16031461047c578063af14043e1461048f576102c8565b80639fd6db12116101605780639fd6db121461044e578063aaa65bfc14610456578063aaf47d1a14610469576102c8565b8063988b280c146104335780639fd53f2b14610446576102c8565b806352e3ac83116102295780637ff9b596116101dd5780638da5cb5b116101c25780638da5cb5b14610410578063905d11ca14610418578063934849f31461042b576102c8565b80637ff9b59614610408578063825cb9c61461033e576102c8565b8063676c0d771161020e578063676c0d77146103e55780636c167e03146103f8578063715018a614610400576102c8565b806352e3ac83146103bf578063550928d2146103d2576102c8565b806327d92ff3116102805780633fc017bf116102655780633fc017bf14610384578063430bf08a146103a45780634ea3871a146103ac576102c8565b806327d92ff3146103515780633129e77314610364576102c8565b80631742d7d3116102b15780631742d7d3146103165780631aafb8711461032b5780632688da6d1461033e576102c8565b806303f5160d146102cd5780630fd21e96146102f6575b600080fd5b6102e06102db366004612d19565b61057a565b6040516102ed91906139b5565b60405180910390f35b610309610304366004612cac565b610597565b6040516102ed9190613179565b610329610324366004612d7e565b6105b7565b005b610309610339366004612cac565b610d3f565b61032961034c366004612f02565b610d5f565b61032961035f366004612d7e565b610d6e565b610377610372366004612e4d565b611025565b6040516102ed919061392b565b610397610392366004612fb1565b6110be565b6040516102ed9190613122565b6103976110dc565b6103296103ba366004612d46565b6110eb565b6103096103cd366004612cac565b61113d565b6102e06103e0366004612eb9565b61115d565b6103296103f3366004612e4d565b61117e565b6103976111c2565b6103296111d1565b6102e061125a565b610397611260565b6102e0610426366004612eb9565b61126f565b610397611287565b610397610441366004612fb1565b611296565b6103976112b1565b6103096112c0565b6102e0610464366004612ce4565b6112c9565b610309610477366004612cac565b611309565b61032961048a366004612c74565b611329565b61039761138a565b6103096104a5366004612cac565b611399565b6104bd6104b8366004612c74565b6113b9565b6040516102ed91906139e3565b6103976113ce565b6103976113dd565b6103296104e8366004612e7d565b6113ec565b6102e06113fa565b610329610503366004612fea565b611400565b610329610516366004612fcd565b611535565b610329610529366004612e4d565b6115a7565b61032961053c366004612c74565b6115eb565b61032961054f366004612e4d565b6116ab565b610309610562366004612cac565b61170b565b6102e0610575366004612f02565b61172b565b600960209081526000928352604080842090915290825290205481565b601460209081526000928352604080842090915290825290205460ff1681565b6105bf612b1a565b6003546105dc906001600160a01b03166105d761174c565b611750565b90508060a001511515600115151461060f5760405162461bcd60e51b815260040161060690613773565b60405180910390fd5b600260015414156106325760405162461bcd60e51b81526004016106069061384f565b6002600155600480546040517f6352211e0000000000000000000000000000000000000000000000000000000081526001600160a01b03909116918291636352211e91610681918791016139b5565b60206040518083038186803b15801561069957600080fd5b505afa1580156106ad573d6000803e3d6000fd5b505050506040513d601f19601f820116820180604052508101906106d19190612c90565b6001600160a01b03166106e261174c565b6001600160a01b0316146107085760405162461bcd60e51b81526004016106069061345e565b6009600061071461174c565b6001600160a01b03166001600160a01b03168152602001908152602001600020600085601481111561074257fe5b60ff168152602081019190915260400160002054156107735760405162461bcd60e51b8152600401610606906136d0565b61077b612b5b565b604051633129e77360e01b815273__$6e6aae3005a1aabc9fb6bf26501a702d59$__90633129e773906107b29087906004016139b5565b60006040518083038186803b1580156107ca57600080fd5b505af41580156107de573d6000803e3d6000fd5b505050506040513d6000823e601f3d908101601f191682016040526108069190810190612da8565b905060028160400151601881111561081a57fe5b141561085057600185601481111561082e57fe5b1461084b5760405162461bcd60e51b815260040161060690613597565b610bfe565b60018160400151601881111561086257fe5b14156108a957600185601481111561087657fe5b148061088d5750600285601481111561088b57fe5b145b61084b5760405162461bcd60e51b815260040161060690613503565b6003816040015160188111156108bb57fe5b14806108d657506004816040015160188111156108d457fe5b145b156109065760028560148111156108e957fe5b1461084b5760405162461bcd60e51b8152600401610606906135ce565b60058160400151601881111561091857fe5b141561094957600385601481111561092c57fe5b1461084b5760405162461bcd60e51b815260040161060690613818565b60078160400151601881111561095b57fe5b141561098c57600785601481111561096f57fe5b1461084b5760405162461bcd60e51b81526004016106069061326b565b60068160400151601881111561099e57fe5b14156109cf5760048560148111156109b257fe5b1461084b5760405162461bcd60e51b8152600401610606906137aa565b6008816040015160188111156109e157fe5b1415610a125760068560148111156109f557fe5b1461084b5760405162461bcd60e51b815260040161060690613560565b600981604001516018811115610a2457fe5b1415610a55576009856014811115610a3857fe5b1461084b5760405162461bcd60e51b8152600401610606906138f4565b600a81604001516018811115610a6757fe5b1415610a98576008856014811115610a7b57fe5b1461084b5760405162461bcd60e51b815260040161060690613662565b600b81604001516018811115610aaa57fe5b1415610adb57600c856014811115610abe57fe5b1461084b5760405162461bcd60e51b815260040161060690613886565b600e81604001516018811115610aed57fe5b1415610b4a57600f856014811115610b0157fe5b1480610b1857506010856014811115610b1657fe5b145b80610b2e57506011856014811115610b2c57fe5b145b61084b5760405162461bcd60e51b8152600401610606906138bd565b600c81604001516018811115610b5c57fe5b1415610ba357600d856014811115610b7057fe5b1480610b875750600e856014811115610b8557fe5b145b61084b5760405162461bcd60e51b8152600401610606906132a2565b600d81604001516018811115610bb557fe5b1415610be6576005856014811115610bc957fe5b1461084b5760405162461bcd60e51b815260040161060690613707565b60405162461bcd60e51b815260040161060690613393565b8360096000610c0b61174c565b6001600160a01b03166001600160a01b031681526020019081526020016000206000876014811115610c3957fe5b60ff1660ff16815260200190815260200160002081905550600a6000610c5d61174c565b6001600160a01b0390811682526020820192909252604001600020805460ff8082166001011660ff199091161790556005541663e0e5d2b2610c9d61174c565b866040518363ffffffff1660e01b8152600401610cbb929190613136565b600060405180830381600087803b158015610cd557600080fd5b505af1158015610ce9573d6000803e3d6000fd5b50505050806020015161ffff1684610cff61174c565b6001600160a01b03167f7d4d4607f618490ec85e393587c2b6ccaddf8d1054b2278c6ff55bfc858806f060405160405180910390a4505060018055505050565b601360209081526000928352604080842090915290825290205460ff1681565b610d67611832565b5050505050565b610d76612b1a565b600354610d8e906001600160a01b03166105d761174c565b90508060a0015115156001151514610db85760405162461bcd60e51b815260040161060690613773565b60026001541415610ddb5760405162461bcd60e51b81526004016106069061384f565b60026001558160096000610ded61174c565b6001600160a01b03166001600160a01b031681526020019081526020016000206000856014811115610e1b57fe5b60ff1660ff1681526020019081526020016000205414610e4d5760405162461bcd60e51b8152600401610606906134cc565b610e55612b5b565b604051633129e77360e01b815273__$6e6aae3005a1aabc9fb6bf26501a702d59$__90633129e77390610e8c9086906004016139b5565b60006040518083038186803b158015610ea457600080fd5b505af4158015610eb8573d6000803e3d6000fd5b505050506040513d6000823e601f3d908101601f19168201604052610ee09190810190612da8565b9050600060096000610ef061174c565b6001600160a01b03166001600160a01b031681526020019081526020016000206000866014811115610f1e57fe5b60ff1660ff16815260200190815260200160002081905550600a6000610f4261174c565b6001600160a01b0390811682526020820192909252604001600020805460ff19811660ff91821660001901909116179055600554166392dfe367610f8461174c565b856040518363ffffffff1660e01b8152600401610fa2929190613136565b600060405180830381600087803b158015610fbc57600080fd5b505af1158015610fd0573d6000803e3d6000fd5b50505050806020015161ffff1683610fe661174c565b6001600160a01b03167f8e29323119c8e859ebb0c8c9d973026002b1d95e109e0744554e944905030a6360405160405180910390a45050600180555050565b61102d612b5b565b604051633129e77360e01b815273__$6e6aae3005a1aabc9fb6bf26501a702d59$__90633129e773906110649085906004016139b5565b60006040518083038186803b15801561107c57600080fd5b505af4158015611090573d6000803e3d6000fd5b505050506040513d6000823e601f3d908101601f191682016040526110b89190810190612da8565b92915050565b60ff166000908152600b60205260409020546001600160a01b031690565b6007546001600160a01b031681565b6110f361174c565b6001600160a01b0316611104611260565b6001600160a01b03161461112a5760405162461bcd60e51b81526004016106069061373e565b600c805460ff1916911515919091179055565b601260209081526000928352604080842090915290825290205460ff1681565b6000611167611832565b61117560028686868661185e565b95945050505050565b61118661174c565b6001600160a01b0316611197611260565b6001600160a01b0316146111bd5760405162461bcd60e51b81526004016106069061373e565b600e55565b6003546001600160a01b031681565b6111d961174c565b6001600160a01b03166111ea611260565b6001600160a01b0316146112105760405162461bcd60e51b81526004016106069061373e565b600080546040516001600160a01b03909116907f8be0079c531659141344cd1fd0a4f28419497f9722a3daafe3b4186f6b6457e0908390a3600080546001600160a01b0319169055565b600e5481565b6000546001600160a01b031690565b6000611279611832565b61117560018686868661185e565b6006546001600160a01b031681565b600b602052600090815260409020546001600160a01b031681565b6002546001600160a01b031681565b600c5460ff1681565b6001600160a01b0382166000908152600960205260408120818360148111156112ee57fe5b60ff1681526020810191909152604001600020549392505050565b601060209081526000928352604080842090915290825290205460ff1681565b61133161174c565b6001600160a01b0316611342611260565b6001600160a01b0316146113685760405162461bcd60e51b81526004016106069061373e565b600880546001600160a01b0319166001600160a01b0392909216919091179055565b6005546001600160a01b031681565b601160209081526000928352604080842090915290825290205460ff1681565b600a6020526000908152604090205460ff1681565b6004546001600160a01b031681565b6008546001600160a01b031681565b6113f4611832565b50505050565b600f5481565b61140861174c565b6001600160a01b0316611419611260565b6001600160a01b03161461143f5760405162461bcd60e51b81526004016106069061373e565b6001600160a01b0387161561147a5760ff88166000908152600b6020526040902080546001600160a01b0319166001600160a01b0389161790555b6001600160a01b038516156114b55760ff86166000908152600b6020526040902080546001600160a01b0319166001600160a01b0387161790555b6001600160a01b038316156114f05760ff84166000908152600b6020526040902080546001600160a01b0319166001600160a01b0385161790555b6001600160a01b0381161561152b5760ff82166000908152600b6020526040902080546001600160a01b0319166001600160a01b0383161790555b5050505050505050565b61153d61174c565b6001600160a01b031661154e611260565b6001600160a01b0316146115745760405162461bcd60e51b81526004016106069061373e565b60ff919091166000908152600b6020526040902080546001600160a01b0319166001600160a01b03909216919091179055565b6115af61174c565b6001600160a01b03166115c0611260565b6001600160a01b0316146115e65760405162461bcd60e51b81526004016106069061373e565b600f55565b6115f361174c565b6001600160a01b0316611604611260565b6001600160a01b03161461162a5760405162461bcd60e51b81526004016106069061373e565b6001600160a01b0381166116505760405162461bcd60e51b815260040161060690613336565b600080546040516001600160a01b03808516939216917f8be0079c531659141344cd1fd0a4f28419497f9722a3daafe3b4186f6b6457e091a3600080546001600160a01b0319166001600160a01b0392909216919091179055565b6116b361174c565b6001600160a01b03166116c4611260565b6001600160a01b0316146116ea5760405162461bcd60e51b81526004016106069061373e565b6117086116f561174c565b6002546001600160a01b03169083612679565b50565b601560209081526000928352604080842090915290825290205460ff1681565b6000611735611832565b611742828787878761185e565b9695505050505050565b3390565b611758612b1a565b600080600080600080886001600160a01b031663987ee156896040518263ffffffff1660e01b815260040161178d9190613122565b60c06040518083038186803b1580156117a557600080fd5b505afa1580156117b9573d6000803e3d6000fd5b505050506040513d601f19601f820116820180604052508101906117dd9190612f53565b949a509298509096509450925090506117f4612b1a565b506040805160c0810182529687526020870195909552938501929092526001600160a01b031660608401526080830152151560a08201529392505050565b6008546001600160a01b0316331461185c5760405162461bcd60e51b815260040161060690613699565b565b600854604080518082018252601781527f5b4261727261636b735d204974656d20436f756e743a200000000000000000006020808301919091526001600160a01b038681166000908152600a90925292812054909392909216918691849182916118ca9160ff166126ec565b6001600160a01b0387166000908152600a602052604090205460ff161561241f5760015b60148160ff161161241d576001600160a01b038816600090815260096020908152604080832060ff851684529091529020548061192b5750612415565b611933612b5b565b604051633129e77360e01b815273__$6e6aae3005a1aabc9fb6bf26501a702d59$__90633129e7739061196a9085906004016139b5565b60006040518083038186803b15801561198257600080fd5b505af4158015611996573d6000803e3d6000fd5b505050506040513d6000823e601f3d908101601f191682016040526119be9190810190612da8565b9050611a076040518060400160405280601481526020017f5b4261727261636b735d204974656d2049443a20000000000000000000000000815250826020015161ffff166126ec565b611a4e6040518060400160405280601981526020017f5b4261727261636b735d204974656d2056657273696f6e3a2000000000000000815250826000015161ffff166126ec565b611a9f6040518060400160405280601681526020017f5b4261727261636b735d204974656d20547970653a200000000000000000000081525082604001516018811115611a9757fe5b60ff166126ec565b806020015161ffff1660011415611f1257611b0f6040518060400160405280602081526020017f5b4261727261636b735d5b537465656c5d20686172766573745969656c643a208152508260600151600081518110611afa57fe5b60200260200101516020015161ffff166126ec565b611b3c604051806060016040528060258152602001613af2602591398260600151600181518110611afa57fe5b611b69604051806060016040528060238152602001613acf602391398260600151600281518110611afa57fe5b60008160600151600181518110611b7c57fe5b60200260200101516020015161ffff161115611ed15760008160600151600281518110611ba557fe5b60200260200101516020015161ffff1660011415611bf7575060008052600b6020527fdf7de25b7f1fd6d0b5205f0e18f1f35bd7b8d84cce336588d184533ce43a6f76546001600160a01b0316611c92565b8160600151600281518110611c0857fe5b60200260200101516020015161ffff1660021415611c5b57506002600052600b6020527fa50eece07c7db1631545c0069bd8f5f54d5935e215d59097edf258a44ba91634546001600160a01b0316611c92565b506005600052600b6020527febae6141bae5521e99e0a8d610356b0f501fea54980b59c84841db43ba7204f4546001600160a01b03165b6000611cd26064611ccc8560600151600181518110611cad57fe5b60200260200101516020015161ffff168b61274e90919063ffffffff16565b9061278f565b9050611d4a6040518060400160405280601681526020017f5b4261727261636b735d5b537465656c5d204665653a00000000000000000000815250826040518060400160405280600281526020017f6f6e0000000000000000000000000000000000000000000000000000000000008152508b6127c1565b611dc06040518060400160405280600281526020017f6f66000000000000000000000000000000000000000000000000000000000000815250836040518060400160405280600481526020017f66726f6d000000000000000000000000000000000000000000000000000000008152508f612823565b60408051808201909152600281527f746f0000000000000000000000000000000000000000000000000000000000006020820152600754611e0a91906001600160a01b0316612885565b886001600160a01b0316632bcbcc10838e600760009054906101000a90046001600160a01b0316856040518563ffffffff1660e01b8152600401611e51949392919061314f565b600060405180830381600087803b158015611e6b57600080fd5b505af1158015611e7f573d6000803e3d6000fd5b50505050816001600160a01b03168c6001600160a01b03167fd8449057aba08c8471cc2df06e1191048c936b03fafe68ad13d26d90798c93d583604051611ec691906139b5565b60405180910390a350505b611f096064611ccc8360600151600081518110611eea57fe5b60200260200101516020015161ffff168961274e90919063ffffffff16565b85019450612412565b806020015161ffff166002141561230357611f6d6040518060400160405280601f81526020017f5b4261727261636b735d5b467572795d20686172766573745969656c643a20008152508260600151600081518110611afa57fe5b611f9a604051806060016040528060328152602001613a9d603291398260600151600181518110611afa57fe5b611fc7604051806060016040528060268152602001613a77602691398260600151600281518110611afa57fe5b6004600d54118015611fe357506004600d5481611fe057fe5b06155b611ff257600d54600301611ff9565b6003600d54035b600d81905550600061200e6064600d546128e3565b90508d6001148061201f57508d6003145b156122c157816060015160018151811061203557fe5b60200260200101516020015161ffff16811161229157600854600f546040517f73309b960000000000000000000000000000000000000000000000000000000081526001600160a01b03909216916373309b9691612097918e906004016139be565b600060405180830381600087803b1580156120b157600080fd5b505af11580156120c5573d6000803e3d6000fd5b5050600854600f546040517fd59f62a80000000000000000000000000000000000000000000000000000000081526001600160a01b03909216935063faa8e75892509061217a908b90859063d59f62a8906121249086906004016139b5565b60206040518083038186803b15801561213c57600080fd5b505afa158015612150573d6000803e3d6000fd5b505050506040513d601f19601f820116820180604052508101906121749190612e65565b9061292e565b6040518363ffffffff1660e01b81526004016121979291906139d5565b600060405180830381600087803b1580156121b157600080fd5b505af11580156121c5573d6000803e3d6000fd5b5050600854600f546040517f216369b40000000000000000000000000000000000000000000000000000000081526001600160a01b03909216935063216369b49250612215918e906004016139be565b600060405180830381600087803b15801561222f57600080fd5b505af1158015612243573d6000803e3d6000fd5b505050508a6001600160a01b03167f21d9757e72ed3c439ed21ea06df5c09b611c00fbab96ec3aa3b6e4852f83d1458860405161228091906139b5565b60405180910390a2600096506122c1565b81606001516002815181106122a257fe5b60200260200101516020015160640361ffff1681106122c15760009694505b6122f96064611ccc84606001516000815181106122da57fe5b60200260200101516020015161ffff168a61274e90919063ffffffff16565b8601955050612412565b806020015161ffff16600314156124125761235e6040518060400160405280602081526020017f5b4261727261636b735d5b537465656c5d20686172766573745969656c643a208152508260600151600081518110611afa57fe5b6123a86040518060400160405280601f81526020017f5b4261727261636b735d5b537465656c5d20686172766573744275726e3a20008152508260600151600181518110611afa57fe5b600081606001516001815181106123bb57fe5b60200260200101516020015161ffff1611156123f4576123ea6064611ccc8360600151600181518110611eea57fe5b8401935083860395505b61240d6064611ccc8360600151600081518110611eea57fe5b850194505b50505b6001016118ee565b505b61245e6040518060400160405280601181526020017f5b4261727261636b735d204275726e3a20000000000000000000000000000000815250826126ec565b61249d6040518060400160405280601281526020017f5b4261727261636b735d20426f6e75733a200000000000000000000000000000815250836126ec565b6124dc6040518060400160405280601481526020017f5b4261727261636b735d2050656e64696e673a20000000000000000000000000815250846126ec565b80156125a2576040517fca6b6f5500000000000000000000000000000000000000000000000000000000815261dead906001600160a01b0386169063ca6b6f559061252d9084908690600401613136565b600060405180830381600087803b15801561254757600080fd5b505af115801561255b573d6000803e3d6000fd5b50505050876001600160a01b03167fbd6c81b22f61e66bb371451577d2d772376e4204095bdfd92ff6a48aa86837ef8360405161259891906139b5565b60405180910390a2505b811561266b576007546040517f2bcbcc100000000000000000000000000000000000000000000000000000000081526001600160a01b0380871692632bcbcc10926125f7928b9216908c90889060040161314f565b600060405180830381600087803b15801561261157600080fd5b505af1158015612625573d6000803e3d6000fd5b50505050866001600160a01b03167f7203e7db7b790743c0d380a243aa1629267ec702b820d4413cc65f7d3e15ba888360405161266291906139b5565b60405180910390a25b509098975050505050505050565b6126e78363a9059cbb60e01b8484604051602401612698929190613136565b60408051601f198184030181529190526020810180516001600160e01b03167fffffffff0000000000000000000000000000000000000000000000000000000090931692909217909152612953565b505050565b61274a828260405160240161270292919061320c565b60408051601f198184030181529190526020810180516001600160e01b03167f9710a9d0000000000000000000000000000000000000000000000000000000001790526129e2565b5050565b60008261275d575060006110b8565b8282028284828161276a57fe5b04146127885760405162461bcd60e51b815260040161060690613605565b9392505050565b60008082116127b05760405162461bcd60e51b815260040161060690613495565b8183816127b957fe5b049392505050565b6113f4848484846040516024016127db949392919061322e565b60408051601f198184030181529190526020810180516001600160e01b03167fa0c4b225000000000000000000000000000000000000000000000000000000001790526129e2565b6113f48484848460405160240161283d94939291906131c2565b60408051601f198184030181529190526020810180516001600160e01b03167faabc9a31000000000000000000000000000000000000000000000000000000001790526129e2565b61274a828260405160240161289b929190613197565b60408051601f198184030181529190526020810180516001600160e01b03167f319af333000000000000000000000000000000000000000000000000000000001790526129e2565b6000600182019150826001014244338560405160200161290694939291906130f5565b6040516020818303038152906040528051906020012060001c8161292657fe5b069392505050565b6000828201838110156127885760405162461bcd60e51b8152600401610606906133ca565b60606129a8826040518060400160405280602081526020017f5361666542455032303a206c6f772d6c6576656c2063616c6c206661696c6564815250856001600160a01b0316612a039092919063ffffffff16565b8051909150156126e757808060200190518101906129c69190612d62565b6126e75760405162461bcd60e51b8152600401610606906132d9565b80516a636f6e736f6c652e6c6f67602083016000808483855afa5050505050565b6060612a128484600085612a1a565b949350505050565b606082471015612a3c5760405162461bcd60e51b815260040161060690613401565b612a4585612adb565b612a615760405162461bcd60e51b8152600401610606906137e1565b60006060866001600160a01b03168587604051612a7e91906130d9565b60006040518083038185875af1925050503d8060008114612abb576040519150601f19603f3d011682016040523d82523d6000602084013e612ac0565b606091505b5091509150612ad0828286612ae1565b979650505050505050565b3b151590565b60608315612af0575081612788565b825115612b005782518084602001fd5b8160405162461bcd60e51b81526004016106069190613184565b6040518060c0016040528060008152602001600081526020016000815260200160006001600160a01b03168152602001600081526020016000151581525090565b604080516080810182526000808252602082018190529181019190915260608082015290565b600082601f830112612b91578081fd5b815167ffffffffffffffff811115612ba7578182fd5b6020612bb681828402016139f1565b8281529250808301848201604080850287018401881015612bd657600080fd5b60005b85811015612bfd57612beb8984612c18565b84529284019291810191600101612bd9565b50505050505092915050565b8035601581106110b857600080fd5b600060408284031215612c29578081fd5b612c3360406139f1565b90508151612c4081613a67565b8152602082015161ffff81168114612c5757600080fd5b602082015292915050565b805161ffff811681146110b857600080fd5b600060208284031215612c85578081fd5b813561278881613a44565b600060208284031215612ca1578081fd5b815161278881613a44565b60008060408385031215612cbe578081fd5b8235612cc981613a44565b91506020830135612cd981613a44565b809150509250929050565b60008060408385031215612cf6578182fd5b8235612d0181613a44565b9150612d108460208501612c09565b90509250929050565b60008060408385031215612d2b578182fd5b8235612d3681613a44565b91506020830135612cd981613a67565b600060208284031215612d57578081fd5b813561278881613a59565b600060208284031215612d73578081fd5b815161278881613a59565b60008060408385031215612d90578182fd5b612d9a8484612c09565b946020939093013593505050565b600060208284031215612db9578081fd5b815167ffffffffffffffff80821115612dd0578283fd5b9083019060808286031215612de3578283fd5b612ded60806139f1565b612df78684612c62565b8152612e068660208501612c62565b6020820152604083015160198110612e1c578485fd5b6040820152606083015182811115612e32578485fd5b612e3e87828601612b81565b60608301525095945050505050565b600060208284031215612e5e578081fd5b5035919050565b600060208284031215612e76578081fd5b5051919050565b60008060008060808587031215612e92578182fd5b843593506020850135612ea481613a44565b93969395505050506040820135916060013590565b60008060008060808587031215612ece578182fd5b84359350602085013592506040850135612ee781613a44565b91506060850135612ef781613a44565b939692955090935050565b600080600080600060a08688031215612f19578283fd5b85359450602086013593506040860135612f3281613a44565b92506060860135612f4281613a44565b949793965091946080013592915050565b60008060008060008060c08789031215612f6b578384fd5b8651955060208701519450604087015193506060870151612f8b81613a44565b608088015160a08901519194509250612fa381613a59565b809150509295509295509295565b600060208284031215612fc2578081fd5b813561278881613a67565b60008060408385031215612fdf578182fd5b8235612cc981613a67565b600080600080600080600080610100898b031215613006578586fd5b883561301181613a67565b9750602089013561302181613a44565b9650604089013561303181613a67565b9550606089013561304181613a44565b9450608089013561305181613a67565b935060a089013561306181613a44565b925060c089013561307181613a67565b915060e089013561308181613a44565b809150509295985092959890939650565b805160ff16825260209081015161ffff169082015260400190565b600081518084526130c5816020860160208601613a18565b601f01601f19169290920160200192915050565b600082516130eb818460208701613a18565b9190910192915050565b938452602084019290925260601b6bffffffffffffffffffffffff19166040830152605482015260740190565b6001600160a01b0391909116815260200190565b6001600160a01b03929092168252602082015260400190565b6001600160a01b039485168152928416602084015292166040820152606081019190915260800190565b901515815260200190565b60006020825261278860208301846130ad565b6000604082526131aa60408301856130ad565b90506001600160a01b03831660208301529392505050565b6000608082526131d560808301876130ad565b6001600160a01b03808716602085015283820360408501526131f782876130ad565b92508085166060850152505095945050505050565b60006040825261321f60408301856130ad565b90508260208301529392505050565b60006080825261324160808301876130ad565b856020840152828103604084015261325981866130ad565b91505082606083015295945050505050565b60208082526017908201527f43616e206f6e6c79206571756970206f6e206368657374000000000000000000604082015260600190565b60208082526018908201527f43616e206f6e6c79206571756970206f6e2066696e6765720000000000000000604082015260600190565b6020808252602a908201527f5361666542455032303a204245503230206f7065726174696f6e20646964206e60408201527f6f74207375636365656400000000000000000000000000000000000000000000606082015260800190565b60208082526026908201527f4f776e61626c653a206e6577206f776e657220697320746865207a65726f206160408201527f6464726573730000000000000000000000000000000000000000000000000000606082015260800190565b6020808252600d908201527f496e76616c696420657175697000000000000000000000000000000000000000604082015260600190565b6020808252601b908201527f536166654d6174683a206164646974696f6e206f766572666c6f770000000000604082015260600190565b60208082526026908201527f416464726573733a20696e73756666696369656e742062616c616e636520666f60408201527f722063616c6c0000000000000000000000000000000000000000000000000000606082015260800190565b6020808252601b908201527f4f6e6c79204e4654206f776e65722063616e2072656769737465720000000000604082015260600190565b6020808252601a908201527f536166654d6174683a206469766973696f6e206279207a65726f000000000000604082015260600190565b60208082526011908201527f4974656d206e6f74206571756970706564000000000000000000000000000000604082015260600190565b60208082526024908201527f43616e206f6e6c7920657175697020696e206c656674206f722072696768742060408201527f68616e6400000000000000000000000000000000000000000000000000000000606082015260800190565b6020808252601b908201527f43616e206f6e6c79206571756970206f6e2073686f756c646572730000000000604082015260600190565b6020808252601b908201527f43616e206f6e6c7920657175697020696e206c6566742068616e640000000000604082015260600190565b6020808252601c908201527f43616e206f6e6c7920657175697020696e2072696768742068616e6400000000604082015260600190565b60208082526021908201527f536166654d6174683a206d756c7469706c69636174696f6e206f766572666c6f60408201527f7700000000000000000000000000000000000000000000000000000000000000606082015260800190565b60208082526017908201527f43616e206f6e6c79206571756970206f6e207761697374000000000000000000604082015260600190565b60208082526011908201527f4e6f74206f776e6572206f722063686566000000000000000000000000000000604082015260600190565b60208082526015908201527f536c6f7420616c72656164792065717569707065640000000000000000000000604082015260600190565b60208082526016908201527f43616e206f6e6c79206571756970206f6e206e65636b00000000000000000000604082015260600190565b6020808252818101527f4f776e61626c653a2063616c6c6572206973206e6f7420746865206f776e6572604082015260600190565b60208082526013908201527f55736572206d7573742062652061637469766500000000000000000000000000604082015260600190565b60208082526016908201527f43616e206f6e6c79206571756970206f6e20626f647900000000000000000000604082015260600190565b6020808252601d908201527f416464726573733a2063616c6c20746f206e6f6e2d636f6e7472616374000000604082015260600190565b60208082526016908201527f43616e206f6e6c79206571756970206f6e206865616400000000000000000000604082015260600190565b6020808252601f908201527f5265656e7472616e637947756172643a207265656e7472616e742063616c6c00604082015260600190565b60208082526016908201527f43616e206f6e6c79206571756970206f6e206665657400000000000000000000604082015260600190565b60208082526019908201527f43616e206f6e6c79206571756970206f6e207472696e6b657400000000000000604082015260600190565b60208082526017908201527f43616e206f6e6c79206571756970206f6e2068616e6473000000000000000000604082015260600190565b6000602080835260a0830161ffff808651168386015280838701511660408601525060408501516019811061395c57fe5b80606086015250606085015160808086015281815161397b81856139b5565b9285019350859291505b808310156139aa57613998828551613092565b91508484019350600183019250613985565b509695505050505050565b90815260200190565b9182526001600160a01b0316602082015260400190565b918252602082015260400190565b60ff91909116815260200190565b60405181810167ffffffffffffffff81118282101715613a1057600080fd5b604052919050565b60005b83811015613a33578181015183820152602001613a1b565b838111156113f45750506000910152565b6001600160a01b038116811461170857600080fd5b801515811461170857600080fd5b60ff8116811461170857600080fdfe5b4261727261636b735d5b467572795d206368616e6365546f4c6f7365486172766573743a205b4261727261636b735d5b467572795d206368616e6365546f53656e6448617276657374546f48696464656e506f6f6c3a205b4261727261636b735d5b537465656c5d2068617276657374466565546f6b656e3a205b4261727261636b735d5b537465656c5d206861727665737446656550657263656e743a20a2646970667358221220cd19835f662fd8dd856e4e3b59b47f6ad3c15760fc6f8d2af8b2836d0f9d018864736f6c634300060c0033",
  "linkReferences": {
    "src/ArcaneItemLibraryV1.sol": {
      "ArcaneItemLibraryV1": [
        {
          "length": 20,
          "start": 2776
        },
        {
          "length": 20,
          "start": 4530
        },
        {
          "length": 20,
          "start": 5002
        },
        {
          "length": 20,
          "start": 7312
        }
      ]
    }
  },
  "deployedLinkReferences": {
    "src/ArcaneItemLibraryV1.sol": {
      "ArcaneItemLibraryV1": [
        {
          "length": 20,
          "start": 1930
        },
        {
          "length": 20,
          "start": 3684
        },
        {
          "length": 20,
          "start": 4156
        },
        {
          "length": 20,
          "start": 6466
        }
      ]
    }
  }
}