{
  "_format": "hh-sol-artifact-1",
  "contractName": "ArcaneTokenTimelock",
  "sourceName": "src/ArcaneTokenTimelock.sol",
  "abi": [
    {
      "inputs": [
        {
          "internalType": "contract IBEP20",
          "name": "_token",
          "type": "address"
        },
        {
          "internalType": "address",
          "name": "_beneficiary",
          "type": "address"
        }
      ],
      "stateMutability": "nonpayable",
      "type": "constructor"
    },
    {
      "inputs": [],
      "name": "beneficiary",
      "outputs": [
        {
          "internalType": "address",
          "name": "",
          "type": "address"
        }
      ],
      "stateMutability": "view",
      "type": "function"
    },
    {
      "inputs": [],
      "name": "release",
      "outputs": [],
      "stateMutability": "nonpayable",
      "type": "function"
    },
    {
      "inputs": [],
      "name": "releaseTime",
      "outputs": [
        {
          "internalType": "uint256",
          "name": "",
          "type": "uint256"
        }
      ],
      "stateMutability": "view",
      "type": "function"
    },
    {
      "inputs": [
        {
          "internalType": "contract IBEP20",
          "name": "_token",
          "type": "address"
        }
      ],
      "name": "specificRelease",
      "outputs": [],
      "stateMutability": "nonpayable",
      "type": "function"
    },
    {
      "inputs": [],
      "name": "token",
      "outputs": [
        {
          "internalType": "contract IBEP20",
          "name": "",
          "type": "address"
        }
      ],
      "stateMutability": "view",
      "type": "function"
    }
  ],
  "bytecode": "0x60806040524262ed4e000160015534801561001957600080fd5b506040516108013803806108018339818101604052604081101561003c57600080fd5b508051602090910151600080546001600160a01b039384166001600160a01b0319918216179091556002805493909216921691909117905561077e806100836000396000f3fe608060405234801561001057600080fd5b50600436106100675760003560e01c8063b91d400111610050578063b91d40011461009a578063ba1eedba146100b4578063fc0c546a146100da57610067565b806338af3eed1461006c57806386d1a69f14610090575b600080fd5b6100746100e2565b604080516001600160a01b039092168252519081900360200190f35b6100986100f1565b005b6100a2610221565b60408051918252519081900360200190f35b610098600480360360208110156100ca57600080fd5b50356001600160a01b0316610227565b61007461033f565b6002546001600160a01b031681565b6001544210156101325760405162461bcd60e51b81526004018080602001828103825260328152602001806106a46032913960400191505060405180910390fd5b60008054604080517f70a0823100000000000000000000000000000000000000000000000000000000815230600482015290516001600160a01b03909216916370a0823191602480820192602092909190829003018186803b15801561019757600080fd5b505afa1580156101ab573d6000803e3d6000fd5b505050506040513d60208110156101c157600080fd5b50519050806102015760405162461bcd60e51b81526004018080602001828103825260238152602001806107266023913960400191505060405180910390fd5b60025460005461021e916001600160a01b0391821691168361034e565b50565b60015481565b6001544210156102685760405162461bcd60e51b81526004018080602001828103825260328152602001806106a46032913960400191505060405180910390fd5b6000816001600160a01b03166370a08231306040518263ffffffff1660e01b815260040180826001600160a01b0316815260200191505060206040518083038186803b1580156102b757600080fd5b505afa1580156102cb573d6000803e3d6000fd5b505050506040513d60208110156102e157600080fd5b50519050806103215760405162461bcd60e51b81526004018080602001828103825260238152602001806107266023913960400191505060405180910390fd5b60025461033b906001600160a01b0384811691168361034e565b5050565b6000546001600160a01b031681565b604080516001600160a01b038416602482015260448082018490528251808303909101815260649091019091526020810180517bffffffffffffffffffffffffffffffffffffffffffffffffffffffff167fa9059cbb000000000000000000000000000000000000000000000000000000001790526103ce9084906103d3565b505050565b6060610428826040518060400160405280602081526020017f5361666542455032303a206c6f772d6c6576656c2063616c6c206661696c6564815250856001600160a01b03166104849092919063ffffffff16565b8051909150156103ce5780806020019051602081101561044757600080fd5b50516103ce5760405162461bcd60e51b815260040180806020018281038252602a8152602001806106d6602a913960400191505060405180910390fd5b6060610493848460008561049d565b90505b9392505050565b6060824710156104de5760405162461bcd60e51b81526004018080602001828103825260268152602001806107006026913960400191505060405180910390fd5b6104e7856105f9565b610538576040805162461bcd60e51b815260206004820152601d60248201527f416464726573733a2063616c6c20746f206e6f6e2d636f6e7472616374000000604482015290519081900360640190fd5b60006060866001600160a01b031685876040518082805190602001908083835b602083106105775780518252601f199092019160209182019101610558565b6001836020036101000a03801982511681845116808217855250505050505090500191505060006040518083038185875af1925050503d80600081146105d9576040519150601f19603f3d011682016040523d82523d6000602084013e6105de565b606091505b50915091506105ee8282866105ff565b979650505050505050565b3b151590565b6060831561060e575081610496565b82511561061e5782518084602001fd5b8160405162461bcd60e51b81526004018080602001828103825283818151815260200191508051906020019080838360005b83811015610668578181015183820152602001610650565b50505050905090810190601f1680156106955780820380516001836020036101000a031916815260200191505b509250505060405180910390fdfe546f6b656e54696d656c6f636b3a2063757272656e742074696d65206973206265666f72652072656c656173652074696d655361666542455032303a204245503230206f7065726174696f6e20646964206e6f742073756363656564416464726573733a20696e73756666696369656e742062616c616e636520666f722063616c6c546f6b656e54696d656c6f636b3a206e6f20746f6b656e7320746f2072656c65617365a2646970667358221220e330aa584441a81b7807fa928dab89ab85767e4e40045acf1013db5f6daac64f64736f6c634300060c0033",
  "linkReferences": {},
  "deployedLinkReferences": {}
}