{
  "_format": "hh-sol-artifact-1",
  "contractName": "ArcaneBlacksmithV4",
  "sourceName": "src/ArcaneBlacksmithV4.sol",
  "abi": [
    {
      "inputs": [
        {
          "internalType": "contract ArcaneItemMintingStation",
          "name": "_itemMintingStation",
          "type": "address"
        },
        {
          "internalType": "contract IBEP20",
          "name": "_runeToken",
          "type": "address"
        },
        {
          "internalType": "uint256",
          "name": "_tokenPrice",
          "type": "uint256"
        },
        {
          "internalType": "string",
          "name": "_ipfsHash",
          "type": "string"
        },
        {
          "internalType": "uint256",
          "name": "_startBlockNumber",
          "type": "uint256"
        }
      ],
      "stateMutability": "nonpayable",
      "type": "constructor"
    },
    {
      "anonymous": false,
      "inputs": [
        {
          "indexed": true,
          "internalType": "address",
          "name": "to",
          "type": "address"
        },
        {
          "indexed": true,
          "internalType": "uint256",
          "name": "tokenId",
          "type": "uint256"
        },
        {
          "indexed": true,
          "internalType": "uint16",
          "name": "itemId",
          "type": "uint16"
        }
      ],
      "name": "ItemMint",
      "type": "event"
    },
    {
      "anonymous": false,
      "inputs": [
        {
          "indexed": true,
          "internalType": "address",
          "name": "previousOwner",
          "type": "address"
        },
        {
          "indexed": true,
          "internalType": "address",
          "name": "newOwner",
          "type": "address"
        }
      ],
      "name": "OwnershipTransferred",
      "type": "event"
    },
    {
      "inputs": [
        {
          "internalType": "uint256",
          "name": "_amount",
          "type": "uint256"
        }
      ],
      "name": "claimFee",
      "outputs": [],
      "stateMutability": "nonpayable",
      "type": "function"
    },
    {
      "inputs": [
        {
          "internalType": "uint8",
          "name": "_id",
          "type": "uint8"
        }
      ],
      "name": "getRune",
      "outputs": [
        {
          "internalType": "address",
          "name": "",
          "type": "address"
        }
      ],
      "stateMutability": "view",
      "type": "function"
    },
    {
      "inputs": [
        {
          "internalType": "uint16",
          "name": "",
          "type": "uint16"
        }
      ],
      "name": "itemIdCount",
      "outputs": [
        {
          "internalType": "uint16",
          "name": "",
          "type": "uint16"
        }
      ],
      "stateMutability": "view",
      "type": "function"
    },
    {
      "inputs": [],
      "name": "itemMintingStation",
      "outputs": [
        {
          "internalType": "contract ArcaneItemMintingStation",
          "name": "",
          "type": "address"
        }
      ],
      "stateMutability": "view",
      "type": "function"
    },
    {
      "inputs": [],
      "name": "owner",
      "outputs": [
        {
          "internalType": "address",
          "name": "",
          "type": "address"
        }
      ],
      "stateMutability": "view",
      "type": "function"
    },
    {
      "inputs": [
        {
          "internalType": "address",
          "name": "",
          "type": "address"
        },
        {
          "internalType": "address",
          "name": "",
          "type": "address"
        },
        {
          "internalType": "address",
          "name": "",
          "type": "address"
        },
        {
          "internalType": "address",
          "name": "",
          "type": "address"
        }
      ],
      "name": "recipes",
      "outputs": [
        {
          "internalType": "uint16",
          "name": "version",
          "type": "uint16"
        },
        {
          "internalType": "uint16",
          "name": "itemId",
          "type": "uint16"
        },
        {
          "internalType": "enum ArcaneItemLibraryV1.ArcaneItemType",
          "name": "itemType",
          "type": "uint8"
        }
      ],
      "stateMutability": "view",
      "type": "function"
    },
    {
      "inputs": [],
      "name": "renounceOwnership",
      "outputs": [],
      "stateMutability": "nonpayable",
      "type": "function"
    },
    {
      "inputs": [],
      "name": "runeToken",
      "outputs": [
        {
          "internalType": "contract IBEP20",
          "name": "",
          "type": "address"
        }
      ],
      "stateMutability": "view",
      "type": "function"
    },
    {
      "inputs": [
        {
          "internalType": "uint8",
          "name": "",
          "type": "uint8"
        }
      ],
      "name": "runes",
      "outputs": [
        {
          "internalType": "address",
          "name": "",
          "type": "address"
        }
      ],
      "stateMutability": "view",
      "type": "function"
    },
    {
      "inputs": [
        {
          "internalType": "uint16",
          "name": "_itemId",
          "type": "uint16"
        },
        {
          "internalType": "string",
          "name": "_itemIdJson",
          "type": "string"
        }
      ],
      "name": "setItemJson",
      "outputs": [],
      "stateMutability": "nonpayable",
      "type": "function"
    },
    {
      "inputs": [
        {
          "internalType": "bool",
          "name": "_mintingEnabled",
          "type": "bool"
        }
      ],
      "name": "setMintingEnabled",
      "outputs": [],
      "stateMutability": "nonpayable",
      "type": "function"
    },
    {
      "inputs": [
        {
          "internalType": "address",
          "name": "_item1",
          "type": "address"
        },
        {
          "internalType": "address",
          "name": "_item2",
          "type": "address"
        },
        {
          "internalType": "address",
          "name": "_item3",
          "type": "address"
        },
        {
          "internalType": "address",
          "name": "_item4",
          "type": "address"
        },
        {
          "internalType": "uint16",
          "name": "_version",
          "type": "uint16"
        },
        {
          "internalType": "uint16",
          "name": "_itemId",
          "type": "uint16"
        },
        {
          "internalType": "enum ArcaneItemLibraryV1.ArcaneItemType",
          "name": "_itemType",
          "type": "uint8"
        }
      ],
      "name": "setRecipe",
      "outputs": [],
      "stateMutability": "nonpayable",
      "type": "function"
    },
    {
      "inputs": [
        {
          "internalType": "address",
          "name": "_item1",
          "type": "address"
        },
        {
          "internalType": "address",
          "name": "_item2",
          "type": "address"
        },
        {
          "internalType": "address",
          "name": "_item3",
          "type": "address"
        },
        {
          "internalType": "address",
          "name": "_item4",
          "type": "address"
        },
        {
          "internalType": "uint8",
          "name": "_index",
          "type": "uint8"
        },
        {
          "internalType": "uint8",
          "name": "_variant",
          "type": "uint8"
        },
        {
          "internalType": "uint16",
          "name": "_minRange",
          "type": "uint16"
        },
        {
          "internalType": "uint16",
          "name": "_maxRange",
          "type": "uint16"
        },
        {
          "internalType": "uint16",
          "name": "_difficulty",
          "type": "uint16"
        }
      ],
      "name": "setRecipeMod",
      "outputs": [],
      "stateMutability": "nonpayable",
      "type": "function"
    },
    {
      "inputs": [
        {
          "internalType": "uint8",
          "name": "_rune1Index",
          "type": "uint8"
        },
        {
          "internalType": "address",
          "name": "_rune1Address",
          "type": "address"
        },
        {
          "internalType": "uint8",
          "name": "_rune2Index",
          "type": "uint8"
        },
        {
          "internalType": "address",
          "name": "_rune2Address",
          "type": "address"
        },
        {
          "internalType": "uint8",
          "name": "_rune3Index",
          "type": "uint8"
        },
        {
          "internalType": "address",
          "name": "_rune3Address",
          "type": "address"
        },
        {
          "internalType": "uint8",
          "name": "_rune4Index",
          "type": "uint8"
        },
        {
          "internalType": "address",
          "name": "_rune4Address",
          "type": "address"
        }
      ],
      "name": "setRuneAddresses",
      "outputs": [],
      "stateMutability": "nonpayable",
      "type": "function"
    },
    {
      "inputs": [
        {
          "internalType": "uint256",
          "name": "_newStartBlockNumber",
          "type": "uint256"
        }
      ],
      "name": "setStartBlockNumber",
      "outputs": [],
      "stateMutability": "nonpayable",
      "type": "function"
    },
    {
      "inputs": [],
      "name": "startBlockNumber",
      "outputs": [
        {
          "internalType": "uint256",
          "name": "",
          "type": "uint256"
        }
      ],
      "stateMutability": "view",
      "type": "function"
    },
    {
      "inputs": [],
      "name": "tokenPrice",
      "outputs": [
        {
          "internalType": "uint256",
          "name": "",
          "type": "uint256"
        }
      ],
      "stateMutability": "view",
      "type": "function"
    },
    {
      "inputs": [
        {
          "internalType": "address",
          "name": "newOwner",
          "type": "address"
        }
      ],
      "name": "transferOwnership",
      "outputs": [],
      "stateMutability": "nonpayable",
      "type": "function"
    },
    {
      "inputs": [
        {
          "internalType": "address",
          "name": "_item1",
          "type": "address"
        },
        {
          "internalType": "address",
          "name": "_item2",
          "type": "address"
        },
        {
          "internalType": "address",
          "name": "_item3",
          "type": "address"
        },
        {
          "internalType": "address",
          "name": "_item4",
          "type": "address"
        },
        {
          "internalType": "uint16",
          "name": "rand",
          "type": "uint16"
        }
      ],
      "name": "transmute",
      "outputs": [],
      "stateMutability": "nonpayable",
      "type": "function"
    },
    {
      "inputs": [
        {
          "internalType": "string",
          "name": "_ipfsHash",
          "type": "string"
        }
      ],
      "name": "updateIpfsHash",
      "outputs": [],
      "stateMutability": "nonpayable",
      "type": "function"
    },
    {
      "inputs": [
        {
          "internalType": "uint256",
          "name": "_newTokenPrice",
          "type": "uint256"
        }
      ],
      "name": "updateTokenPrice",
      "outputs": [],
      "stateMutability": "nonpayable",
      "type": "function"
    },
    {
      "inputs": [],
      "name": "vaultAddress",
      "outputs": [
        {
          "internalType": "address",
          "name": "",
          "type": "address"
        }
      ],
      "stateMutability": "view",
      "type": "function"
    },
    {
      "inputs": [],
      "name": "version",
      "outputs": [
        {
          "internalType": "uint8",
          "name": "",
          "type": "uint8"
        }
      ],
      "stateMutability": "view",
      "type": "function"
    }
  ],
  "bytecode": "0x60806040526009805460ff191660011790553480156200001e57600080fd5b50604051620027833803806200278383398101604081905262000041916200033d565b60006200004d6200029d565b600080546001600160a01b0319166001600160a01b0383169081178255604051929350917f8be0079c531659141344cd1fd0a4f28419497f9722a3daafe3b4186f6b6457e0908290a350600180546001600160a01b038088166001600160a01b031992831617909255600280549287169290911691909117905560048390558151620000e1906005906020850190620002a1565b5060035550506009805474602a27bbf954b6945534a84c8c88fb8ca9e92b7f00610100600160a81b03199091161790555050600b6020527fdf7de25b7f1fd6d0b5205f0e18f1f35bd7b8d84cce336588d184533ce43a6f7680546001600160a01b031990811673210c14fbecc2bd9b6231199470da12ad45f64d45179091557f72c6bfb7988af3a1efa6568f02a999bc52252641c659d85961ca3d372b57d5cf8054821673e00b8109bcb70b1edeb4cf87914efc28050209951790557fa50eece07c7db1631545c0069bd8f5f54d5935e215d59097edf258a44ba916348054821673125a3e00a9a11317d4d95349e68ba0bc744addc41790557f64c15cc42be7899b001f818cf4433057002112c418d1d3a67cd5cb453051d33e8054821673ef4f66506aaaeeff6d10775ad6f994105d8f11b41790557febae6141bae5521e99e0a8d610356b0f501fea54980b59c84841db43ba7204f48054821673098afb73f809d8fe145363f802113e3825d7490c17905560066000527f0387e9d1203691d8e3362a7e4c6723de358a4010d7f31ecbec3fbfc61d1c75fc8054909116735de72a6fca2144aa134650bbea92cc919244f05d1790556200045b565b3390565b828054600181600116156101000203166002900490600052602060002090601f016020900481019282601f10620002e457805160ff191683800117855562000314565b8280016001018555821562000314579182015b8281111562000314578251825591602001919060010190620002f7565b506200032292915062000326565b5090565b5b8082111562000322576000815560010162000327565b600080600080600060a0868803121562000355578081fd5b8551620003628162000442565b80955050602080870151620003778162000442565b6040880151606089015191965094506001600160401b03808211156200039b578384fd5b818901915089601f830112620003af578384fd5b815181811115620003be578485fd5b604051601f8201601f1916810185018381118282101715620003de578687fd5b60405281815283820185018c1015620003f5578586fd5b8592505b81831015620004185783830185015181840186015291840191620003f9565b818311156200042957858583830101525b8096505050505050608086015190509295509295909350565b6001600160a01b03811681146200045857600080fd5b50565b612318806200046b6000396000f3fe608060405234801561001057600080fd5b506004361061018d5760003560e01c8063715018a6116100e3578063b4b15b431161008c578063e68958da11610066578063e68958da14610304578063f2fde38b14610317578063f667526a1461032a5761018d565b8063b4b15b43146102cb578063b5812e3c146102de578063ced2be7c146102f15761018d565b80638da5cb5b116100bd5780638da5cb5b146102a8578063988b280c146102b05780639fd53f2b146102c35761018d565b8063715018a6146102785780637ff9b59614610280578063807f82f3146102885761018d565b8063498a4c2d1161014557806361e604dd1161011f57806361e604dd1461023b578063676c0d77146102435780636abe5439146102565761018d565b8063498a4c2d146101fe5780634ea3871a1461021357806354fd4d50146102265761018d565b80633fc017bf116101765780633fc017bf146101ba578063430bf08a146101e357806343b90fd3146101eb5761018d565b80630913348f1461019257806324173597146101a7575b600080fd5b6101a56101a0366004611a89565b61033d565b005b6101a56101b5366004611bbf565b61039c565b6101cd6101c8366004611bef565b6103ff565b6040516101da9190611ef3565b60405180910390f35b6101cd610421565b6101a56101f93660046119a1565b610435565b610206610518565b6040516101da9190612260565b6101a5610221366004611a51565b61051e565b61022e610570565b6040516101da9190612269565b6101cd610575565b6101a5610251366004611bbf565b610584565b610269610264366004611849565b6105c8565b6040516101da93929190612235565b6101a5610610565b610206610699565b61029b610296366004611b24565b61069f565b6040516101da9190612226565b6101cd6106b5565b6101cd6102be366004611bef565b6106c4565b6101cd6106df565b6101a56102d9366004611b40565b6106ee565b6101a56102ec366004611909565b61077e565b6101a56102ff3660046118a0565b610847565b6101a5610312366004611c0a565b610be8565b6101a561032536600461182e565b610d1d565b6101a5610338366004611bbf565b610ddd565b610345610e3d565b6001600160a01b03166103566106b5565b6001600160a01b0316146103855760405162461bcd60e51b815260040161037c9061214c565b60405180910390fd5b8051610398906005906020840190611761565b5050565b6103a4610e3d565b6001600160a01b03166103b56106b5565b6001600160a01b0316146103db5760405162461bcd60e51b815260040161037c9061214c565b4381116103fa5760405162461bcd60e51b815260040161037c90612115565b600355565b60ff81166000908152600b60205260409020546001600160a01b03165b919050565b60095461010090046001600160a01b031681565b61043d610e3d565b6001600160a01b031661044e6106b5565b6001600160a01b0316146104745760405162461bcd60e51b815260040161037c9061214c565b6001600160a01b0398891660009081526007602090815260408083209a8c168352998152898220988b16825297885288812096909916895294865286882060ff948516895260010190955294909520805460ff1916959091169490941762ffff00191661010061ffff948516021764ffff00000019166301000000928416929092029190911766ffff00000000001916650100000000009290911691909102179055565b60035481565b610526610e3d565b6001600160a01b03166105376106b5565b6001600160a01b03161461055d5760405162461bcd60e51b815260040161037c9061214c565b6009805460ff1916911515919091179055565b600281565b6001546001600160a01b031681565b61058c610e3d565b6001600160a01b031661059d6106b5565b6001600160a01b0316146105c35760405162461bcd60e51b815260040161037c9061214c565b600455565b600760209081526000948552604080862082529385528385208152918452828420909152825290205461ffff8082169162010000810490911690640100000000900460ff1683565b610618610e3d565b6001600160a01b03166106296106b5565b6001600160a01b03161461064f5760405162461bcd60e51b815260040161037c9061214c565b600080546040516001600160a01b03909116907f8be0079c531659141344cd1fd0a4f28419497f9722a3daafe3b4186f6b6457e0908390a3600080546001600160a01b0319169055565b60045481565b60086020526000908152604090205461ffff1681565b6000546001600160a01b031690565b600b602052600090815260409020546001600160a01b031681565b6002546001600160a01b031681565b6106f6610e3d565b6001600160a01b03166107076106b5565b6001600160a01b03161461072d5760405162461bcd60e51b815260040161037c9061214c565b6005828260405160200161074393929190611d3b565b60408051601f1981840301815291815261ffff8516600090815260066020908152919020825161077893919290910190611761565b50505050565b610786610e3d565b6001600160a01b03166107976106b5565b6001600160a01b0316146107bd5760405162461bcd60e51b815260040161037c9061214c565b6001600160a01b0387811660009081526007602090815260408083208a85168452825280832089851684528252808320938816835292905220805461ffff848116620100000263ffff00001991871661ffff1990931692909217161780825582919064ff00000000191664010000000083601881111561083957fe5b021790555050505050505050565b60095460ff16151560011461086e5760405162461bcd60e51b815260040161037c90612181565b6000610878610e3d565b6001600160a01b0387811660009081526007602090815260408083208a8516845282528083208985168452825280832093881683529290522080549192509062010000900461ffff166108dd5760405162461bcd60e51b815260040161037c90611f90565b60035443116108fe5760405162461bcd60e51b815260040161037c906121b8565b6004541561093057600954600454600254610930926001600160a01b0391821692869261010090920490911690610e41565b6001600160a01b0387161561096957600954610969906001600160a01b0389811691859161010090910416670de0b6b3a7640000610e41565b6001600160a01b038616156109a2576009546109a2906001600160a01b0388811691859161010090910416670de0b6b3a7640000610e41565b6001600160a01b038516156109db576009546109db906001600160a01b0387811691859161010090910416670de0b6b3a7640000610e41565b6001600160a01b03841615610a1457600954610a14906001600160a01b0386811691859161010090910416670de0b6b3a7640000610e41565b805462010000900461ffff166000908152600660209081526040918290208054835160026101006001841615026000190190921691909104601f81018490048402820184019094528381526060939092830182828015610ab55780601f10610a8a57610100808354040283529160200191610ab5565b820191906000526020600020905b815481529060010190602001808311610a9857829003601f168201915b5050855493945050506201000090910461ffff1690506000610ad78487610ec6565b6001546040517fcf0504740000000000000000000000000000000000000000000000000000000081529192506000916001600160a01b039091169063cf05047490610b2c908990889088908890600401611f2b565b602060405180830381600087803b158015610b4657600080fd5b505af1158015610b5a573d6000803e3d6000fd5b505050506040513d601f19601f82011682018060405250810190610b7e9190611bd7565b9050818114610b9f5760405162461bcd60e51b815260040161037c90612081565b8261ffff1681876001600160a01b03167fbc6001cfe06d9841f1d11a60a0468bcdcb5552dc7d2c4d248bdeccc60ed1a97e60405160405180910390a45050505050505050505050565b610bf0610e3d565b6001600160a01b0316610c016106b5565b6001600160a01b031614610c275760405162461bcd60e51b815260040161037c9061214c565b6001600160a01b03871615610c625760ff88166000908152600b6020526040902080546001600160a01b0319166001600160a01b0389161790555b6001600160a01b03851615610c9d5760ff86166000908152600b6020526040902080546001600160a01b0319166001600160a01b0387161790555b6001600160a01b03831615610cd85760ff84166000908152600b6020526040902080546001600160a01b0319166001600160a01b0385161790555b6001600160a01b03811615610d135760ff82166000908152600b6020526040902080546001600160a01b0319166001600160a01b0383161790555b5050505050505050565b610d25610e3d565b6001600160a01b0316610d366106b5565b6001600160a01b031614610d5c5760405162461bcd60e51b815260040161037c9061214c565b6001600160a01b038116610d825760405162461bcd60e51b815260040161037c90612024565b600080546040516001600160a01b03808516939216917f8be0079c531659141344cd1fd0a4f28419497f9722a3daafe3b4186f6b6457e091a3600080546001600160a01b0319166001600160a01b0392909216919091179055565b610de5610e3d565b6001600160a01b0316610df66106b5565b6001600160a01b031614610e1c5760405162461bcd60e51b815260040161037c9061214c565b610e3a610e27610e3d565b6002546001600160a01b03169083611238565b50565b3390565b610778846323b872dd60e01b858585604051602401610e6293929190611f07565b60408051601f198184030181529190526020810180517bffffffffffffffffffffffffffffffffffffffffffffffffffffffff167fffffffff000000000000000000000000000000000000000000000000000000009093169290921790915261125c565b60006006600a54118015610ee457506006600a5481610ee157fe5b06155b610ef357600a54600201610efa565b6002600a54035b600a556000808052600184016020526040902054606090610100810461ffff90811663010000009092041614610f8c576000808052600185016020526040902054600a54610f8791610f679161ffff610100830481166301000000909304811692909203909116906112eb565b6000808052600187016020526040902054610100900461ffff1601611336565b610faf565b6000808052600185016020526040902054610faf90610100900461ffff16611336565b600160008181529086016020526040902054909150606090610100810461ffff9081166301000000909204161461104457600160008181529086016020526040902054600a5461103f9161101e9161ffff610100830481166301000000909304811692909203909116906112eb565b600160008181529088016020526040902054610100900461ffff1601611336565b611068565b60016000818152908601602052604090205461106890610100900461ffff16611336565b60026000908152600187016020526040902054909150606090610100810461ffff908116630100000090920416146111005760026000908152600187016020526040902054600a546110fb916110d99161ffff610100830481166301000000909304811692909203909116906112eb565b60026000908152600189016020526040902054610100900461ffff1601611336565b611125565b6002600090815260018701602052604090205461112590610100900461ffff16611336565b865490915061122c9061114c906111459062010000900461ffff16611336565b6005611486565b87546111789061117190640100000000900460ff16601881111561116c57fe5b611336565b6002611486565b600080805260018a0160205260409020546111959060ff16611336565b6111a0876003611486565b60016000818152908c0160205260409020546111be9060ff16611336565b6111c9886003611486565b6002600090815260018e0160205260409020546111e89060ff16611336565b6111f3896003611486565b6112008e61ffff16611336565b60405160200161121899989796959493929190611db4565b604051602081830303815290604052611522565b93505050505b92915050565b6112578363a9059cbb60e01b8484604051602401610e62929190611f64565b505050565b60606112b1826040518060400160405280602081526020017f5361666542455032303a206c6f772d6c6576656c2063616c6c206661696c6564815250856001600160a01b03166115a49092919063ffffffff16565b80519091501561125757808060200190518101906112cf9190611a6d565b6112575760405162461bcd60e51b815260040161037c90611fc7565b6000600182019150826001014244338560405160200161130e9493929190611ec6565b6040516020818303038152906040528051906020012060001c8161132e57fe5b069392505050565b606081611377575060408051808201909152600181527f3000000000000000000000000000000000000000000000000000000000000000602082015261041c565b60408051606480825260a082019092526060908260208201818036833701905050905060005b84156113e3578151600a808704966001840193919006916030830160f81b91859181106113c657fe5b60200101906001600160f81b031916908160001a9053505061139d565b60608167ffffffffffffffff811180156113fc57600080fd5b506040519080825280601f01601f191660200182016040528015611427576020820181803683370190505b50905060005b8281101561147c57836001828503038151811061144657fe5b602001015160f81c60f81b82828151811061145d57fe5b60200101906001600160f81b031916908160001a90535060010161142d565b5095945050505050565b815160609060ff8316811061149e5783915050611232565b8260ff168160090110156114b157600080fd5b60408051808201909152600981527f303030303030303030000000000000000000000000000000000000000000000060208201526114f7600060ff8616849003836115bd565b85604051602001611509929190611d0c565b6040516020818303038152906040529250505092915050565b600080805b835181101561159d57603084828151811061153e57fe5b016020015160f81c108015906115685750603984828151811061155d57fe5b016020015160f81c11155b1561159557603084828151811061157b57fe5b602001015160f81c60f81b60f81c0360ff1682600a020191505b600101611527565b5092915050565b60606115b38484600085611661565b90505b9392505050565b60608084840367ffffffffffffffff811180156115d957600080fd5b506040519080825280601f01601f191660200182016040528015611604576020820181803683370190505b50905060005b85850381101561165857838682018151811061162257fe5b602001015160f81c60f81b82828151811061163957fe5b60200101906001600160f81b031916908160001a90535060010161160a565b50949350505050565b6060824710156116835760405162461bcd60e51b815260040161037c906120b8565b61168c85611722565b6116a85760405162461bcd60e51b815260040161037c906121ef565b60006060866001600160a01b031685876040516116c59190611cf0565b60006040518083038185875af1925050503d8060008114611702576040519150601f19603f3d011682016040523d82523d6000602084013e611707565b606091505b5091509150611717828286611728565b979650505050505050565b3b151590565b606083156117375750816115b6565b8251156117475782518084602001fd5b8160405162461bcd60e51b815260040161037c9190611f7d565b828054600181600116156101000203166002900490600052602060002090601f016020900481019282601f106117a257805160ff19168380011785556117cf565b828001600101855582156117cf579182015b828111156117cf5782518255916020019190600101906117b4565b506117db9291506117df565b5090565b5b808211156117db57600081556001016117e0565b80356001600160a01b038116811461123257600080fd5b803561ffff8116811461123257600080fd5b803560ff8116811461123257600080fd5b60006020828403121561183f578081fd5b6115b683836117f4565b6000806000806080858703121561185e578283fd5b61186886866117f4565b935061187786602087016117f4565b925061188686604087016117f4565b915061189586606087016117f4565b905092959194509250565b600080600080600060a086880312156118b7578081fd5b6118c187876117f4565b94506118d087602088016117f4565b93506118df87604088016117f4565b92506118ee87606088016117f4565b91506118fd876080880161180b565b90509295509295909350565b600080600080600080600060e0888a031215611923578182fd5b873561192e816122af565b9650602088013561193e816122af565b9550604088013561194e816122af565b9450606088013561195e816122af565b9350608088013561196e816122d2565b925060a088013561197e816122d2565b915060c088013560198110611991578182fd5b8091505092959891949750929550565b60008060008060008060008060006101208a8c0312156119bf578182fd5b6119c98b8b6117f4565b98506119d88b60208c016117f4565b97506119e78b60408c016117f4565b96506119f68b60608c016117f4565b9550611a058b60808c0161181d565b9450611a148b60a08c0161181d565b9350611a238b60c08c0161180b565b9250611a328b60e08c0161180b565b9150611a428b6101008c0161180b565b90509295985092959850929598565b600060208284031215611a62578081fd5b81356115b6816122c4565b600060208284031215611a7e578081fd5b81516115b6816122c4565b600060208284031215611a9a578081fd5b813567ffffffffffffffff80821115611ab1578283fd5b818401915084601f830112611ac4578283fd5b813581811115611ad2578384fd5b604051601f8201601f191681016020018381118282101715611af2578586fd5b604052818152838201602001871015611b09578485fd5b611b1a826020830160208701612277565b9695505050505050565b600060208284031215611b35578081fd5b81356115b6816122d2565b600080600060408486031215611b54578283fd5b611b5e858561180b565b9250602084013567ffffffffffffffff80821115611b7a578384fd5b818601915086601f830112611b8d578384fd5b813581811115611b9b578485fd5b876020828501011115611bac578485fd5b6020830194508093505050509250925092565b600060208284031215611bd0578081fd5b5035919050565b600060208284031215611be8578081fd5b5051919050565b600060208284031215611c00578081fd5b6115b6838361181d565b600080600080600080600080610100898b031215611c26578182fd5b611c308a8a61181d565b9750611c3f8a60208b016117f4565b9650611c4e8a60408b0161181d565b9550611c5d8a60608b016117f4565b9450611c6c8a60808b0161181d565b9350611c7b8a60a08b016117f4565b9250611c8a8a60c08b0161181d565b9150611c998a60e08b016117f4565b90509295985092959890939650565b60008151611cba818560208601612283565b9290920192915050565b60008151808452611cdc816020860160208601612283565b601f01601f19169290920160200192915050565b60008251611d02818460208701612283565b9190910192915050565b60008351611d1e818460208801612283565b835190830190611d32818360208801612283565b01949350505050565b6000808554600180821660008114611d5a5760018114611d7157611da0565b60ff198316865260028304607f1686019350611da0565b600283048986526020808720875b83811015611d985781548a820152908501908201611d7f565b505050860193505b505050838582379092019182525092915050565b60007f310000000000000000000000000000000000000000000000000000000000000082527f303032000000000000000000000000000000000000000000000000000000000060018301528a51611e12816004850160208f01612283565b8a5190830190611e29816004840160208f01612283565b8a51611e3e8160048486010160208f01612283565b8a51929091010190611e57816004840160208d01612283565b8851611e6c8160048486010160208d01612283565b8851929091010190611e85816004840160208b01612283565b8651611e9a8160048486010160208b01612283565b611eb4611eae600483858701010189611ca8565b87611ca8565b9e9d5050505050505050505050505050565b938452602084019290925260601b6bffffffffffffffffffffffff19166040830152605482015260740190565b6001600160a01b0391909116815260200190565b6001600160a01b039384168152919092166020820152604081019190915260600190565b60006001600160a01b038616825260806020830152611f4d6080830186611cc4565b61ffff949094166040830152506060015292915050565b6001600160a01b03929092168252602082015260400190565b6000602082526115b66020830184611cc4565b6020808252600e908201527f556e6b6e6f776e20726563697065000000000000000000000000000000000000604082015260600190565b6020808252602a908201527f5361666542455032303a204245503230206f7065726174696f6e20646964206e60408201527f6f74207375636365656400000000000000000000000000000000000000000000606082015260800190565b60208082526026908201527f4f776e61626c653a206e6577206f776e657220697320746865207a65726f206160408201527f6464726573730000000000000000000000000000000000000000000000000000606082015260800190565b60208082526016908201527f4e6f74207375726520776861742068617070656e656400000000000000000000604082015260600190565b60208082526026908201527f416464726573733a20696e73756666696369656e742062616c616e636520666f60408201527f722063616c6c0000000000000000000000000000000000000000000000000000606082015260800190565b60208082526009908201527f546f6f2073686f72740000000000000000000000000000000000000000000000604082015260600190565b6020808252818101527f4f776e61626c653a2063616c6c6572206973206e6f7420746865206f776e6572604082015260600190565b60208082526010908201527f4d696e74696e672064697361626c656400000000000000000000000000000000604082015260600190565b60208082526009908201527f546f6f206561726c790000000000000000000000000000000000000000000000604082015260600190565b6020808252601d908201527f416464726573733a2063616c6c20746f206e6f6e2d636f6e7472616374000000604082015260600190565b61ffff91909116815260200190565b61ffff848116825283166020820152606081016019831061225257fe5b826040830152949350505050565b90815260200190565b60ff91909116815260200190565b82818337506000910152565b60005b8381101561229e578181015183820152602001612286565b838111156107785750506000910152565b6001600160a01b0381168114610e3a57600080fd5b8015158114610e3a57600080fd5b61ffff81168114610e3a57600080fdfea2646970667358221220e2c8932ec6a2f2e2cacb0d23e364552998cc4da99fc0a53a828f31bb4e4dc99764736f6c634300060c0033",
  "linkReferences": {},
  "deployedLinkReferences": {}
}