{
  "_format": "hh-sol-artifact-1",
  "contractName": "ArcaneItemLibraryV1",
  "sourceName": "src/ArcaneItemLibraryV1.sol",
  "abi": [
    {
      "inputs": [
        {
          "internalType": "uint256",
          "name": "_tokenId",
          "type": "uint256"
        }
      ],
      "name": "getItem",
      "outputs": [
        {
          "components": [
            {
              "internalType": "uint16",
              "name": "version",
              "type": "uint16"
            },
            {
              "internalType": "uint16",
              "name": "itemId",
              "type": "uint16"
            },
            {
              "internalType": "enum ArcaneItemLibraryV1.ArcaneItemType",
              "name": "itemType",
              "type": "ArcaneItemLibraryV1.ArcaneItemType"
            },
            {
              "components": [
                {
                  "internalType": "uint8",
                  "name": "variant",
                  "type": "uint8"
                },
                {
                  "internalType": "uint16",
                  "name": "value",
                  "type": "uint16"
                }
              ],
              "internalType": "struct ArcaneItemLibraryV1.ArcaneItemModifier[]",
              "name": "mods",
              "type": "tuple[]"
            }
          ],
          "internalType": "struct ArcaneItemLibraryV1.ArcaneItem",
          "name": "",
          "type": "tuple"
        }
      ],
      "stateMutability": "view",
      "type": "function"
    },
    {
      "inputs": [
        {
          "internalType": "uint256",
          "name": "begin",
          "type": "uint256"
        },
        {
          "internalType": "uint256",
          "name": "end",
          "type": "uint256"
        },
        {
          "internalType": "string",
          "name": "text",
          "type": "string"
        }
      ],
      "name": "getSlice",
      "outputs": [
        {
          "internalType": "string",
          "name": "",
          "type": "string"
        }
      ],
      "stateMutability": "pure",
      "type": "function"
    }
  ],
  "bytecode": "0x610ae7610026600b82828239805160001a60731461001957fe5b30600052607381538281f3fe73000000000000000000000000000000000000000030146080604052600436106100405760003560e01c80633129e773146100455780637f60b20a1461006e575b600080fd5b610058610053366004610890565b61008e565b60405161006591906109eb565b60405180910390f35b61008161007c3660046108a8565b6104e6565b60405161006591906109af565b610096610853565b6100d56040518060400160405280601781526020017f5b4974656d4c6962726172795d20546f6b656e2049443a0000000000000000008152508361058a565b60606100e083610601565b905060006100f96100f460016004856104e6565b610751565b9050600061010d6100f460046009866104e6565b90506101516040518060400160405280601681526020017f5b4974656d4c6962726172795d2056657273696f6e3a000000000000000000008152508360ff1661058a565b6101946040518060400160405280601181526020017f5b4974656d4c6962726172795d2049443a0000000000000000000000000000008152508261ffff1661058a565b604080516003808252608082019092526000918291606091816020015b6101b9610879565b8152602001906001900390816101b15790505090508460ff166001141561023757600991508361ffff16600114156101f45760019250610232565b8361ffff166002141561020a5760019250610232565b8361ffff16600314156102205760059250610232565b8361ffff166004141561023257601292505b610268565b8460ff166002141561026857600b91506102576100f46009600b896104e6565b60ff16601881111561026557fe5b92505b6102b56040518060400160405280601381526020017f5b4974656d4c6962726172795d20547970653a000000000000000000000000008152508460188111156102ad57fe5b60ff1661058a565b60405180604001604052806102d16100f485866001018b6104e6565b60ff1681526020016102ed6100f485600101866004018b6104e6565b61ffff168152508160008151811061030157fe5b60200260200101819052506103676040518060400160405280601381526020017f5b4974656d4c6962726172795d204d6f64313a000000000000000000000000008152508260008151811061035257fe5b60200260200101516020015161ffff1661058a565b60405180604001604052806103866100f485600401866005018b6104e6565b60ff1681526020016103a26100f485600501866008018b6104e6565b61ffff16815250816001815181106103b657fe5b60200260200101819052506104076040518060400160405280601381526020017f5b4974656d4c6962726172795d204d6f64323a000000000000000000000000008152508260018151811061035257fe5b60405180604001604052806104266100f485600801866009018b6104e6565b60ff1681526020016104426100f48560090186600c018b6104e6565b61ffff168152508160028151811061045657fe5b60200260200101819052506104a76040518060400160405280601381526020017f5b4974656d4c6962726172795d204d6f64333a000000000000000000000000008152508260028151811061035257fe5b6040805160808101825260ff8716815261ffff861660208201529081018460188111156104d057fe5b815260200191909152955050505050505b919050565b60608084840367ffffffffffffffff8111801561050257600080fd5b506040519080825280601f01601f19166020018201604052801561052d576020820181803683370190505b50905060005b85850381101561058157838682018151811061054b57fe5b602001015160f81c60f81b82828151811061056257fe5b60200101906001600160f81b031916908160001a905350600101610533565b50949350505050565b6105fd82826040516024016105a09291906109c9565b60408051601f198184030181529190526020810180517bffffffffffffffffffffffffffffffffffffffffffffffffffffffff167f9710a9d000000000000000000000000000000000000000000000000000000000179052610764565b5050565b606081610642575060408051808201909152600181527f300000000000000000000000000000000000000000000000000000000000000060208201526104e1565b60408051606480825260a082019092526060908260208201818036833701905050905060005b84156106ae578151600a808704966001840193919006916030830160f81b918591811061069157fe5b60200101906001600160f81b031916908160001a90535050610668565b60608167ffffffffffffffff811180156106c757600080fd5b506040519080825280601f01601f1916602001820160405280156106f2576020820181803683370190505b50905060005b8281101561074757836001828503038151811061071157fe5b602001015160f81c60f81b82828151811061072857fe5b60200101906001600160f81b031916908160001a9053506001016106f8565b5095945050505050565b600061075e826000610785565b92915050565b80516a636f6e736f6c652e6c6f67602083016000808483855afa5050505050565b6000828180805b835181101561083b5760308482815181106107a357fe5b016020015160f81c108015906107cd575060398482815181106107c257fe5b016020015160f81c11155b156108115781156107ea57856107e25761083b565b600019909501945b600a8302925060308482815181106107fe57fe5b016020015160f81c039290920191610833565b83818151811061081d57fe5b60209101015160f81c602e141561083357600191505b60010161078c565b5084156105815784600a0a8202915050949350505050565b604080516080810182526000808252602082018190529181019190915260608082015290565b604080518082019091526000808252602082015290565b6000602082840312156108a1578081fd5b5035919050565b6000806000606084860312156108bc578182fd5b8335925060208401359150604084013567ffffffffffffffff808211156108e1578283fd5b818601915086601f8301126108f4578283fd5b813581811115610902578384fd5b610915601f8201601f1916602001610a75565b915080825287602082850101111561092b578384fd5b61093c816020840160208601610aa5565b5080925050509250925092565b805160ff16825260209081015161ffff169082015260400190565b60008151808452815b818110156109895760208185018101518683018201520161096d565b8181111561099a5782602083870101525b50601f01601f19169290920160200192915050565b6000602082526109c26020830184610964565b9392505050565b6000604082526109dc6040830185610964565b90508260208301529392505050565b6000602080835260a0830161ffff8086511683860152808387015116604086015250604085015160198110610a1c57fe5b806060860152506060850151608080860152818151610a3b8185610a9c565b9285019350859291505b80831015610a6a57610a58828551610949565b91508484019350600183019250610a45565b509695505050505050565b60405181810167ffffffffffffffff81118282101715610a9457600080fd5b604052919050565b90815260200190565b8281833750600091015256fea2646970667358221220650ce8ad25ef4670004134f27bff72ca049d6094b2194d366c28de5b7abc080564736f6c634300060c0033",
  "linkReferences": {},
  "deployedLinkReferences": {}
}