{
  "_format": "hh-sol-artifact-1",
  "contractName": "ArcaneWorldstoneMinterV1",
  "sourceName": "src/ArcaneWorldstoneMinterV1.sol",
  "abi": [
    {
      "inputs": [
        {
          "internalType": "address",
          "name": "_itemMintingStationAddress",
          "type": "address"
        },
        {
          "internalType": "address",
          "name": "_runeToken",
          "type": "address"
        },
        {
          "internalType": "address",
          "name": "_barracksAddress",
          "type": "address"
        },
        {
          "internalType": "uint256",
          "name": "_tokenPrice",
          "type": "uint256"
        }
      ],
      "stateMutability": "nonpayable",
      "type": "constructor"
    },
    {
      "anonymous": false,
      "inputs": [
        {
          "indexed": true,
          "internalType": "address",
          "name": "to",
          "type": "address"
        },
        {
          "indexed": true,
          "internalType": "uint256",
          "name": "tokenId",
          "type": "uint256"
        },
        {
          "indexed": true,
          "internalType": "uint16",
          "name": "itemId",
          "type": "uint16"
        }
      ],
      "name": "ItemMint",
      "type": "event"
    },
    {
      "anonymous": false,
      "inputs": [
        {
          "indexed": true,
          "internalType": "address",
          "name": "previousOwner",
          "type": "address"
        },
        {
          "indexed": true,
          "internalType": "address",
          "name": "newOwner",
          "type": "address"
        }
      ],
      "name": "OwnershipTransferred",
      "type": "event"
    },
    {
      "inputs": [],
      "name": "barracksAddress",
      "outputs": [
        {
          "internalType": "address",
          "name": "",
          "type": "address"
        }
      ],
      "stateMutability": "view",
      "type": "function"
    },
    {
      "inputs": [
        {
          "internalType": "uint256",
          "name": "_amount",
          "type": "uint256"
        }
      ],
      "name": "claimFee",
      "outputs": [],
      "stateMutability": "nonpayable",
      "type": "function"
    },
    {
      "inputs": [
        {
          "internalType": "address",
          "name": "",
          "type": "address"
        }
      ],
      "name": "hasClaimedShard",
      "outputs": [
        {
          "internalType": "bool",
          "name": "",
          "type": "bool"
        }
      ],
      "stateMutability": "view",
      "type": "function"
    },
    {
      "inputs": [],
      "name": "itemMintingStationAddress",
      "outputs": [
        {
          "internalType": "address",
          "name": "",
          "type": "address"
        }
      ],
      "stateMutability": "view",
      "type": "function"
    },
    {
      "inputs": [
        {
          "internalType": "uint16",
          "name": "_rand",
          "type": "uint16"
        }
      ],
      "name": "mint",
      "outputs": [],
      "stateMutability": "nonpayable",
      "type": "function"
    },
    {
      "inputs": [],
      "name": "mintingEnabled",
      "outputs": [
        {
          "internalType": "bool",
          "name": "",
          "type": "bool"
        }
      ],
      "stateMutability": "view",
      "type": "function"
    },
    {
      "inputs": [],
      "name": "owner",
      "outputs": [
        {
          "internalType": "address",
          "name": "",
          "type": "address"
        }
      ],
      "stateMutability": "view",
      "type": "function"
    },
    {
      "inputs": [],
      "name": "renounceOwnership",
      "outputs": [],
      "stateMutability": "nonpayable",
      "type": "function"
    },
    {
      "inputs": [],
      "name": "runeToken",
      "outputs": [
        {
          "internalType": "address",
          "name": "",
          "type": "address"
        }
      ],
      "stateMutability": "view",
      "type": "function"
    },
    {
      "inputs": [
        {
          "internalType": "bool",
          "name": "_mintingEnabled",
          "type": "bool"
        }
      ],
      "name": "setMintingEnabled",
      "outputs": [],
      "stateMutability": "nonpayable",
      "type": "function"
    },
    {
      "inputs": [],
      "name": "tokenPrice",
      "outputs": [
        {
          "internalType": "uint256",
          "name": "",
          "type": "uint256"
        }
      ],
      "stateMutability": "view",
      "type": "function"
    },
    {
      "inputs": [
        {
          "internalType": "address",
          "name": "newOwner",
          "type": "address"
        }
      ],
      "name": "transferOwnership",
      "outputs": [],
      "stateMutability": "nonpayable",
      "type": "function"
    },
    {
      "inputs": [
        {
          "internalType": "uint256",
          "name": "_newTokenPrice",
          "type": "uint256"
        }
      ],
      "name": "updateTokenPrice",
      "outputs": [],
      "stateMutability": "nonpayable",
      "type": "function"
    },
    {
      "inputs": [],
      "name": "vaultAddress",
      "outputs": [
        {
          "internalType": "address",
          "name": "",
          "type": "address"
        }
      ],
      "stateMutability": "view",
      "type": "function"
    }
  ],
  "bytecode": "0x60806040526007805460ff191660011790553480156200001e57600080fd5b506040516200188e3803806200188e833981016040819052620000419162000126565b60006200004d62000104565b600080546001600160a01b0319166001600160a01b0383169081178255604051929350917f8be0079c531659141344cd1fd0a4f28419497f9722a3daafe3b4186f6b6457e0908290a350600480546001600160a01b039586166001600160a01b03199182161790915560018054948616948216949094179093556005805492909416918316919091179092556002919091556003805490911673602a27bbf954b6945534a84c8c88fb8ca9e92b7f1790556200017a565b3390565b80516001600160a01b03811681146200012057600080fd5b92915050565b600080600080608085870312156200013c578384fd5b62000148868662000108565b935062000159866020870162000108565b92506200016a866040870162000108565b6060959095015193969295505050565b611704806200018a6000396000f3fe608060405234801561001057600080fd5b50600436106100ea5760003560e01c8063934849f31161008c578063a2685a5d11610066578063a2685a5d14610192578063e3779cc6146101a5578063f2fde38b146101ad578063f667526a146101c0576100ea565b8063934849f31461016d5780639fd53f2b146101755780639fd6db121461017d576100ea565b8063676c0d77116100c8578063676c0d7714610135578063715018a6146101485780637ff9b596146101505780638da5cb5b14610165576100ea565b806323cf0a22146100ef578063430bf08a146101045780634ea3871a14610122575b600080fd5b6101026100fd36600461115e565b6101d3565b005b61010c610613565b60405161011991906112cf565b60405180910390f35b61010261013036600461107f565b610622565b61010261014336600461117a565b610674565b6101026106b8565b61015861074e565b6040516101199190611614565b61010c610754565b61010c610763565b61010c610772565b610185610781565b6040516101199190611375565b6101856101a0366004611058565b61078a565b61010c61079f565b6101026101bb366004611058565b6107ae565b6101026101ce36600461117a565b61087b565b60075460ff1615156001146102035760405162461bcd60e51b81526004016101fa9061156f565b60405180910390fd5b6006600061020f6108db565b6001600160a01b0316815260208101919091526040016000205460ff16156102495760405162461bcd60e51b81526004016101fa90611503565b6005546000906001600160a01b03166303f5160d6102656108db565b60036040518363ffffffff1660e01b815260040161028492919061131c565b60206040518083038186803b15801561029c57600080fd5b505afa1580156102b0573d6000803e3d6000fd5b505050506040513d601f19601f820116820180604052508101906102d49190611192565b9050600081116102f65760405162461bcd60e51b81526004016101fa906115dd565b6102fe610f61565b6040517f3129e77300000000000000000000000000000000000000000000000000000000815273__$6e6aae3005a1aabc9fb6bf26501a702d59$__90633129e7739061034e908590600401611614565b60006040518083038186803b15801561036657600080fd5b505af415801561037a573d6000803e3d6000fd5b505050506040513d6000823e601f3d908101601f191682016040526103a291908101906110b7565b90506103eb6040518060400160405280601881526020017f5b417263616e65576f726c6473746f6e654d696e7465725d0000000000000000815250826020015161ffff166108df565b806020015161ffff166003146104135760405162461bcd60e51b81526004016101fa906114cc565b60025415610443576104436104266108db565b6003546002546001546001600160a01b0390811693921690610941565b6001600660006104516108db565b6001600160a01b031681526020810191909152604001600020805460ff19169115159190911790556008546009108015610495575060096008548161049257fe5b06155b6104a4576008546003016104ab565b6003600854035b600855604080516060818101835282825260049290919061168f6020830139905060606104e46104df6103e76008546109b7565b610a04565b905060606104f58761ffff16610a04565b9050600061052d610507846003610b56565b83604051602001610519929190611221565b604051602081830303815290604052610bf2565b905061053881610c74565b6004546001600160a01b031663cf0504746105516108db565b8688856040518563ffffffff1660e01b815260040161057394939291906112e3565b602060405180830381600087803b15801561058d57600080fd5b505af11580156105a1573d6000803e3d6000fd5b505050506040513d601f19601f820116820180604052508101906105c59190611192565b508461ffff16816105d46108db565b6001600160a01b03167fbc6001cfe06d9841f1d11a60a0468bcdcb5552dc7d2c4d248bdeccc60ed1a97e60405160405180910390a45050505050505050565b6003546001600160a01b031681565b61062a6108db565b6001600160a01b031661063b610754565b6001600160a01b0316146106615760405162461bcd60e51b81526004016101fa9061153a565b6007805460ff1916911515919091179055565b61067c6108db565b6001600160a01b031661068d610754565b6001600160a01b0316146106b35760405162461bcd60e51b81526004016101fa9061153a565b600255565b6106c06108db565b6001600160a01b03166106d1610754565b6001600160a01b0316146106f75760405162461bcd60e51b81526004016101fa9061153a565b600080546040516001600160a01b03909116907f8be0079c531659141344cd1fd0a4f28419497f9722a3daafe3b4186f6b6457e0908390a36000805473ffffffffffffffffffffffffffffffffffffffff19169055565b60025481565b6000546001600160a01b031690565b6004546001600160a01b031681565b6001546001600160a01b031681565b60075460ff1681565b60066020526000908152604090205460ff1681565b6005546001600160a01b031681565b6107b66108db565b6001600160a01b03166107c7610754565b6001600160a01b0316146107ed5760405162461bcd60e51b81526004016101fa9061153a565b6001600160a01b0381166108135760405162461bcd60e51b81526004016101fa90611412565b600080546040516001600160a01b03808516939216917f8be0079c531659141344cd1fd0a4f28419497f9722a3daafe3b4186f6b6457e091a36000805473ffffffffffffffffffffffffffffffffffffffff19166001600160a01b0392909216919091179055565b6108836108db565b6001600160a01b0316610894610754565b6001600160a01b0316146108ba5760405162461bcd60e51b81526004016101fa9061153a565b6108d86108c56108db565b6001546001600160a01b03169083610cd0565b50565b3390565b61093d82826040516024016108f5929190611393565b60408051601f198184030181529190526020810180516001600160e01b03167f9710a9d000000000000000000000000000000000000000000000000000000000179052610cf4565b5050565b6109b1846323b872dd60e01b85858560405160240161096293929190611338565b60408051601f198184030181529190526020810180516001600160e01b03167fffffffff0000000000000000000000000000000000000000000000000000000090931692909217909152610d15565b50505050565b600060018201915082600101424433856040516020016109da94939291906112a2565b6040516020818303038152906040528051906020012060001c816109fa57fe5b0690505b92915050565b606081610a45575060408051808201909152600181527f30000000000000000000000000000000000000000000000000000000000000006020820152610b51565b60408051606480825260a082019092526060908260208201818036833701905050905060005b8415610ab1578151600a808704966001840193919006916030830160f81b9185918110610a9457fe5b60200101906001600160f81b031916908160001a90535050610a6b565b60608167ffffffffffffffff81118015610aca57600080fd5b506040519080825280601f01601f191660200182016040528015610af5576020820181803683370190505b50905060005b82811015610b4a578360018285030381518110610b1457fe5b602001015160f81c60f81b828281518110610b2b57fe5b60200101906001600160f81b031916908160001a905350600101610afb565b5093505050505b919050565b815160609060ff83168110610b6e57839150506109fe565b8260ff16816009011015610b8157600080fd5b60408051808201909152600981527f30303030303030303000000000000000000000000000000000000000000000006020820152610bc7600060ff861684900383610da4565b85604051602001610bd99291906111f2565b6040516020818303038152906040529250505092915050565b600080805b8351811015610c6d576030848281518110610c0e57fe5b016020015160f81c10801590610c3857506039848281518110610c2d57fe5b016020015160f81c11155b15610c65576030848281518110610c4b57fe5b602001015160f81c60f81b60f81c0360ff1682600a020191505b600101610bf7565b5092915050565b6108d881604051602401610c889190611614565b60408051601f198184030181529190526020810180516001600160e01b03167ff5b1bba900000000000000000000000000000000000000000000000000000000179052610cf4565b610cef8363a9059cbb60e01b848460405160240161096292919061135c565b505050565b80516a636f6e736f6c652e6c6f67602083016000808483855afa5050505050565b6060610d6a826040518060400160405280602081526020017f5361666542455032303a206c6f772d6c6576656c2063616c6c206661696c6564815250856001600160a01b0316610e4a9092919063ffffffff16565b805190915015610cef5780806020019051810190610d88919061109b565b610cef5760405162461bcd60e51b81526004016101fa906113b5565b60608084840367ffffffffffffffff81118015610dc057600080fd5b506040519080825280601f01601f191660200182016040528015610deb576020820181803683370190505b50905060005b858503811015610e3f578386820181518110610e0957fe5b602001015160f81c60f81b828281518110610e2057fe5b60200101906001600160f81b031916908160001a905350600101610df1565b5090505b9392505050565b6060610e598484600085610e61565b949350505050565b606082471015610e835760405162461bcd60e51b81526004016101fa9061146f565b610e8c85610f22565b610ea85760405162461bcd60e51b81526004016101fa906115a6565b60006060866001600160a01b03168587604051610ec591906111d6565b60006040518083038185875af1925050503d8060008114610f02576040519150601f19603f3d011682016040523d82523d6000602084013e610f07565b606091505b5091509150610f17828286610f28565b979650505050505050565b3b151590565b60608315610f37575081610e43565b825115610f475782518084602001fd5b8160405162461bcd60e51b81526004016101fa9190611380565b604080516080810182526000808252602082018190529181019190915260608082015290565b600082601f830112610f97578081fd5b815167ffffffffffffffff811115610fad578182fd5b6020610fbc818284020161161d565b8281529250808301848201604080850287018401881015610fdc57600080fd5b60005b8581101561100357610ff1898461100f565b84529284019291810191600101610fdf565b50505050505092915050565b600060408284031215611020578081fd5b61102a604061161d565b9050815160ff8116811461103d57600080fd5b8152602082015161104d8161167e565b602082015292915050565b600060208284031215611069578081fd5b81356001600160a01b0381168114610e43578182fd5b600060208284031215611090578081fd5b8135610e4381611670565b6000602082840312156110ac578081fd5b8151610e4381611670565b6000602082840312156110c8578081fd5b815167ffffffffffffffff808211156110df578283fd5b90830190608082860312156110f2578283fd5b6110fc608061161d565b82516111078161167e565b815260208301516111178161167e565b602082015260408301516019811061112d578485fd5b6040820152606083015182811115611143578485fd5b61114f87828601610f87565b60608301525095945050505050565b60006020828403121561116f578081fd5b8135610e438161167e565b60006020828403121561118b578081fd5b5035919050565b6000602082840312156111a3578081fd5b5051919050565b600081518084526111c2816020860160208601611644565b601f01601f19169290920160200192915050565b600082516111e8818460208701611644565b9190910192915050565b60008351611204818460208801611644565b835190830190611218818360208801611644565b01949350505050565b60007f313030313030303034313030303130303031000000000000000000000000000082528351611259816012850160208801611644565b7f31000000000000000000000000000000000000000000000000000000000000006012918401918201528351611296816013840160208801611644565b01601301949350505050565b938452602084019290925260601b6bffffffffffffffffffffffff19166040830152605482015260740190565b6001600160a01b0391909116815260200190565b60006001600160a01b03861682526080602083015261130560808301866111aa565b61ffff949094166040830152506060015292915050565b6001600160a01b0392909216825260ff16602082015260400190565b6001600160a01b039384168152919092166020820152604081019190915260600190565b6001600160a01b03929092168252602082015260400190565b901515815260200190565b600060208252610e4360208301846111aa565b6000604082526113a660408301856111aa565b90508260208301529392505050565b6020808252602a908201527f5361666542455032303a204245503230206f7065726174696f6e20646964206e60408201527f6f74207375636365656400000000000000000000000000000000000000000000606082015260800190565b60208082526026908201527f4f776e61626c653a206e6577206f776e657220697320746865207a65726f206160408201527f6464726573730000000000000000000000000000000000000000000000000000606082015260800190565b60208082526026908201527f416464726573733a20696e73756666696369656e742062616c616e636520666f60408201527f722063616c6c0000000000000000000000000000000000000000000000000000606082015260800190565b60208082526013908201527f57726f6e67206974656d20657175697070656400000000000000000000000000604082015260600190565b6020808252600f908201527f416c726561647920636c61696d65640000000000000000000000000000000000604082015260600190565b6020808252818101527f4f776e61626c653a2063616c6c6572206973206e6f7420746865206f776e6572604082015260600190565b60208082526010908201527f4d696e74696e672064697361626c656400000000000000000000000000000000604082015260600190565b6020808252601d908201527f416464726573733a2063616c6c20746f206e6f6e2d636f6e7472616374000000604082015260600190565b60208082526010908201527f4e6f206974656d20657175697070656400000000000000000000000000000000604082015260600190565b90815260200190565b60405181810167ffffffffffffffff8111828210171561163c57600080fd5b604052919050565b60005b8381101561165f578181015183820152602001611647565b838111156109b15750506000910152565b80151581146108d857600080fd5b61ffff811681146108d857600080fdfe6d74776972737161776a756f6c6f7132677674797567327463336a62663568746d327a656f3472736b6e666976336664703436612f6974656d2d342e6a736f6ea2646970667358221220cace5082b4c8370e9a4c0237d554a0b42d799e1d5f413462342f50b67bed5cab64736f6c634300060c0033",
  "linkReferences": {
    "src/ArcaneItemLibraryV1.sol": {
      "ArcaneItemLibraryV1": [
        {
          "length": 20,
          "start": 1200
        }
      ]
    }
  },
  "deployedLinkReferences": {
    "src/ArcaneItemLibraryV1.sol": {
      "ArcaneItemLibraryV1": [
        {
          "length": 20,
          "start": 806
        }
      ]
    }
  }
}