{
  "_format": "hh-sol-artifact-1",
  "contractName": "ArcaneShopV1",
  "sourceName": "src/ArcaneShopV1.sol",
  "abi": [
    {
      "inputs": [
        {
          "internalType": "contract WBNB",
          "name": "_wbnb",
          "type": "address"
        },
        {
          "internalType": "contract RuneToken",
          "name": "_rune",
          "type": "address"
        },
        {
          "internalType": "contract IPancakeRouter02",
          "name": "_pancakeRouter",
          "type": "address"
        }
      ],
      "stateMutability": "nonpayable",
      "type": "constructor"
    },
    {
      "anonymous": false,
      "inputs": [
        {
          "indexed": true,
          "internalType": "address",
          "name": "previousOwner",
          "type": "address"
        },
        {
          "indexed": true,
          "internalType": "address",
          "name": "newOwner",
          "type": "address"
        }
      ],
      "name": "OwnershipTransferred",
      "type": "event"
    },
    {
      "inputs": [
        {
          "internalType": "uint256",
          "name": "amountOutMin",
          "type": "uint256"
        }
      ],
      "name": "buy",
      "outputs": [
        {
          "internalType": "uint256",
          "name": "runeAmount",
          "type": "uint256"
        }
      ],
      "stateMutability": "payable",
      "type": "function"
    },
    {
      "inputs": [],
      "name": "buyNFT",
      "outputs": [],
      "stateMutability": "nonpayable",
      "type": "function"
    },
    {
      "inputs": [
        {
          "internalType": "uint256",
          "name": "bnbAmountIn",
          "type": "uint256"
        }
      ],
      "name": "estimateBuy",
      "outputs": [
        {
          "internalType": "uint256",
          "name": "runeAmount",
          "type": "uint256"
        }
      ],
      "stateMutability": "view",
      "type": "function"
    },
    {
      "inputs": [],
      "name": "instaBuy",
      "outputs": [
        {
          "internalType": "uint256",
          "name": "runeAmount",
          "type": "uint256"
        }
      ],
      "stateMutability": "payable",
      "type": "function"
    },
    {
      "inputs": [],
      "name": "owner",
      "outputs": [
        {
          "internalType": "address",
          "name": "",
          "type": "address"
        }
      ],
      "stateMutability": "view",
      "type": "function"
    },
    {
      "inputs": [
        {
          "internalType": "contract IBEP20",
          "name": "token",
          "type": "address"
        }
      ],
      "name": "recoverTokens",
      "outputs": [],
      "stateMutability": "nonpayable",
      "type": "function"
    },
    {
      "inputs": [],
      "name": "renounceOwnership",
      "outputs": [],
      "stateMutability": "nonpayable",
      "type": "function"
    },
    {
      "inputs": [
        {
          "internalType": "address",
          "name": "newOwner",
          "type": "address"
        }
      ],
      "name": "transferOwnership",
      "outputs": [],
      "stateMutability": "nonpayable",
      "type": "function"
    },
    {
      "stateMutability": "payable",
      "type": "receive"
    }
  ],
  "bytecode": "0x6101006040523480156200001257600080fd5b506040516200165238038062001652833981810160405260608110156200003857600080fd5b508051602082015160409092015190919060006200005562000250565b600080546001600160a01b0319166001600160a01b0383169081178255604051929350917f8be0079c531659141344cd1fd0a4f28419497f9722a3daafe3b4186f6b6457e0908290a3506001600160601b0319606084811b821660805283811b821660a05282901b1660c0526040805163c45a015560e01b815290516001600160a01b0383169163c45a0155916004808301926020929190829003018186803b1580156200010257600080fd5b505afa15801562000117573d6000803e3d6000fd5b505050506040513d60208110156200012e57600080fd5b505160601b6001600160601b03191660e0526040805163095ea7b360e01b81526001600160a01b038381166004830152600019602483015291519185169163095ea7b3916044808201926020929091908290030181600087803b1580156200019557600080fd5b505af1158015620001aa573d6000803e3d6000fd5b505050506040513d6020811015620001c157600080fd5b50506040805163095ea7b360e01b81526001600160a01b038381166004830152600019602483015291519184169163095ea7b3916044808201926020929091908290030181600087803b1580156200021857600080fd5b505af11580156200022d573d6000803e3d6000fd5b505050506040513d60208110156200024457600080fd5b50620002549350505050565b3390565b60805160601c60a05160601c60c05160601c60e05160601c6113a9620002a9600039806103c25250806106b952508061036f5280610669525080608f52806103215280610560528061061b52506113a96000f3fe60806040526004361061007f5760003560e01c80638da5cb5b1161004e5780638da5cb5b1461014c578063bff29cee1461017d578063d96a094a14610192578063f2fde38b146101af576100bb565b806316114acd146100c057806318d685f6146100f3578063470b539d1461012f578063715018a614610137576100bb565b366100bb57336001600160a01b037f000000000000000000000000000000000000000000000000000000000000000016146100b957600080fd5b005b600080fd5b3480156100cc57600080fd5b506100b9600480360360208110156100e357600080fd5b50356001600160a01b03166101e2565b3480156100ff57600080fd5b5061011d6004803603602081101561011657600080fd5b50356102f9565b60408051918252519081900360200190f35b61011d610408565b34801561014357600080fd5b506100b961042d565b34801561015857600080fd5b506101616104f8565b604080516001600160a01b039092168252519081900360200190f35b34801561018957600080fd5b506100b9610507565b61011d600480360360208110156101a857600080fd5b5035610509565b3480156101bb57600080fd5b506100b9600480360360208110156101d257600080fd5b50356001600160a01b031661086e565b6101ea61098f565b6001600160a01b03166101fb6104f8565b6001600160a01b031614610256576040805162461bcd60e51b815260206004820181905260248201527f4f776e61626c653a2063616c6c6572206973206e6f7420746865206f776e6572604482015290519081900360640190fd5b61025f81610993565b61026857600080fd5b6102f633826001600160a01b03166370a08231306040518263ffffffff1660e01b815260040180826001600160a01b0316815260200191505060206040518083038186803b1580156102b957600080fd5b505afa1580156102cd573d6000803e3d6000fd5b505050506040513d60208110156102e357600080fd5b50516001600160a01b03841691906109a5565b50565b60408051600280825260608083018452600093909291906020830190803683370190505090507f00000000000000000000000000000000000000000000000000000000000000008160008151811061034d57fe5b60200260200101906001600160a01b031690816001600160a01b0316815250507f00000000000000000000000000000000000000000000000000000000000000008160018151811061039b57fe5b60200260200101906001600160a01b031690816001600160a01b03168152505060606103e87f00000000000000000000000000000000000000000000000000000000000000008584610a2a565b9050806001815181106103f757fe5b602002602001015192505050919050565b60006104286064610418346102f9565b6062028161042257fe5b04610509565b905090565b61043561098f565b6001600160a01b03166104466104f8565b6001600160a01b0316146104a1576040805162461bcd60e51b815260206004820181905260248201527f4f776e61626c653a2063616c6c6572206973206e6f7420746865206f776e6572604482015290519081900360640190fd5b600080546040516001600160a01b03909116907f8be0079c531659141344cd1fd0a4f28419497f9722a3daafe3b4186f6b6457e0908390a36000805473ffffffffffffffffffffffffffffffffffffffff19169055565b6000546001600160a01b031690565b565b6000348061055e576040805162461bcd60e51b815260206004820152600c60248201527f4e6f7468696e672073656e740000000000000000000000000000000000000000604482015290519081900360640190fd5b7f00000000000000000000000000000000000000000000000000000000000000006001600160a01b031663d0e30db0826040518263ffffffff1660e01b81526004016000604051808303818588803b1580156105b957600080fd5b505af11580156105cd573d6000803e3d6000fd5b50505050506060600267ffffffffffffffff811180156105ec57600080fd5b50604051908082528060200260200182016040528015610616578160200160208202803683370190505b5090507f00000000000000000000000000000000000000000000000000000000000000008160008151811061064757fe5b60200260200101906001600160a01b031690816001600160a01b0316815250507f00000000000000000000000000000000000000000000000000000000000000008160018151811061069557fe5b60200260200101906001600160a01b031690816001600160a01b03168152505060607f00000000000000000000000000000000000000000000000000000000000000006001600160a01b03166338ed173984878533426040518663ffffffff1660e01b81526004018086815260200185815260200180602001846001600160a01b03168152602001838152602001828103825285818151815260200191508051906020019060200280838360005b8381101561075b578181015183820152602001610743565b505050509050019650505050505050600060405180830381600087803b15801561078457600080fd5b505af1158015610798573d6000803e3d6000fd5b505050506040513d6000823e601f3d908101601f1916820160405260208110156107c157600080fd5b81019080805160405193929190846401000000008211156107e157600080fd5b9083019060208201858111156107f657600080fd5b825186602082028301116401000000008211171561081357600080fd5b82525081516020918201928201910280838360005b83811015610840578181015183820152602001610828565b5050505090500160405250505090508060018151811061085c57fe5b60200260200101519350505050919050565b61087661098f565b6001600160a01b03166108876104f8565b6001600160a01b0316146108e2576040805162461bcd60e51b815260206004820181905260248201527f4f776e61626c653a2063616c6c6572206973206e6f7420746865206f776e6572604482015290519081900360640190fd5b6001600160a01b0381166109275760405162461bcd60e51b81526004018080602001828103825260268152602001806112be6026913960400191505060405180910390fd5b600080546040516001600160a01b03808516939216917f8be0079c531659141344cd1fd0a4f28419497f9722a3daafe3b4186f6b6457e091a36000805473ffffffffffffffffffffffffffffffffffffffff19166001600160a01b0392909216919091179055565b3390565b6001600160a01b038116301415919050565b604080516001600160a01b038416602482015260448082018490528251808303909101815260649091019091526020810180517bffffffffffffffffffffffffffffffffffffffffffffffffffffffff167fa9059cbb00000000000000000000000000000000000000000000000000000000179052610a25908490610b76565b505050565b6060600282511015610a83576040805162461bcd60e51b815260206004820152601c60248201527f50616e63616b654c6962726172793a20494e56414c49445f5041544800000000604482015290519081900360640190fd5b815167ffffffffffffffff81118015610a9b57600080fd5b50604051908082528060200260200182016040528015610ac5578160200160208202803683370190505b5090508281600081518110610ad657fe5b60200260200101818152505060005b6001835103811015610b6e57600080610b2887868581518110610b0457fe5b6020026020010151878660010181518110610b1b57fe5b6020026020010151610c27565b91509150610b4a848481518110610b3b57fe5b60200260200101518383610d01565b848460010181518110610b5957fe5b60209081029190910101525050600101610ae5565b509392505050565b6060610bcb826040518060400160405280602081526020017f5361666542455032303a206c6f772d6c6576656c2063616c6c206661696c6564815250856001600160a01b0316610dd99092919063ffffffff16565b805190915015610a2557808060200190516020811015610bea57600080fd5b5051610a255760405162461bcd60e51b815260040180806020018281038252602a815260200180611294602a913960400191505060405180910390fd5b6000806000610c368585610df2565b509050610c44868686610ed0565b50600080610c53888888610ed0565b6001600160a01b0316630902f1ac6040518163ffffffff1660e01b815260040160606040518083038186803b158015610c8b57600080fd5b505afa158015610c9f573d6000803e3d6000fd5b505050506040513d6060811015610cb557600080fd5b5080516020909101516dffffffffffffffffffffffffffff91821693501690506001600160a01b0387811690841614610cef578082610cf2565b81815b90999098509650505050505050565b6000808411610d415760405162461bcd60e51b815260040180806020018281038252602981526020018061126b6029913960400191505060405180910390fd5b600083118015610d515750600082115b610d8c5760405162461bcd60e51b815260040180806020018281038252602681526020018061134e6026913960400191505060405180910390fd5b6000610d9a856103e6610fa8565b90506000610da88285610fa8565b90506000610dc283610dbc886103e8610fa8565b9061100a565b9050808281610dcd57fe5b04979650505050505050565b6060610de88484600085611064565b90505b9392505050565b600080826001600160a01b0316846001600160a01b03161415610e465760405162461bcd60e51b815260040180806020018281038252602381526020018061130a6023913960400191505060405180910390fd5b826001600160a01b0316846001600160a01b031610610e66578284610e69565b83835b90925090506001600160a01b038216610ec9576040805162461bcd60e51b815260206004820152601c60248201527f50616e63616b654c6962726172793a205a45524f5f4144445245535300000000604482015290519081900360640190fd5b9250929050565b6000806000610edf8585610df2565b604080516bffffffffffffffffffffffff19606094851b811660208084019190915293851b81166034830152825160288184030181526048830184528051908501207fff0000000000000000000000000000000000000000000000000000000000000060688401529a90941b9093166069840152607d8301989098527fd0d4c4cd0848c93cb4fd1f498d7013ee6bfb25783ea21593d5834f5d250ece66609d808401919091528851808403909101815260bd909201909752805196019590952095945050505050565b600082610fb757506000611004565b82820282848281610fc457fe5b04146110015760405162461bcd60e51b815260040180806020018281038252602181526020018061132d6021913960400191505060405180910390fd5b90505b92915050565b600082820183811015611001576040805162461bcd60e51b815260206004820152601b60248201527f536166654d6174683a206164646974696f6e206f766572666c6f770000000000604482015290519081900360640190fd5b6060824710156110a55760405162461bcd60e51b81526004018080602001828103825260268152602001806112e46026913960400191505060405180910390fd5b6110ae856111c0565b6110ff576040805162461bcd60e51b815260206004820152601d60248201527f416464726573733a2063616c6c20746f206e6f6e2d636f6e7472616374000000604482015290519081900360640190fd5b60006060866001600160a01b031685876040518082805190602001908083835b6020831061113e5780518252601f19909201916020918201910161111f565b6001836020036101000a03801982511681845116808217855250505050505090500191505060006040518083038185875af1925050503d80600081146111a0576040519150601f19603f3d011682016040523d82523d6000602084013e6111a5565b606091505b50915091506111b58282866111c6565b979650505050505050565b3b151590565b606083156111d5575081610deb565b8251156111e55782518084602001fd5b8160405162461bcd60e51b81526004018080602001828103825283818151815260200191508051906020019080838360005b8381101561122f578181015183820152602001611217565b50505050905090810190601f16801561125c5780820380516001836020036101000a031916815260200191505b509250505060405180910390fdfe50616e63616b654c6962726172793a20494e53554646494349454e545f494e5055545f414d4f554e545361666542455032303a204245503230206f7065726174696f6e20646964206e6f7420737563636565644f776e61626c653a206e6577206f776e657220697320746865207a65726f2061646472657373416464726573733a20696e73756666696369656e742062616c616e636520666f722063616c6c50616e63616b654c6962726172793a204944454e544943414c5f414444524553534553536166654d6174683a206d756c7469706c69636174696f6e206f766572666c6f7750616e63616b654c6962726172793a20494e53554646494349454e545f4c4951554944495459a26469706673582212208e7e4ce14de5db6db0f1e3b9558f49e0baf85a12aee42b8cd2732eadbb12ff4c64736f6c634300060c0033",
  "linkReferences": {},
  "deployedLinkReferences": {}
}