{
  "_format": "hh-sol-artifact-1",
  "contractName": "ArcaneItemStorageV1",
  "sourceName": "src/ArcaneItemStorageV1.sol",
  "abi": [
    {
      "inputs": [
        {
          "internalType": "address",
          "name": "_itemsAddress",
          "type": "address"
        }
      ],
      "stateMutability": "nonpayable",
      "type": "constructor"
    },
    {
      "anonymous": false,
      "inputs": [
        {
          "indexed": true,
          "internalType": "bytes32",
          "name": "role",
          "type": "bytes32"
        },
        {
          "indexed": true,
          "internalType": "bytes32",
          "name": "previousAdminRole",
          "type": "bytes32"
        },
        {
          "indexed": true,
          "internalType": "bytes32",
          "name": "newAdminRole",
          "type": "bytes32"
        }
      ],
      "name": "RoleAdminChanged",
      "type": "event"
    },
    {
      "anonymous": false,
      "inputs": [
        {
          "indexed": true,
          "internalType": "bytes32",
          "name": "role",
          "type": "bytes32"
        },
        {
          "indexed": true,
          "internalType": "address",
          "name": "account",
          "type": "address"
        },
        {
          "indexed": true,
          "internalType": "address",
          "name": "sender",
          "type": "address"
        }
      ],
      "name": "RoleGranted",
      "type": "event"
    },
    {
      "anonymous": false,
      "inputs": [
        {
          "indexed": true,
          "internalType": "bytes32",
          "name": "role",
          "type": "bytes32"
        },
        {
          "indexed": true,
          "internalType": "address",
          "name": "account",
          "type": "address"
        },
        {
          "indexed": true,
          "internalType": "address",
          "name": "sender",
          "type": "address"
        }
      ],
      "name": "RoleRevoked",
      "type": "event"
    },
    {
      "inputs": [],
      "name": "DEFAULT_ADMIN_ROLE",
      "outputs": [
        {
          "internalType": "bytes32",
          "name": "",
          "type": "bytes32"
        }
      ],
      "stateMutability": "view",
      "type": "function"
    },
    {
      "inputs": [],
      "name": "NFT_ROLE",
      "outputs": [
        {
          "internalType": "bytes32",
          "name": "",
          "type": "bytes32"
        }
      ],
      "stateMutability": "view",
      "type": "function"
    },
    {
      "inputs": [
        {
          "internalType": "address",
          "name": "_userAddress",
          "type": "address"
        },
        {
          "internalType": "uint256",
          "name": "_tokenId",
          "type": "uint256"
        }
      ],
      "name": "equip",
      "outputs": [],
      "stateMutability": "nonpayable",
      "type": "function"
    },
    {
      "inputs": [
        {
          "internalType": "address",
          "name": "_userAddress",
          "type": "address"
        },
        {
          "internalType": "uint256",
          "name": "_tokenId",
          "type": "uint256"
        }
      ],
      "name": "equip2",
      "outputs": [],
      "stateMutability": "nonpayable",
      "type": "function"
    },
    {
      "inputs": [
        {
          "internalType": "bytes32",
          "name": "role",
          "type": "bytes32"
        }
      ],
      "name": "getRoleAdmin",
      "outputs": [
        {
          "internalType": "bytes32",
          "name": "",
          "type": "bytes32"
        }
      ],
      "stateMutability": "view",
      "type": "function"
    },
    {
      "inputs": [
        {
          "internalType": "bytes32",
          "name": "role",
          "type": "bytes32"
        },
        {
          "internalType": "uint256",
          "name": "index",
          "type": "uint256"
        }
      ],
      "name": "getRoleMember",
      "outputs": [
        {
          "internalType": "address",
          "name": "",
          "type": "address"
        }
      ],
      "stateMutability": "view",
      "type": "function"
    },
    {
      "inputs": [
        {
          "internalType": "bytes32",
          "name": "role",
          "type": "bytes32"
        }
      ],
      "name": "getRoleMemberCount",
      "outputs": [
        {
          "internalType": "uint256",
          "name": "",
          "type": "uint256"
        }
      ],
      "stateMutability": "view",
      "type": "function"
    },
    {
      "inputs": [
        {
          "internalType": "bytes32",
          "name": "role",
          "type": "bytes32"
        },
        {
          "internalType": "address",
          "name": "account",
          "type": "address"
        }
      ],
      "name": "grantRole",
      "outputs": [],
      "stateMutability": "nonpayable",
      "type": "function"
    },
    {
      "inputs": [
        {
          "internalType": "bytes32",
          "name": "role",
          "type": "bytes32"
        },
        {
          "internalType": "address",
          "name": "account",
          "type": "address"
        }
      ],
      "name": "hasRole",
      "outputs": [
        {
          "internalType": "bool",
          "name": "",
          "type": "bool"
        }
      ],
      "stateMutability": "view",
      "type": "function"
    },
    {
      "inputs": [],
      "name": "itemsAddress",
      "outputs": [
        {
          "internalType": "address",
          "name": "",
          "type": "address"
        }
      ],
      "stateMutability": "view",
      "type": "function"
    },
    {
      "inputs": [
        {
          "internalType": "address",
          "name": "",
          "type": "address"
        },
        {
          "internalType": "address",
          "name": "",
          "type": "address"
        },
        {
          "internalType": "uint256",
          "name": "",
          "type": "uint256"
        },
        {
          "internalType": "bytes",
          "name": "",
          "type": "bytes"
        }
      ],
      "name": "onERC721Received",
      "outputs": [
        {
          "internalType": "bytes4",
          "name": "",
          "type": "bytes4"
        }
      ],
      "stateMutability": "nonpayable",
      "type": "function"
    },
    {
      "inputs": [
        {
          "internalType": "bytes32",
          "name": "role",
          "type": "bytes32"
        },
        {
          "internalType": "address",
          "name": "account",
          "type": "address"
        }
      ],
      "name": "renounceRole",
      "outputs": [],
      "stateMutability": "nonpayable",
      "type": "function"
    },
    {
      "inputs": [
        {
          "internalType": "bytes32",
          "name": "role",
          "type": "bytes32"
        },
        {
          "internalType": "address",
          "name": "account",
          "type": "address"
        }
      ],
      "name": "revokeRole",
      "outputs": [],
      "stateMutability": "nonpayable",
      "type": "function"
    },
    {
      "inputs": [
        {
          "internalType": "address",
          "name": "_userAddress",
          "type": "address"
        },
        {
          "internalType": "uint256",
          "name": "_tokenId",
          "type": "uint256"
        }
      ],
      "name": "unequip2",
      "outputs": [],
      "stateMutability": "nonpayable",
      "type": "function"
    }
  ],
  "bytecode": "0x608060405234801561001057600080fd5b50604051610c5b380380610c5b8339818101604052602081101561003357600080fd5b5051600180546001600160a01b0319166001600160a01b038316179055610062600061005d610068565b61006c565b5061016d565b3390565b610076828261007a565b5050565b60008281526020818152604090912061009c91839061073d6100ed821b17901c565b15610076576100a9610068565b6001600160a01b0316816001600160a01b0316837f2f8788117e7eff1d82e926ec794901d17c78024a50270940304540a733656f0d60405160405180910390a45050565b6000610102836001600160a01b03841661010b565b90505b92915050565b60006101178383610155565b61014d57508154600181810184556000848152602080822090930184905584548482528286019093526040902091909155610105565b506000610105565b60009081526001919091016020526040902054151590565b610adf8061017c6000396000f3fe608060405234801561001057600080fd5b50600436106100df5760003560e01c806392dfe3671161008c578063ca15c87311610066578063ca15c87314610323578063d547741f14610340578063e0e5d2b21461036c578063f684f33c14610398576100df565b806392dfe367146102e7578063a217fddf14610313578063c1f57bdb1461031b576100df565b806336568abe116100bd57806336568abe1461023c5780639010d07c1461026857806391d14854146102a7576100df565b8063150b7a02146100e4578063248a9ca3146101df5780632f2ff15d1461020e575b600080fd5b6101aa600480360360808110156100fa57600080fd5b6001600160a01b0382358116926020810135909116916040820135919081019060808101606082013564010000000081111561013557600080fd5b82018360208201111561014757600080fd5b8035906020019184600183028401116401000000008311171561016957600080fd5b91908080601f0160208091040260200160405190810160405280939291908181526020018383808284376000920191909152509295506103a0945050505050565b604080517fffffffff000000000000000000000000000000000000000000000000000000009092168252519081900360200190f35b6101fc600480360360208110156101f557600080fd5b50356103c9565b60408051918252519081900360200190f35b61023a6004803603604081101561022457600080fd5b50803590602001356001600160a01b03166103de565b005b61023a6004803603604081101561025257600080fd5b50803590602001356001600160a01b031661044a565b61028b6004803603604081101561027e57600080fd5b50803590602001356104ab565b604080516001600160a01b039092168252519081900360200190f35b6102d3600480360360408110156102bd57600080fd5b50803590602001356001600160a01b03166104cc565b604080519115158252519081900360200190f35b61023a600480360360408110156102fd57600080fd5b506001600160a01b0381351690602001356104e4565b6101fc6105cb565b61028b6105d0565b6101fc6004803603602081101561033957600080fd5b50356105df565b61023a6004803603604081101561035657600080fd5b50803590602001356001600160a01b03166105f6565b61023a6004803603604081101561038257600080fd5b506001600160a01b03813516906020013561064f565b6101fc610719565b7f150b7a0200000000000000000000000000000000000000000000000000000000949350505050565b60009081526020819052604090206002015490565b600082815260208190526040902060020154610401906103fc610752565b6104cc565b61043c5760405162461bcd60e51b815260040180806020018281038252602f815260200180610a1c602f913960400191505060405180910390fd5b6104468282610756565b5050565b610452610752565b6001600160a01b0316816001600160a01b0316146104a15760405162461bcd60e51b815260040180806020018281038252602f815260200180610a7b602f913960400191505060405180910390fd5b61044682826107bf565b60008281526020819052604081206104c39083610828565b90505b92915050565b60008281526020819052604081206104c39083610834565b6105107f8736816fdbcc15d6cc3f6dcf60e42b0ef33eb02281d312c807a38b4ad09190c06103fc610752565b610550576040805162461bcd60e51b815260206004820152600c60248201526b4e6f74204e465420726f6c6560a01b604482015290519081900360640190fd5b60015460408051632142170760e11b81523060048201526001600160a01b038581166024830152604482018590529151919092169182916342842e0e9160648082019260009290919082900301818387803b1580156105ae57600080fd5b505af11580156105c2573d6000803e3d6000fd5b50505050505050565b600081565b6001546001600160a01b031681565b60008181526020819052604081206104c690610849565b600082815260208190526040902060020154610614906103fc610752565b6104a15760405162461bcd60e51b8152600401808060200182810382526030815260200180610a4b6030913960400191505060405180910390fd5b61067b7f8736816fdbcc15d6cc3f6dcf60e42b0ef33eb02281d312c807a38b4ad09190c06103fc610752565b6106bb576040805162461bcd60e51b815260206004820152600c60248201526b4e6f74204e465420726f6c6560a01b604482015290519081900360640190fd5b60015460408051632142170760e11b81526001600160a01b038581166004830152306024830152604482018590529151919092169182916342842e0e9160648082019260009290919082900301818387803b1580156105ae57600080fd5b7f8736816fdbcc15d6cc3f6dcf60e42b0ef33eb02281d312c807a38b4ad09190c081565b60006104c3836001600160a01b038416610854565b3390565b600082815260208190526040902061076e908261073d565b156104465761077b610752565b6001600160a01b0316816001600160a01b0316837f2f8788117e7eff1d82e926ec794901d17c78024a50270940304540a733656f0d60405160405180910390a45050565b60008281526020819052604090206107d7908261089e565b15610446576107e4610752565b6001600160a01b0316816001600160a01b0316837ff6391f5c32d9c69d2a47ea670b442974b53935d1edc7fd64eb21e047a839171b60405160405180910390a45050565b60006104c383836108b3565b60006104c3836001600160a01b038416610917565b60006104c68261092f565b60006108608383610917565b610896575081546001818101845560008481526020808220909301849055845484825282860190935260409020919091556104c6565b5060006104c6565b60006104c3836001600160a01b038416610933565b815460009082106108f55760405162461bcd60e51b81526004018080602001828103825260228152602001806109fa6022913960400191505060405180910390fd5b82600001828154811061090457fe5b9060005260206000200154905092915050565b60009081526001919091016020526040902054151590565b5490565b600081815260018301602052604081205480156109ef578354600019808301919081019060009087908390811061096657fe5b906000526020600020015490508087600001848154811061098357fe5b6000918252602080832090910192909255828152600189810190925260409020908401905586548790806109b357fe5b600190038181906000526020600020016000905590558660010160008781526020019081526020016000206000905560019450505050506104c6565b60009150506104c656fe456e756d657261626c655365743a20696e646578206f7574206f6620626f756e6473416363657373436f6e74726f6c3a2073656e646572206d75737420626520616e2061646d696e20746f206772616e74416363657373436f6e74726f6c3a2073656e646572206d75737420626520616e2061646d696e20746f207265766f6b65416363657373436f6e74726f6c3a2063616e206f6e6c792072656e6f756e636520726f6c657320666f722073656c66a264697066735822122045b93a0bacbd553d0a9c1271d2d1835479641dcd1c01ff62083b645ec00b558e64736f6c634300060c0033",
  "linkReferences": {},
  "deployedLinkReferences": {}
}