{
  "_format": "hh-sol-artifact-1",
  "contractName": "ArcaneTrader",
  "sourceName": "src/ArcaneTrader.sol",
  "abi": [
    {
      "inputs": [
        {
          "internalType": "contract ArcaneItems",
          "name": "_items",
          "type": "address"
        }
      ],
      "stateMutability": "nonpayable",
      "type": "constructor"
    },
    {
      "anonymous": false,
      "inputs": [
        {
          "indexed": true,
          "internalType": "address",
          "name": "previousOwner",
          "type": "address"
        },
        {
          "indexed": true,
          "internalType": "address",
          "name": "newOwner",
          "type": "address"
        }
      ],
      "name": "OwnershipTransferred",
      "type": "event"
    },
    {
      "inputs": [
        {
          "internalType": "address",
          "name": "_seller",
          "type": "address"
        },
        {
          "internalType": "uint256",
          "name": "_tokenId",
          "type": "uint256"
        }
      ],
      "name": "accept",
      "outputs": [],
      "stateMutability": "payable",
      "type": "function"
    },
    {
      "inputs": [
        {
          "internalType": "address",
          "name": "_buyer",
          "type": "address"
        },
        {
          "internalType": "uint256",
          "name": "_tokenId",
          "type": "uint256"
        }
      ],
      "name": "cancel",
      "outputs": [],
      "stateMutability": "nonpayable",
      "type": "function"
    },
    {
      "inputs": [],
      "name": "items",
      "outputs": [
        {
          "internalType": "contract ArcaneItems",
          "name": "",
          "type": "address"
        }
      ],
      "stateMutability": "view",
      "type": "function"
    },
    {
      "inputs": [],
      "name": "owner",
      "outputs": [
        {
          "internalType": "address",
          "name": "",
          "type": "address"
        }
      ],
      "stateMutability": "view",
      "type": "function"
    },
    {
      "inputs": [],
      "name": "renounceOwnership",
      "outputs": [],
      "stateMutability": "nonpayable",
      "type": "function"
    },
    {
      "inputs": [
        {
          "internalType": "address",
          "name": "_buyer",
          "type": "address"
        },
        {
          "internalType": "uint256",
          "name": "_tokenId",
          "type": "uint256"
        },
        {
          "internalType": "uint256",
          "name": "_price",
          "type": "uint256"
        }
      ],
      "name": "trade",
      "outputs": [],
      "stateMutability": "nonpayable",
      "type": "function"
    },
    {
      "inputs": [
        {
          "internalType": "address",
          "name": "",
          "type": "address"
        },
        {
          "internalType": "uint256",
          "name": "",
          "type": "uint256"
        }
      ],
      "name": "tradeBuyer",
      "outputs": [
        {
          "internalType": "address",
          "name": "",
          "type": "address"
        }
      ],
      "stateMutability": "view",
      "type": "function"
    },
    {
      "inputs": [
        {
          "internalType": "address",
          "name": "",
          "type": "address"
        },
        {
          "internalType": "uint256",
          "name": "",
          "type": "uint256"
        }
      ],
      "name": "tradePrice",
      "outputs": [
        {
          "internalType": "uint256",
          "name": "",
          "type": "uint256"
        }
      ],
      "stateMutability": "view",
      "type": "function"
    },
    {
      "inputs": [
        {
          "internalType": "address",
          "name": "newOwner",
          "type": "address"
        }
      ],
      "name": "transferOwnership",
      "outputs": [],
      "stateMutability": "nonpayable",
      "type": "function"
    }
  ],
  "bytecode": "0x608060405234801561001057600080fd5b50604051610b8d380380610b8d83398101604081905261002f916100ac565b60006100396100a8565b600080546001600160a01b0319166001600160a01b0383169081178255604051929350917f8be0079c531659141344cd1fd0a4f28419497f9722a3daafe3b4186f6b6457e0908290a350600180546001600160a01b0319166001600160a01b03929092169190911790556100da565b3390565b6000602082840312156100bd578081fd5b81516001600160a01b03811681146100d3578182fd5b9392505050565b610aa4806100e96000396000f3fe6080604052600436106100965760003560e01c806398590ef911610069578063c06fad061161004e578063c06fad061461016a578063cd67571c1461017f578063f2fde38b1461019257610096565b806398590ef91461012a578063b44b96e11461014a57610096565b80635c8d3e1d1461009b578063715018a6146100d15780637eacaa66146100e85780638da5cb5b14610115575b600080fd5b3480156100a757600080fd5b506100bb6100b6366004610811565b6101b2565b6040516100c89190610870565b60405180910390f35b3480156100dd57600080fd5b506100e66101d8565b005b3480156100f457600080fd5b50610108610103366004610811565b61026a565b6040516100c89190610a4d565b34801561012157600080fd5b506100bb610287565b34801561013657600080fd5b506100e6610145366004610811565b610296565b34801561015657600080fd5b506100e661016536600461083c565b610391565b34801561017657600080fd5b506100bb6105b3565b6100e661018d366004610811565b6105c2565b34801561019e57600080fd5b506100e66101ad3660046107d2565b61070e565b60026020908152600092835260408084209091529082529020546001600160a01b031681565b6101e06107ce565b6001600160a01b03166101f1610287565b6001600160a01b0316146102205760405162461bcd60e51b8152600401610217906109aa565b60405180910390fd5b600080546040516001600160a01b03909116907f8be0079c531659141344cd1fd0a4f28419497f9722a3daafe3b4186f6b6457e0908390a3600080546001600160a01b0319169055565b600360209081526000928352604080842090915290825290205481565b6000546001600160a01b031690565b60006102a06107ce565b6001546001600160a01b0380831660009081526002602090815260408083208884529091529020549293509081169116156102ed5760405162461bcd60e51b815260040161021790610a16565b6001600160a01b038083166000818152600260209081526040808320888452825280832080546001600160a01b03191690559282526003815282822087835290528181205551632142170760e11b8152908216906342842e0e9061035990309086908890600401610884565b600060405180830381600087803b15801561037357600080fd5b505af1158015610387573d6000803e3d6000fd5b5050505050505050565b600061039b6107ce565b6001546040517f6352211e0000000000000000000000000000000000000000000000000000000081529192506001600160a01b0316908190636352211e906103e7908790600401610a4d565b60206040518083038186803b1580156103ff57600080fd5b505afa158015610413573d6000803e3d6000fd5b505050506040513d601f19601f8201168201806040525081019061043791906107f5565b6001600160a01b0316826001600160a01b0316146104675760405162461bcd60e51b8152600401610217906109df565b6001600160a01b038281166000908152600260209081526040808320888452909152902054166104a95760405162461bcd60e51b81526004016102179061093c565b6001600160a01b03821660009081526003602090815260408083208784529091529020546104e95760405162461bcd60e51b81526004016102179061093c565b6001600160a01b038516156104fe5784610502565b61dead5b6001600160a01b0383811660008181526002602090815260408083208a8452825280832080546001600160a01b03191696861696909617909555918152600382528381208882529091528290208590559051632142170760e11b8152908216906342842e0e9061057a90859030908990600401610884565b600060405180830381600087803b15801561059457600080fd5b505af11580156105a8573d6000803e3d6000fd5b505050505050505050565b6001546001600160a01b031681565b6001600160a01b038083166000818152600260209081526040808320868452825280832054938352600382528083208684529091529020543492919091169061dead82148061062957506106146107ce565b6001600160a01b0316826001600160a01b0316145b6106455760405162461bcd60e51b815260040161021790610905565b8083116106645760405162461bcd60e51b815260040161021790610973565b6001546001600160a01b0386811660008181526002602090815260408083208a8452825280832080546001600160a01b03191690559282526003815282822089835290528181205551632142170760e11b815291169081906342842e0e906106d490309087908a90600401610884565b600060405180830381600087803b1580156106ee57600080fd5b505af1158015610702573d6000803e3d6000fd5b50505050505050505050565b6107166107ce565b6001600160a01b0316610727610287565b6001600160a01b03161461074d5760405162461bcd60e51b8152600401610217906109aa565b6001600160a01b0381166107735760405162461bcd60e51b8152600401610217906108a8565b600080546040516001600160a01b03808516939216917f8be0079c531659141344cd1fd0a4f28419497f9722a3daafe3b4186f6b6457e091a3600080546001600160a01b0319166001600160a01b0392909216919091179055565b3390565b6000602082840312156107e3578081fd5b81356107ee81610a56565b9392505050565b600060208284031215610806578081fd5b81516107ee81610a56565b60008060408385031215610823578081fd5b823561082e81610a56565b946020939093013593505050565b600080600060608486031215610850578081fd5b833561085b81610a56565b95602085013595506040909401359392505050565b6001600160a01b0391909116815260200190565b6001600160a01b039384168152919092166020820152604081019190915260600190565b60208082526026908201527f4f776e61626c653a206e6577206f776e657220697320746865207a65726f206160408201527f6464726573730000000000000000000000000000000000000000000000000000606082015260800190565b60208082526011908201527f4e6f7420612076616c6964206275796572000000000000000000000000000000604082015260600190565b6020808252600c908201527f5472616465206578697374730000000000000000000000000000000000000000604082015260600190565b6020808252600a908201527f4e6f7420656e6f75676800000000000000000000000000000000000000000000604082015260600190565b6020808252818101527f4f776e61626c653a2063616c6c6572206973206e6f7420746865206f776e6572604082015260600190565b6020808252601b908201527f4f6e6c79204e4654206f776e65722063616e207472616e736665720000000000604082015260600190565b60208082526012908201527f547261646520646f65736e742065786973740000000000000000000000000000604082015260600190565b90815260200190565b6001600160a01b0381168114610a6b57600080fd5b5056fea26469706673582212203640ba5bdbcffa7d39b0fe230bccfc55b4c0e5f5ddd13bc5591297c98b771a4b64736f6c634300060c0033",
  "linkReferences": {},
  "deployedLinkReferences": {}
}