{
  "_format": "hh-sol-artifact-1",
  "contractName": "WorldstoneMinter",
  "sourceName": "src/WorldstoneMinter.sol",
  "abi": [
    {
      "inputs": [
        {
          "internalType": "contract ArcaneItemMintingStation",
          "name": "_itemMintingStation",
          "type": "address"
        },
        {
          "internalType": "contract IBEP20",
          "name": "_runeToken",
          "type": "address"
        },
        {
          "internalType": "uint256",
          "name": "_tokenPrice",
          "type": "uint256"
        },
        {
          "internalType": "uint256",
          "name": "_startBlockNumber",
          "type": "uint256"
        },
        {
          "internalType": "address",
          "name": "_farmAddress",
          "type": "address"
        }
      ],
      "stateMutability": "nonpayable",
      "type": "constructor"
    },
    {
      "anonymous": false,
      "inputs": [
        {
          "indexed": true,
          "internalType": "address",
          "name": "to",
          "type": "address"
        },
        {
          "indexed": true,
          "internalType": "uint256",
          "name": "tokenId",
          "type": "uint256"
        },
        {
          "indexed": true,
          "internalType": "uint16",
          "name": "itemId",
          "type": "uint16"
        }
      ],
      "name": "ItemMint",
      "type": "event"
    },
    {
      "anonymous": false,
      "inputs": [
        {
          "indexed": true,
          "internalType": "address",
          "name": "previousOwner",
          "type": "address"
        },
        {
          "indexed": true,
          "internalType": "address",
          "name": "newOwner",
          "type": "address"
        }
      ],
      "name": "OwnershipTransferred",
      "type": "event"
    },
    {
      "inputs": [
        {
          "internalType": "uint256",
          "name": "_amount",
          "type": "uint256"
        }
      ],
      "name": "claimFee",
      "outputs": [],
      "stateMutability": "nonpayable",
      "type": "function"
    },
    {
      "inputs": [],
      "name": "farmAddress",
      "outputs": [
        {
          "internalType": "address",
          "name": "",
          "type": "address"
        }
      ],
      "stateMutability": "view",
      "type": "function"
    },
    {
      "inputs": [
        {
          "internalType": "uint256",
          "name": "begin",
          "type": "uint256"
        },
        {
          "internalType": "uint256",
          "name": "end",
          "type": "uint256"
        },
        {
          "internalType": "string",
          "name": "text",
          "type": "string"
        }
      ],
      "name": "getSlice",
      "outputs": [
        {
          "internalType": "string",
          "name": "",
          "type": "string"
        }
      ],
      "stateMutability": "pure",
      "type": "function"
    },
    {
      "inputs": [
        {
          "internalType": "address",
          "name": "",
          "type": "address"
        }
      ],
      "name": "hasClaimedShard",
      "outputs": [
        {
          "internalType": "bool",
          "name": "",
          "type": "bool"
        }
      ],
      "stateMutability": "view",
      "type": "function"
    },
    {
      "inputs": [],
      "name": "itemMintingStation",
      "outputs": [
        {
          "internalType": "contract ArcaneItemMintingStation",
          "name": "",
          "type": "address"
        }
      ],
      "stateMutability": "view",
      "type": "function"
    },
    {
      "inputs": [
        {
          "internalType": "uint16",
          "name": "rand",
          "type": "uint16"
        }
      ],
      "name": "mint",
      "outputs": [],
      "stateMutability": "nonpayable",
      "type": "function"
    },
    {
      "inputs": [],
      "name": "mintingEnabled",
      "outputs": [
        {
          "internalType": "bool",
          "name": "",
          "type": "bool"
        }
      ],
      "stateMutability": "view",
      "type": "function"
    },
    {
      "inputs": [],
      "name": "owner",
      "outputs": [
        {
          "internalType": "address",
          "name": "",
          "type": "address"
        }
      ],
      "stateMutability": "view",
      "type": "function"
    },
    {
      "inputs": [],
      "name": "renounceOwnership",
      "outputs": [],
      "stateMutability": "nonpayable",
      "type": "function"
    },
    {
      "inputs": [],
      "name": "runeToken",
      "outputs": [
        {
          "internalType": "contract IBEP20",
          "name": "",
          "type": "address"
        }
      ],
      "stateMutability": "view",
      "type": "function"
    },
    {
      "inputs": [
        {
          "internalType": "bool",
          "name": "_mintingEnabled",
          "type": "bool"
        }
      ],
      "name": "setMintingEnabled",
      "outputs": [],
      "stateMutability": "nonpayable",
      "type": "function"
    },
    {
      "inputs": [
        {
          "internalType": "uint256",
          "name": "_newStartBlockNumber",
          "type": "uint256"
        }
      ],
      "name": "setStartBlockNumber",
      "outputs": [],
      "stateMutability": "nonpayable",
      "type": "function"
    },
    {
      "inputs": [],
      "name": "startBlockNumber",
      "outputs": [
        {
          "internalType": "uint256",
          "name": "",
          "type": "uint256"
        }
      ],
      "stateMutability": "view",
      "type": "function"
    },
    {
      "inputs": [],
      "name": "tokenPrice",
      "outputs": [
        {
          "internalType": "uint256",
          "name": "",
          "type": "uint256"
        }
      ],
      "stateMutability": "view",
      "type": "function"
    },
    {
      "inputs": [
        {
          "internalType": "address",
          "name": "newOwner",
          "type": "address"
        }
      ],
      "name": "transferOwnership",
      "outputs": [],
      "stateMutability": "nonpayable",
      "type": "function"
    },
    {
      "inputs": [
        {
          "internalType": "uint256",
          "name": "_newTokenPrice",
          "type": "uint256"
        }
      ],
      "name": "updateTokenPrice",
      "outputs": [],
      "stateMutability": "nonpayable",
      "type": "function"
    },
    {
      "inputs": [],
      "name": "vaultAddress",
      "outputs": [
        {
          "internalType": "address",
          "name": "",
          "type": "address"
        }
      ],
      "stateMutability": "view",
      "type": "function"
    }
  ],
  "bytecode": "0x60806040526001600860006101000a81548160ff0219169083151502179055503480156200002c57600080fd5b50604051620029c2380380620029c2833981810160405281019062000052919062000297565b6000620000646200023360201b60201c565b9050806000806101000a81548173ffffffffffffffffffffffffffffffffffffffff021916908373ffffffffffffffffffffffffffffffffffffffff1602179055508073ffffffffffffffffffffffffffffffffffffffff16600073ffffffffffffffffffffffffffffffffffffffff167f8be0079c531659141344cd1fd0a4f28419497f9722a3daafe3b4186f6b6457e060405160405180910390a35084600160006101000a81548173ffffffffffffffffffffffffffffffffffffffff021916908373ffffffffffffffffffffffffffffffffffffffff16021790555083600260006101000a81548173ffffffffffffffffffffffffffffffffffffffff021916908373ffffffffffffffffffffffffffffffffffffffff160217905550826004819055508160038190555073602a27bbf954b6945534a84c8c88fb8ca9e92b7f600560006101000a81548173ffffffffffffffffffffffffffffffffffffffff021916908373ffffffffffffffffffffffffffffffffffffffff16021790555080600660006101000a81548173ffffffffffffffffffffffffffffffffffffffff021916908373ffffffffffffffffffffffffffffffffffffffff1602179055505050505050620003e7565b600033905090565b6000815190506200024c816200037f565b92915050565b600081519050620002638162000399565b92915050565b6000815190506200027a81620003b3565b92915050565b6000815190506200029181620003cd565b92915050565b600080600080600060a08688031215620002b057600080fd5b6000620002c08882890162000252565b9550506020620002d38882890162000269565b9450506040620002e68882890162000280565b9350506060620002f98882890162000280565b92505060806200030c888289016200023b565b9150509295509295909350565b6000620003268262000355565b9050919050565b60006200033a8262000319565b9050919050565b60006200034e8262000319565b9050919050565b600073ffffffffffffffffffffffffffffffffffffffff82169050919050565b6000819050919050565b6200038a8162000319565b81146200039657600080fd5b50565b620003a4816200032d565b8114620003b057600080fd5b50565b620003be8162000341565b8114620003ca57600080fd5b50565b620003d88162000375565b8114620003e457600080fd5b50565b6125cb80620003f76000396000f3fe608060405234801561001057600080fd5b506004361061010b5760003560e01c80637f60b20a116100a25780639fd6db12116100715780639fd6db121461026e578063a2685a5d1461028c578063f2fde38b146102bc578063f667526a146102d8578063f9da3f75146102f45761010b565b80637f60b20a146101e45780637ff9b596146102145780638da5cb5b146102325780639fd53f2b146102505761010b565b80634ea3871a116100de5780634ea3871a1461018457806361e604dd146101a0578063676c0d77146101be578063715018a6146101da5761010b565b806323cf0a2214610110578063241735971461012c578063430bf08a14610148578063498a4c2d14610166575b600080fd5b61012a60048036038101906101259190611a19565b610312565b005b61014660048036038101906101419190611a42565b6108c9565b005b610150610991565b60405161015d9190611ff3565b60405180910390f35b61016e6109b7565b60405161017b9190612288565b60405180910390f35b61019e60048036038101906101999190611986565b6109bd565b005b6101a8610a56565b6040516101b591906120f0565b60405180910390f35b6101d860048036038101906101d39190611a42565b610a7c565b005b6101e2610b02565b005b6101fe60048036038101906101f99190611a94565b610c3c565b60405161020b9190612126565b60405180910390f35b61021c610d0d565b6040516102299190612288565b60405180910390f35b61023a610d13565b6040516102479190611ff3565b60405180910390f35b610258610d3c565b604051610265919061210b565b60405180910390f35b610276610d62565b60405161028391906120d5565b60405180910390f35b6102a660048036038101906102a1919061195d565b610d75565b6040516102b391906120d5565b60405180910390f35b6102d660048036038101906102d1919061195d565b610d95565b005b6102f260048036038101906102ed9190611a42565b610f3e565b005b6102fc611011565b6040516103099190611ff3565b60405180910390f35b60011515600860009054906101000a900460ff16151514610368576040517f08c379a000000000000000000000000000000000000000000000000000000000815260040161035f90612208565b60405180910390fd5b60035443116103ac576040517f08c379a00000000000000000000000000000000000000000000000000000000081526004016103a390612228565b60405180910390fd5b600760006103b8611037565b73ffffffffffffffffffffffffffffffffffffffff1673ffffffffffffffffffffffffffffffffffffffff16815260200190815260200160002060009054906101000a900460ff1615610440576040517f08c379a0000000000000000000000000000000000000000000000000000000008152600401610437906121c8565b60405180910390fd5b6000600660009054906101000a900473ffffffffffffffffffffffffffffffffffffffff1673ffffffffffffffffffffffffffffffffffffffff166372d0d564610488611037565b6040518263ffffffff1660e01b81526004016104a4919061200e565b60206040518083038186803b1580156104bc57600080fd5b505afa1580156104d0573d6000803e3d6000fd5b505050506040513d601f19601f820116820180604052508101906104f49190611a6b565b905060008111610539576040517f08c379a000000000000000000000000000000000000000000000000000000000815260040161053090612268565b60405180910390fd5b6105416116f1565b600660009054906101000a900473ffffffffffffffffffffffffffffffffffffffff1673ffffffffffffffffffffffffffffffffffffffff16633129e773836040518263ffffffff1660e01b815260040161059c9190612288565b60006040518083038186803b1580156105b457600080fd5b505afa1580156105c8573d6000803e3d6000fd5b505050506040513d6000823e3d601f19601f820116820180604052508101906105f191906119d8565b90506003816020015161ffff1614801561061357506001816000015161ffff16145b610652576040517f08c379a000000000000000000000000000000000000000000000000000000000815260040161064990612268565b60405180910390fd5b600060045411156106d8576106d7610668611037565b600560009054906101000a900473ffffffffffffffffffffffffffffffffffffffff16600454600260009054906101000a900473ffffffffffffffffffffffffffffffffffffffff1673ffffffffffffffffffffffffffffffffffffffff1661103f909392919063ffffffff16565b5b6001600760006106e6611037565b73ffffffffffffffffffffffffffffffffffffffff1673ffffffffffffffffffffffffffffffffffffffff16815260200190815260200160002060006101000a81548160ff0219169083151502179055506000600490506060604051806060016040528060408152602001612556604091399050606061076f61076a6103e76110c8565b611120565b905060006107b3610781836003611304565b61078e8961ffff16611120565b60405160200161079f929190611f76565b60405160208183030381529060405261135a565b9050600160009054906101000a900473ffffffffffffffffffffffffffffffffffffffff1673ffffffffffffffffffffffffffffffffffffffff1663cf0504746107fb611037565b8587856040518563ffffffff1660e01b815260040161081d9493929190612029565b602060405180830381600087803b15801561083757600080fd5b505af115801561084b573d6000803e3d6000fd5b505050506040513d601f19601f8201168201806040525081019061086f9190611a6b565b508361ffff168161087e611037565b73ffffffffffffffffffffffffffffffffffffffff167fbc6001cfe06d9841f1d11a60a0468bcdcb5552dc7d2c4d248bdeccc60ed1a97e60405160405180910390a450505050505050565b6108d1611037565b73ffffffffffffffffffffffffffffffffffffffff166108ef610d13565b73ffffffffffffffffffffffffffffffffffffffff1614610945576040517f08c379a000000000000000000000000000000000000000000000000000000000815260040161093c906121e8565b60405180910390fd5b438111610987576040517f08c379a000000000000000000000000000000000000000000000000000000000815260040161097e906121a8565b60405180910390fd5b8060038190555050565b600560009054906101000a900473ffffffffffffffffffffffffffffffffffffffff1681565b60035481565b6109c5611037565b73ffffffffffffffffffffffffffffffffffffffff166109e3610d13565b73ffffffffffffffffffffffffffffffffffffffff1614610a39576040517f08c379a0000000000000000000000000000000000000000000000000000000008152600401610a30906121e8565b60405180910390fd5b80600860006101000a81548160ff02191690831515021790555050565b600160009054906101000a900473ffffffffffffffffffffffffffffffffffffffff1681565b610a84611037565b73ffffffffffffffffffffffffffffffffffffffff16610aa2610d13565b73ffffffffffffffffffffffffffffffffffffffff1614610af8576040517f08c379a0000000000000000000000000000000000000000000000000000000008152600401610aef906121e8565b60405180910390fd5b8060048190555050565b610b0a611037565b73ffffffffffffffffffffffffffffffffffffffff16610b28610d13565b73ffffffffffffffffffffffffffffffffffffffff1614610b7e576040517f08c379a0000000000000000000000000000000000000000000000000000000008152600401610b75906121e8565b60405180910390fd5b600073ffffffffffffffffffffffffffffffffffffffff1660008054906101000a900473ffffffffffffffffffffffffffffffffffffffff1673ffffffffffffffffffffffffffffffffffffffff167f8be0079c531659141344cd1fd0a4f28419497f9722a3daafe3b4186f6b6457e060405160405180910390a360008060006101000a81548173ffffffffffffffffffffffffffffffffffffffff021916908373ffffffffffffffffffffffffffffffffffffffff160217905550565b60608060018585030167ffffffffffffffff81118015610c5b57600080fd5b506040519080825280601f01601f191660200182016040528015610c8e5781602001600182028036833780820191505090505b50905060005b8585038111610d01578360018783010381518110610cae57fe5b602001015160f81c60f81b828281518110610cc557fe5b60200101907effffffffffffffffffffffffffffffffffffffffffffffffffffffffffffff1916908160001a9053508080600101915050610c94565b50809150509392505050565b60045481565b60008060009054906101000a900473ffffffffffffffffffffffffffffffffffffffff16905090565b600260009054906101000a900473ffffffffffffffffffffffffffffffffffffffff1681565b600860009054906101000a900460ff1681565b60076020528060005260406000206000915054906101000a900460ff1681565b610d9d611037565b73ffffffffffffffffffffffffffffffffffffffff16610dbb610d13565b73ffffffffffffffffffffffffffffffffffffffff1614610e11576040517f08c379a0000000000000000000000000000000000000000000000000000000008152600401610e08906121e8565b60405180910390fd5b600073ffffffffffffffffffffffffffffffffffffffff168173ffffffffffffffffffffffffffffffffffffffff161415610e81576040517f08c379a0000000000000000000000000000000000000000000000000000000008152600401610e7890612168565b60405180910390fd5b8073ffffffffffffffffffffffffffffffffffffffff1660008054906101000a900473ffffffffffffffffffffffffffffffffffffffff1673ffffffffffffffffffffffffffffffffffffffff167f8be0079c531659141344cd1fd0a4f28419497f9722a3daafe3b4186f6b6457e060405160405180910390a3806000806101000a81548173ffffffffffffffffffffffffffffffffffffffff021916908373ffffffffffffffffffffffffffffffffffffffff16021790555050565b610f46611037565b73ffffffffffffffffffffffffffffffffffffffff16610f64610d13565b73ffffffffffffffffffffffffffffffffffffffff1614610fba576040517f08c379a0000000000000000000000000000000000000000000000000000000008152600401610fb1906121e8565b60405180910390fd5b61100e610fc5611037565b82600260009054906101000a900473ffffffffffffffffffffffffffffffffffffffff1673ffffffffffffffffffffffffffffffffffffffff166113fd9092919063ffffffff16565b50565b600660009054906101000a900473ffffffffffffffffffffffffffffffffffffffff1681565b600033905090565b6110c2846323b872dd60e01b85858560405160240161106093929190612075565b604051602081830303815290604052907bffffffffffffffffffffffffffffffffffffffffffffffffffffffff19166020820180517bffffffffffffffffffffffffffffffffffffffffffffffffffffffff8381831617835250505050611483565b50505050565b60006001600960008282540192505081905550600182014244336009546040516020016110f89493929190611fa5565b6040516020818303038152906040528051906020012060001c8161111857fe5b069050919050565b60606000821415611168576040518060400160405280600181526020017f300000000000000000000000000000000000000000000000000000000000000081525090506112ff565b60006064905060608167ffffffffffffffff8111801561118757600080fd5b506040519080825280601f01601f1916602001820160405280156111ba5781602001600182028036833780820191505090505b50905060005b60008514611232576000600a86816111d457fe5b069050600a86816111e157fe5b0495508060300160f81b8383806001019450815181106111fd57fe5b60200101907effffffffffffffffffffffffffffffffffffffffffffffffffffffffffffff1916908160001a905350506111c0565b60608167ffffffffffffffff8111801561124b57600080fd5b506040519080825280601f01601f19166020018201604052801561127e5781602001600182028036833780820191505090505b50905060005b828110156112f057836001828503038151811061129d57fe5b602001015160f81c60f81b8282815181106112b457fe5b60200101907effffffffffffffffffffffffffffffffffffffffffffffffffffffffffffff1916908160001a9053508080600101915050611284565b50606081905080955050505050505b919050565b6060806040518060400160405280600981526020017f30303030303030303000000000000000000000000000000000000000000000008152509050611351600085518560ff160383610c3c565b91505092915050565b600060608290506000805b82518110156113f257603083828151811061137c57fe5b602001015160f81c60f81b60f81c60ff16101580156113b8575060398382815181106113a457fe5b602001015160f81c60f81b60f81c60ff1611155b156113e55760308382815181106113cb57fe5b602001015160f81c60f81b60f81c0360ff16600a83020191505b8080600101915050611365565b508092505050919050565b61147e8363a9059cbb60e01b848460405160240161141c9291906120ac565b604051602081830303815290604052907bffffffffffffffffffffffffffffffffffffffffffffffffffffffff19166020820180517bffffffffffffffffffffffffffffffffffffffffffffffffffffffff8381831617835250505050611483565b505050565b60606114e5826040518060400160405280602081526020017f5361666542455032303a206c6f772d6c6576656c2063616c6c206661696c65648152508573ffffffffffffffffffffffffffffffffffffffff1661154a9092919063ffffffff16565b9050600081511115611545578080602001905181019061150591906119af565b611544576040517f08c379a000000000000000000000000000000000000000000000000000000000815260040161153b90612148565b60405180910390fd5b5b505050565b60606115598484600085611562565b90509392505050565b6060824710156115a7576040517f08c379a000000000000000000000000000000000000000000000000000000000815260040161159e90612188565b60405180910390fd5b6115b085611677565b6115ef576040517f08c379a00000000000000000000000000000000000000000000000000000000081526004016115e690612248565b60405180910390fd5b600060608673ffffffffffffffffffffffffffffffffffffffff1685876040516116199190611f5f565b60006040518083038185875af1925050503d8060008114611656576040519150601f19603f3d011682016040523d82523d6000602084013e61165b565b606091505b509150915061166b82828661168a565b92505050949350505050565b600080823b905060008111915050919050565b6060831561169a578290506116ea565b6000835111156116ad5782518084602001fd5b816040517f08c379a00000000000000000000000000000000000000000000000000000000081526004016116e19190612126565b60405180910390fd5b9392505050565b6040518060600160405280600061ffff168152602001600061ffff168152602001606081525090565b600081359050611729816124e2565b92915050565b600082601f83011261174057600080fd5b815161175361174e826122d0565b6122a3565b9150818183526020840193506020810190508385604084028201111561177857600080fd5b60005b838110156117a8578161178e8882611830565b84526020840193506040830192505060018101905061177b565b5050505092915050565b6000813590506117c1816124f9565b92915050565b6000815190506117d6816124f9565b92915050565b600082601f8301126117ed57600080fd5b81356118006117fb826122f8565b6122a3565b9150808252602083016020830185838301111561181c57600080fd5b611827838284612454565b50505092915050565b60006040828403121561184257600080fd5b61184c60406122a3565b9050600061185c84828501611948565b600083015250602061187084828501611909565b60208301525092915050565b60006060828403121561188e57600080fd5b61189860606122a3565b905060006118a884828501611909565b60008301525060206118bc84828501611909565b602083015250604082015167ffffffffffffffff8111156118dc57600080fd5b6118e88482850161172f565b60408301525092915050565b60008135905061190381612510565b92915050565b60008151905061191881612510565b92915050565b60008135905061192d81612527565b92915050565b60008151905061194281612527565b92915050565b6000815190506119578161253e565b92915050565b60006020828403121561196f57600080fd5b600061197d8482850161171a565b91505092915050565b60006020828403121561199857600080fd5b60006119a6848285016117b2565b91505092915050565b6000602082840312156119c157600080fd5b60006119cf848285016117c7565b91505092915050565b6000602082840312156119ea57600080fd5b600082015167ffffffffffffffff811115611a0457600080fd5b611a108482850161187c565b91505092915050565b600060208284031215611a2b57600080fd5b6000611a39848285016118f4565b91505092915050565b600060208284031215611a5457600080fd5b6000611a628482850161191e565b91505092915050565b600060208284031215611a7d57600080fd5b6000611a8b84828501611933565b91505092915050565b600080600060608486031215611aa957600080fd5b6000611ab78682870161191e565b9350506020611ac88682870161191e565b925050604084013567ffffffffffffffff811115611ae557600080fd5b611af1868287016117dc565b9150509250925092565b611b04816123d6565b82525050565b611b1b611b1682612373565b612496565b82525050565b611b2a81612361565b82525050565b611b3981612385565b82525050565b6000611b4a82612324565b611b54818561233a565b9350611b64818560208601612463565b80840191505092915050565b611b79816123e8565b82525050565b611b888161240c565b82525050565b6000611b998261232f565b611ba38185612345565b9350611bb3818560208601612463565b611bbc816124c4565b840191505092915050565b6000611bd28261232f565b611bdc8185612356565b9350611bec818560208601612463565b80840191505092915050565b6000611c05602a83612345565b91507f5361666542455032303a204245503230206f7065726174696f6e20646964206e60008301527f6f742073756363656564000000000000000000000000000000000000000000006020830152604082019050919050565b6000611c6b602683612345565b91507f4f776e61626c653a206e6577206f776e657220697320746865207a65726f206160008301527f64647265737300000000000000000000000000000000000000000000000000006020830152604082019050919050565b6000611cd1602683612345565b91507f416464726573733a20696e73756666696369656e742062616c616e636520666f60008301527f722063616c6c00000000000000000000000000000000000000000000000000006020830152604082019050919050565b6000611d37600983612345565b91507f746f6f2073686f727400000000000000000000000000000000000000000000006000830152602082019050919050565b6000611d77601283612356565b91507f31303031303030303431303030313030303100000000000000000000000000006000830152601282019050919050565b6000611db7600f83612345565b91507f416c726561647920636c61696d656400000000000000000000000000000000006000830152602082019050919050565b6000611df7602083612345565b91507f4f776e61626c653a2063616c6c6572206973206e6f7420746865206f776e65726000830152602082019050919050565b6000611e37601083612345565b91507f4d696e74696e672064697361626c6564000000000000000000000000000000006000830152602082019050919050565b6000611e77600983612345565b91507f546f6f206561726c7900000000000000000000000000000000000000000000006000830152602082019050919050565b6000611eb7601d83612345565b91507f416464726573733a2063616c6c20746f206e6f6e2d636f6e74726163740000006000830152602082019050919050565b6000611ef7601083612345565b91507f4e6f206974656d206571756970706564000000000000000000000000000000006000830152602082019050919050565b611f3381612391565b82525050565b611f42816123bf565b82525050565b611f59611f54826123bf565b6124ba565b82525050565b6000611f6b8284611b3f565b915081905092915050565b6000611f8182611d6a565b9150611f8d8285611bc7565b9150611f998284611bc7565b91508190509392505050565b6000611fb18287611f48565b602082019150611fc18286611f48565b602082019150611fd18285611b0a565b601482019150611fe18284611f48565b60208201915081905095945050505050565b60006020820190506120086000830184611b21565b92915050565b60006020820190506120236000830184611afb565b92915050565b600060808201905061203e6000830187611afb565b81810360208301526120508186611b8e565b905061205f6040830185611f2a565b61206c6060830184611f39565b95945050505050565b600060608201905061208a6000830186611b21565b6120976020830185611b21565b6120a46040830184611f39565b949350505050565b60006040820190506120c16000830185611b21565b6120ce6020830184611f39565b9392505050565b60006020820190506120ea6000830184611b30565b92915050565b60006020820190506121056000830184611b70565b92915050565b60006020820190506121206000830184611b7f565b92915050565b600060208201905081810360008301526121408184611b8e565b905092915050565b6000602082019050818103600083015261216181611bf8565b9050919050565b6000602082019050818103600083015261218181611c5e565b9050919050565b600060208201905081810360008301526121a181611cc4565b9050919050565b600060208201905081810360008301526121c181611d2a565b9050919050565b600060208201905081810360008301526121e181611daa565b9050919050565b6000602082019050818103600083015261220181611dea565b9050919050565b6000602082019050818103600083015261222181611e2a565b9050919050565b6000602082019050818103600083015261224181611e6a565b9050919050565b6000602082019050818103600083015261226181611eaa565b9050919050565b6000602082019050818103600083015261228181611eea565b9050919050565b600060208201905061229d6000830184611f39565b92915050565b6000604051905081810181811067ffffffffffffffff821117156122c657600080fd5b8060405250919050565b600067ffffffffffffffff8211156122e757600080fd5b602082029050602081019050919050565b600067ffffffffffffffff82111561230f57600080fd5b601f19601f8301169050602081019050919050565b600081519050919050565b600081519050919050565b600081905092915050565b600082825260208201905092915050565b600081905092915050565b600061236c8261239f565b9050919050565b600061237e8261239f565b9050919050565b60008115159050919050565b600061ffff82169050919050565b600073ffffffffffffffffffffffffffffffffffffffff82169050919050565b6000819050919050565b600060ff82169050919050565b60006123e182612430565b9050919050565b60006123f3826123fa565b9050919050565b60006124058261239f565b9050919050565b60006124178261241e565b9050919050565b60006124298261239f565b9050919050565b600061243b82612442565b9050919050565b600061244d8261239f565b9050919050565b82818337600083830152505050565b60005b83811015612481578082015181840152602081019050612466565b83811115612490576000848401525b50505050565b60006124a1826124a8565b9050919050565b60006124b3826124d5565b9050919050565b6000819050919050565b6000601f19601f8301169050919050565b60008160601b9050919050565b6124eb81612361565b81146124f657600080fd5b50565b61250281612385565b811461250d57600080fd5b50565b61251981612391565b811461252457600080fd5b50565b612530816123bf565b811461253b57600080fd5b50565b612547816123c9565b811461255257600080fd5b5056fe6d74776972737161776a756f6c6f7132677674797567327463336a62663568746d327a656f3472736b6e666976336664703436612f6974656d2d342e6a736f6ea2646970667358221220e2c4e4f2593fdd34d663b9e1940837fcc1a6c424f54c0b7d126cacd58a1d367864736f6c634300060c0033",
  "linkReferences": {},
  "deployedLinkReferences": {}
}